{
	"testTransition.sol": {
		"TestTransition": {
			"abi": [
				{
					"anonymous": false,
					"inputs": [
						{
							"indexed": true,
							"internalType": "address",
							"name": "burner",
							"type": "address"
						},
						{
							"indexed": true,
							"internalType": "address",
							"name": "zeroAddress",
							"type": "address"
						},
						{
							"indexed": true,
							"internalType": "uint256",
							"name": "amount",
							"type": "uint256"
						}
					],
					"name": "Burn",
					"type": "event"
				},
				{
					"anonymous": false,
					"inputs": [
						{
							"indexed": true,
							"internalType": "address",
							"name": "minter",
							"type": "address"
						},
						{
							"indexed": true,
							"internalType": "uint256",
							"name": "amount",
							"type": "uint256"
						}
					],
					"name": "Mint",
					"type": "event"
				},
				{
					"anonymous": false,
					"inputs": [
						{
							"indexed": true,
							"internalType": "address",
							"name": "sender",
							"type": "address"
						},
						{
							"indexed": true,
							"internalType": "address",
							"name": "reiciver",
							"type": "address"
						},
						{
							"indexed": true,
							"internalType": "uint256",
							"name": "amount",
							"type": "uint256"
						}
					],
					"name": "Transfer",
					"type": "event"
				},
				{
					"inputs": [
						{
							"internalType": "address",
							"name": "account",
							"type": "address"
						}
					],
					"name": "balanceOf",
					"outputs": [
						{
							"internalType": "uint256",
							"name": "",
							"type": "uint256"
						}
					],
					"stateMutability": "view",
					"type": "function"
				},
				{
					"inputs": [
						{
							"internalType": "uint256",
							"name": "amount",
							"type": "uint256"
						}
					],
					"name": "burn",
					"outputs": [
						{
							"internalType": "bool",
							"name": "",
							"type": "bool"
						}
					],
					"stateMutability": "nonpayable",
					"type": "function"
				},
				{
					"inputs": [
						{
							"internalType": "uint256",
							"name": "amount",
							"type": "uint256"
						}
					],
					"name": "faucetMint",
					"outputs": [
						{
							"internalType": "bool",
							"name": "",
							"type": "bool"
						}
					],
					"stateMutability": "nonpayable",
					"type": "function"
				},
				{
					"inputs": [],
					"name": "mintWithEth",
					"outputs": [
						{
							"internalType": "bool",
							"name": "",
							"type": "bool"
						}
					],
					"stateMutability": "payable",
					"type": "function"
				},
				{
					"inputs": [],
					"name": "totalAmount",
					"outputs": [
						{
							"internalType": "uint256",
							"name": "",
							"type": "uint256"
						}
					],
					"stateMutability": "view",
					"type": "function"
				},
				{
					"inputs": [
						{
							"internalType": "address",
							"name": "to",
							"type": "address"
						},
						{
							"internalType": "uint256",
							"name": "amount",
							"type": "uint256"
						}
					],
					"name": "transfer",
					"outputs": [
						{
							"internalType": "bool",
							"name": "",
							"type": "bool"
						}
					],
					"stateMutability": "nonpayable",
					"type": "function"
				}
			],
			"devdoc": {
				"kind": "dev",
				"methods": {},
				"version": 1
			},
			"evm": {
				"assembly": "    /* \"testTransition.sol\":61:2444  contract TestTransition {... */\n  mstore(0x40, 0x80)\n  callvalue\n  dup1\n  iszero\n  tag_1\n  jumpi\n  0x00\n  dup1\n  revert\ntag_1:\n  pop\n  dataSize(sub_0)\n  dup1\n  dataOffset(sub_0)\n  0x00\n  codecopy\n  0x00\n  return\nstop\n\nsub_0: assembly {\n        /* \"testTransition.sol\":61:2444  contract TestTransition {... */\n      mstore(0x40, 0x80)\n      jumpi(tag_1, lt(calldatasize, 0x04))\n      shr(0xe0, calldataload(0x00))\n      dup1\n      0x0ad641f1\n      eq\n      tag_2\n      jumpi\n      dup1\n      0x1a39d8ef\n      eq\n      tag_3\n      jumpi\n      dup1\n      0x42966c68\n      eq\n      tag_4\n      jumpi\n      dup1\n      0x70a08231\n      eq\n      tag_5\n      jumpi\n      dup1\n      0xa9059cbb\n      eq\n      tag_6\n      jumpi\n      dup1\n      0xd8181951\n      eq\n      tag_7\n      jumpi\n    tag_1:\n      0x00\n      dup1\n      revert\n        /* \"testTransition.sol\":1313:1548  function mintWithEth() public payable returns (bool) {... */\n    tag_2:\n      tag_8\n      tag_9\n      jump\t// in\n    tag_8:\n      mload(0x40)\n      tag_10\n      swap2\n      swap1\n      tag_11\n      jump\t// in\n    tag_10:\n      mload(0x40)\n      dup1\n      swap2\n      sub\n      swap1\n      return\n        /* \"testTransition.sol\":994:1085  function totalAmount() public view returns (uint256) {... */\n    tag_3:\n      callvalue\n      dup1\n      iszero\n      tag_12\n      jumpi\n      0x00\n      dup1\n      revert\n    tag_12:\n      pop\n      tag_13\n      tag_14\n      jump\t// in\n    tag_13:\n      mload(0x40)\n      tag_15\n      swap2\n      swap1\n      tag_16\n      jump\t// in\n    tag_15:\n      mload(0x40)\n      dup1\n      swap2\n      sub\n      swap1\n      return\n        /* \"testTransition.sol\":1854:2137  function burn(uint256 amount) public returns (bool) {... */\n    tag_4:\n      callvalue\n      dup1\n      iszero\n      tag_17\n      jumpi\n      0x00\n      dup1\n      revert\n    tag_17:\n      pop\n      tag_18\n      0x04\n      dup1\n      calldatasize\n      sub\n      dup2\n      add\n      swap1\n      tag_19\n      swap2\n      swap1\n      tag_20\n      jump\t// in\n    tag_19:\n      tag_21\n      jump\t// in\n    tag_18:\n      mload(0x40)\n      tag_22\n      swap2\n      swap1\n      tag_11\n      jump\t// in\n    tag_22:\n      mload(0x40)\n      dup1\n      swap2\n      sub\n      swap1\n      return\n        /* \"testTransition.sol\":1144:1254  function balanceOf(address account) public view returns (uint256) {... */\n    tag_5:\n      callvalue\n      dup1\n      iszero\n      tag_23\n      jumpi\n      0x00\n      dup1\n      revert\n    tag_23:\n      pop\n      tag_24\n      0x04\n      dup1\n      calldatasize\n      sub\n      dup2\n      add\n      swap1\n      tag_25\n      swap2\n      swap1\n      tag_26\n      jump\t// in\n    tag_25:\n      tag_27\n      jump\t// in\n    tag_24:\n      mload(0x40)\n      tag_28\n      swap2\n      swap1\n      tag_16\n      jump\t// in\n    tag_28:\n      mload(0x40)\n      dup1\n      swap2\n      sub\n      swap1\n      return\n        /* \"testTransition.sol\":2145:2441  function transfer(address to, uint256 amount) public returns (bool) {... */\n    tag_6:\n      callvalue\n      dup1\n      iszero\n      tag_29\n      jumpi\n      0x00\n      dup1\n      revert\n    tag_29:\n      pop\n      tag_30\n      0x04\n      dup1\n      calldatasize\n      sub\n      dup2\n      add\n      swap1\n      tag_31\n      swap2\n      swap1\n      tag_32\n      jump\t// in\n    tag_31:\n      tag_33\n      jump\t// in\n    tag_30:\n      mload(0x40)\n      tag_34\n      swap2\n      swap1\n      tag_11\n      jump\t// in\n    tag_34:\n      mload(0x40)\n      dup1\n      swap2\n      sub\n      swap1\n      return\n        /* \"testTransition.sol\":1587:1825  function faucetMint(uint256 amount) public returns (bool) {... */\n    tag_7:\n      callvalue\n      dup1\n      iszero\n      tag_35\n      jumpi\n      0x00\n      dup1\n      revert\n    tag_35:\n      pop\n      tag_36\n      0x04\n      dup1\n      calldatasize\n      sub\n      dup2\n      add\n      swap1\n      tag_37\n      swap2\n      swap1\n      tag_20\n      jump\t// in\n    tag_37:\n      tag_38\n      jump\t// in\n    tag_36:\n      mload(0x40)\n      tag_39\n      swap2\n      swap1\n      tag_11\n      jump\t// in\n    tag_39:\n      mload(0x40)\n      dup1\n      swap2\n      sub\n      swap1\n      return\n        /* \"testTransition.sol\":1313:1548  function mintWithEth() public payable returns (bool) {... */\n    tag_9:\n        /* \"testTransition.sol\":1360:1364  bool */\n      0x00\n        /* \"testTransition.sol\":1377:1391  uint256 amount */\n      dup1\n        /* \"testTransition.sol\":1394:1403  msg.value */\n      callvalue\n        /* \"testTransition.sol\":1377:1403  uint256 amount = msg.value */\n      swap1\n      pop\n        /* \"testTransition.sol\":1439:1445  amount */\n      dup1\n        /* \"testTransition.sol\":1414:1423  _balances */\n      0x00\n        /* \"testTransition.sol\":1414:1435  _balances[msg.sender] */\n      dup1\n        /* \"testTransition.sol\":1424:1434  msg.sender */\n      caller\n        /* \"testTransition.sol\":1414:1435  _balances[msg.sender] */\n      0xffffffffffffffffffffffffffffffffffffffff\n      and\n      0xffffffffffffffffffffffffffffffffffffffff\n      and\n      dup2\n      mstore\n      0x20\n      add\n      swap1\n      dup2\n      mstore\n      0x20\n      add\n      0x00\n      keccak256\n      0x00\n        /* \"testTransition.sol\":1414:1445  _balances[msg.sender] += amount */\n      dup3\n      dup3\n      sload\n      tag_41\n      swap2\n      swap1\n      tag_42\n      jump\t// in\n    tag_41:\n      swap3\n      pop\n      pop\n      dup2\n      swap1\n      sstore\n      pop\n        /* \"testTransition.sol\":1472:1478  amount */\n      dup1\n        /* \"testTransition.sol\":1456:1468  _totalAmount */\n      0x01\n      0x00\n        /* \"testTransition.sol\":1456:1478  _totalAmount += amount */\n      dup3\n      dup3\n      sload\n      tag_43\n      swap2\n      swap1\n      tag_42\n      jump\t// in\n    tag_43:\n      swap3\n      pop\n      pop\n      dup2\n      swap1\n      sstore\n      pop\n        /* \"testTransition.sol\":1511:1517  amount */\n      dup1\n        /* \"testTransition.sol\":1499:1509  msg.sender */\n      caller\n        /* \"testTransition.sol\":1494:1518  Mint(msg.sender, amount) */\n      0xffffffffffffffffffffffffffffffffffffffff\n      and\n      0x0f6798a560793a54c3bcfe86a93cde1e73087d944c0ea20544137d4121396885\n      mload(0x40)\n      mload(0x40)\n      dup1\n      swap2\n      sub\n      swap1\n      log3\n        /* \"testTransition.sol\":1536:1540  true */\n      0x01\n        /* \"testTransition.sol\":1529:1540  return true */\n      swap2\n      pop\n      pop\n        /* \"testTransition.sol\":1313:1548  function mintWithEth() public payable returns (bool) {... */\n      swap1\n      jump\t// out\n        /* \"testTransition.sol\":994:1085  function totalAmount() public view returns (uint256) {... */\n    tag_14:\n        /* \"testTransition.sol\":1038:1045  uint256 */\n      0x00\n        /* \"testTransition.sol\":1065:1077  _totalAmount */\n      sload(0x01)\n        /* \"testTransition.sol\":1058:1077  return _totalAmount */\n      swap1\n      pop\n        /* \"testTransition.sol\":994:1085  function totalAmount() public view returns (uint256) {... */\n      swap1\n      jump\t// out\n        /* \"testTransition.sol\":1854:2137  function burn(uint256 amount) public returns (bool) {... */\n    tag_21:\n        /* \"testTransition.sol\":1900:1904  bool */\n      0x00\n        /* \"testTransition.sol\":1949:1955  amount */\n      dup2\n        /* \"testTransition.sol\":1925:1934  _balances */\n      0x00\n        /* \"testTransition.sol\":1925:1946  _balances[msg.sender] */\n      dup1\n        /* \"testTransition.sol\":1935:1945  msg.sender */\n      caller\n        /* \"testTransition.sol\":1925:1946  _balances[msg.sender] */\n      0xffffffffffffffffffffffffffffffffffffffff\n      and\n      0xffffffffffffffffffffffffffffffffffffffff\n      and\n      dup2\n      mstore\n      0x20\n      add\n      swap1\n      dup2\n      mstore\n      0x20\n      add\n      0x00\n      keccak256\n      sload\n        /* \"testTransition.sol\":1925:1955  _balances[msg.sender] > amount */\n      gt\n        /* \"testTransition.sol\":1917:1980  require(_balances[msg.sender] > amount, \"not available amount\") */\n      tag_46\n      jumpi\n      mload(0x40)\n      0x08c379a000000000000000000000000000000000000000000000000000000000\n      dup2\n      mstore\n      0x04\n      add\n      tag_47\n      swap1\n      tag_48\n      jump\t// in\n    tag_47:\n      mload(0x40)\n      dup1\n      swap2\n      sub\n      swap1\n      revert\n    tag_46:\n        /* \"testTransition.sol\":2016:2022  amount */\n      dup2\n        /* \"testTransition.sol\":1991:2000  _balances */\n      0x00\n        /* \"testTransition.sol\":1991:2012  _balances[msg.sender] */\n      dup1\n        /* \"testTransition.sol\":2001:2011  msg.sender */\n      caller\n        /* \"testTransition.sol\":1991:2012  _balances[msg.sender] */\n      0xffffffffffffffffffffffffffffffffffffffff\n      and\n      0xffffffffffffffffffffffffffffffffffffffff\n      and\n      dup2\n      mstore\n      0x20\n      add\n      swap1\n      dup2\n      mstore\n      0x20\n      add\n      0x00\n      keccak256\n      0x00\n        /* \"testTransition.sol\":1991:2022  _balances[msg.sender] -= amount */\n      dup3\n      dup3\n      sload\n      tag_49\n      swap2\n      swap1\n      tag_50\n      jump\t// in\n    tag_49:\n      swap3\n      pop\n      pop\n      dup2\n      swap1\n      sstore\n      pop\n        /* \"testTransition.sol\":2049:2055  amount */\n      dup2\n        /* \"testTransition.sol\":2033:2045  _totalAmount */\n      0x01\n      0x00\n        /* \"testTransition.sol\":2033:2055  _totalAmount -= amount */\n      dup3\n      dup3\n      sload\n      tag_51\n      swap2\n      swap1\n      tag_50\n      jump\t// in\n    tag_51:\n      swap3\n      pop\n      pop\n      dup2\n      swap1\n      sstore\n      pop\n        /* \"testTransition.sol\":2100:2106  amount */\n      dup2\n        /* \"testTransition.sol\":2096:2097  0 */\n      0x00\n        /* \"testTransition.sol\":2071:2107  Burn(msg.sender, address(0), amount) */\n      0xffffffffffffffffffffffffffffffffffffffff\n      and\n        /* \"testTransition.sol\":2076:2086  msg.sender */\n      caller\n        /* \"testTransition.sol\":2071:2107  Burn(msg.sender, address(0), amount) */\n      0xffffffffffffffffffffffffffffffffffffffff\n      and\n      0xbac40739b0d4ca32fa2d82fc91630465ba3eddd1598da6fca393b26fb63b9453\n      mload(0x40)\n      mload(0x40)\n      dup1\n      swap2\n      sub\n      swap1\n      log4\n        /* \"testTransition.sol\":2125:2129  true */\n      0x01\n        /* \"testTransition.sol\":2118:2129  return true */\n      swap1\n      pop\n        /* \"testTransition.sol\":1854:2137  function burn(uint256 amount) public returns (bool) {... */\n      swap2\n      swap1\n      pop\n      jump\t// out\n        /* \"testTransition.sol\":1144:1254  function balanceOf(address account) public view returns (uint256) {... */\n    tag_27:\n        /* \"testTransition.sol\":1201:1208  uint256 */\n      0x00\n        /* \"testTransition.sol\":1228:1237  _balances */\n      dup1\n        /* \"testTransition.sol\":1228:1246  _balances[account] */\n      0x00\n        /* \"testTransition.sol\":1238:1245  account */\n      dup4\n        /* \"testTransition.sol\":1228:1246  _balances[account] */\n      0xffffffffffffffffffffffffffffffffffffffff\n      and\n      0xffffffffffffffffffffffffffffffffffffffff\n      and\n      dup2\n      mstore\n      0x20\n      add\n      swap1\n      dup2\n      mstore\n      0x20\n      add\n      0x00\n      keccak256\n      sload\n        /* \"testTransition.sol\":1221:1246  return _balances[account] */\n      swap1\n      pop\n        /* \"testTransition.sol\":1144:1254  function balanceOf(address account) public view returns (uint256) {... */\n      swap2\n      swap1\n      pop\n      jump\t// out\n        /* \"testTransition.sol\":2145:2441  function transfer(address to, uint256 amount) public returns (bool) {... */\n    tag_33:\n        /* \"testTransition.sol\":2207:2211  bool */\n      0x00\n        /* \"testTransition.sol\":2256:2262  amount */\n      dup2\n        /* \"testTransition.sol\":2232:2241  _balances */\n      0x00\n        /* \"testTransition.sol\":2232:2253  _balances[msg.sender] */\n      dup1\n        /* \"testTransition.sol\":2242:2252  msg.sender */\n      caller\n        /* \"testTransition.sol\":2232:2253  _balances[msg.sender] */\n      0xffffffffffffffffffffffffffffffffffffffff\n      and\n      0xffffffffffffffffffffffffffffffffffffffff\n      and\n      dup2\n      mstore\n      0x20\n      add\n      swap1\n      dup2\n      mstore\n      0x20\n      add\n      0x00\n      keccak256\n      sload\n        /* \"testTransition.sol\":2232:2262  _balances[msg.sender] > amount */\n      gt\n        /* \"testTransition.sol\":2224:2287  require(_balances[msg.sender] > amount, \"not available amount\") */\n      tag_54\n      jumpi\n      mload(0x40)\n      0x08c379a000000000000000000000000000000000000000000000000000000000\n      dup2\n      mstore\n      0x04\n      add\n      tag_55\n      swap1\n      tag_48\n      jump\t// in\n    tag_55:\n      mload(0x40)\n      dup1\n      swap2\n      sub\n      swap1\n      revert\n    tag_54:\n        /* \"testTransition.sol\":2323:2329  amount */\n      dup2\n        /* \"testTransition.sol\":2298:2307  _balances */\n      0x00\n        /* \"testTransition.sol\":2298:2319  _balances[msg.sender] */\n      dup1\n        /* \"testTransition.sol\":2308:2318  msg.sender */\n      caller\n        /* \"testTransition.sol\":2298:2319  _balances[msg.sender] */\n      0xffffffffffffffffffffffffffffffffffffffff\n      and\n      0xffffffffffffffffffffffffffffffffffffffff\n      and\n      dup2\n      mstore\n      0x20\n      add\n      swap1\n      dup2\n      mstore\n      0x20\n      add\n      0x00\n      keccak256\n      0x00\n        /* \"testTransition.sol\":2298:2329  _balances[msg.sender] -= amount */\n      dup3\n      dup3\n      sload\n      tag_56\n      swap2\n      swap1\n      tag_50\n      jump\t// in\n    tag_56:\n      swap3\n      pop\n      pop\n      dup2\n      swap1\n      sstore\n      pop\n        /* \"testTransition.sol\":2357:2363  amount */\n      dup2\n        /* \"testTransition.sol\":2340:2349  _balances */\n      0x00\n        /* \"testTransition.sol\":2340:2353  _balances[to] */\n      dup1\n        /* \"testTransition.sol\":2350:2352  to */\n      dup6\n        /* \"testTransition.sol\":2340:2353  _balances[to] */\n      0xffffffffffffffffffffffffffffffffffffffff\n      and\n      0xffffffffffffffffffffffffffffffffffffffff\n      and\n      dup2\n      mstore\n      0x20\n      add\n      swap1\n      dup2\n      mstore\n      0x20\n      add\n      0x00\n      keccak256\n      0x00\n        /* \"testTransition.sol\":2340:2363  _balances[to] += amount */\n      dup3\n      dup3\n      sload\n      tag_57\n      swap2\n      swap1\n      tag_42\n      jump\t// in\n    tag_57:\n      swap3\n      pop\n      pop\n      dup2\n      swap1\n      sstore\n      pop\n        /* \"testTransition.sol\":2404:2410  amount */\n      dup2\n        /* \"testTransition.sol\":2400:2402  to */\n      dup4\n        /* \"testTransition.sol\":2379:2411  Transfer(msg.sender, to, amount) */\n      0xffffffffffffffffffffffffffffffffffffffff\n      and\n        /* \"testTransition.sol\":2388:2398  msg.sender */\n      caller\n        /* \"testTransition.sol\":2379:2411  Transfer(msg.sender, to, amount) */\n      0xffffffffffffffffffffffffffffffffffffffff\n      and\n      0xddf252ad1be2c89b69c2b068fc378daa952ba7f163c4a11628f55a4df523b3ef\n      mload(0x40)\n      mload(0x40)\n      dup1\n      swap2\n      sub\n      swap1\n      log4\n        /* \"testTransition.sol\":2429:2433  true */\n      0x01\n        /* \"testTransition.sol\":2422:2433  return true */\n      swap1\n      pop\n        /* \"testTransition.sol\":2145:2441  function transfer(address to, uint256 amount) public returns (bool) {... */\n      swap3\n      swap2\n      pop\n      pop\n      jump\t// out\n        /* \"testTransition.sol\":1587:1825  function faucetMint(uint256 amount) public returns (bool) {... */\n    tag_38:\n        /* \"testTransition.sol\":1639:1643  bool */\n      0x00\n        /* \"testTransition.sol\":1674:1679  2**88 */\n      0x010000000000000000000000\n        /* \"testTransition.sol\":1664:1670  amount */\n      dup3\n        /* \"testTransition.sol\":1664:1679  amount <= 2**88 */\n      gt\n      iszero\n        /* \"testTransition.sol\":1656:1680  require(amount <= 2**88) */\n      tag_59\n      jumpi\n      0x00\n      dup1\n      revert\n    tag_59:\n        /* \"testTransition.sol\":1716:1722  amount */\n      dup2\n        /* \"testTransition.sol\":1691:1700  _balances */\n      0x00\n        /* \"testTransition.sol\":1691:1712  _balances[msg.sender] */\n      dup1\n        /* \"testTransition.sol\":1701:1711  msg.sender */\n      caller\n        /* \"testTransition.sol\":1691:1712  _balances[msg.sender] */\n      0xffffffffffffffffffffffffffffffffffffffff\n      and\n      0xffffffffffffffffffffffffffffffffffffffff\n      and\n      dup2\n      mstore\n      0x20\n      add\n      swap1\n      dup2\n      mstore\n      0x20\n      add\n      0x00\n      keccak256\n      0x00\n        /* \"testTransition.sol\":1691:1722  _balances[msg.sender] += amount */\n      dup3\n      dup3\n      sload\n      tag_60\n      swap2\n      swap1\n      tag_42\n      jump\t// in\n    tag_60:\n      swap3\n      pop\n      pop\n      dup2\n      swap1\n      sstore\n      pop\n        /* \"testTransition.sol\":1749:1755  amount */\n      dup2\n        /* \"testTransition.sol\":1733:1745  _totalAmount */\n      0x01\n      0x00\n        /* \"testTransition.sol\":1733:1755  _totalAmount += amount */\n      dup3\n      dup3\n      sload\n      tag_61\n      swap2\n      swap1\n      tag_42\n      jump\t// in\n    tag_61:\n      swap3\n      pop\n      pop\n      dup2\n      swap1\n      sstore\n      pop\n        /* \"testTransition.sol\":1788:1794  amount */\n      dup2\n        /* \"testTransition.sol\":1776:1786  msg.sender */\n      caller\n        /* \"testTransition.sol\":1771:1795  Mint(msg.sender, amount) */\n      0xffffffffffffffffffffffffffffffffffffffff\n      and\n      0x0f6798a560793a54c3bcfe86a93cde1e73087d944c0ea20544137d4121396885\n      mload(0x40)\n      mload(0x40)\n      dup1\n      swap2\n      sub\n      swap1\n      log3\n        /* \"testTransition.sol\":1813:1817  true */\n      0x01\n        /* \"testTransition.sol\":1806:1817  return true */\n      swap1\n      pop\n        /* \"testTransition.sol\":1587:1825  function faucetMint(uint256 amount) public returns (bool) {... */\n      swap2\n      swap1\n      pop\n      jump\t// out\n        /* \"#utility.yul\":7:97   */\n    tag_62:\n        /* \"#utility.yul\":41:48   */\n      0x00\n        /* \"#utility.yul\":84:89   */\n      dup2\n        /* \"#utility.yul\":77:90   */\n      iszero\n        /* \"#utility.yul\":70:91   */\n      iszero\n        /* \"#utility.yul\":59:91   */\n      swap1\n      pop\n        /* \"#utility.yul\":7:97   */\n      swap2\n      swap1\n      pop\n      jump\t// out\n        /* \"#utility.yul\":103:212   */\n    tag_63:\n        /* \"#utility.yul\":184:205   */\n      tag_82\n        /* \"#utility.yul\":199:204   */\n      dup2\n        /* \"#utility.yul\":184:205   */\n      tag_62\n      jump\t// in\n    tag_82:\n        /* \"#utility.yul\":179:182   */\n      dup3\n        /* \"#utility.yul\":172:206   */\n      mstore\n        /* \"#utility.yul\":103:212   */\n      pop\n      pop\n      jump\t// out\n        /* \"#utility.yul\":218:428   */\n    tag_11:\n        /* \"#utility.yul\":305:309   */\n      0x00\n        /* \"#utility.yul\":343:345   */\n      0x20\n        /* \"#utility.yul\":332:341   */\n      dup3\n        /* \"#utility.yul\":328:346   */\n      add\n        /* \"#utility.yul\":320:346   */\n      swap1\n      pop\n        /* \"#utility.yul\":356:421   */\n      tag_84\n        /* \"#utility.yul\":418:419   */\n      0x00\n        /* \"#utility.yul\":407:416   */\n      dup4\n        /* \"#utility.yul\":403:420   */\n      add\n        /* \"#utility.yul\":394:400   */\n      dup5\n        /* \"#utility.yul\":356:421   */\n      tag_63\n      jump\t// in\n    tag_84:\n        /* \"#utility.yul\":218:428   */\n      swap3\n      swap2\n      pop\n      pop\n      jump\t// out\n        /* \"#utility.yul\":434:511   */\n    tag_64:\n        /* \"#utility.yul\":471:478   */\n      0x00\n        /* \"#utility.yul\":500:505   */\n      dup2\n        /* \"#utility.yul\":489:505   */\n      swap1\n      pop\n        /* \"#utility.yul\":434:511   */\n      swap2\n      swap1\n      pop\n      jump\t// out\n        /* \"#utility.yul\":517:635   */\n    tag_65:\n        /* \"#utility.yul\":604:628   */\n      tag_87\n        /* \"#utility.yul\":622:627   */\n      dup2\n        /* \"#utility.yul\":604:628   */\n      tag_64\n      jump\t// in\n    tag_87:\n        /* \"#utility.yul\":599:602   */\n      dup3\n        /* \"#utility.yul\":592:629   */\n      mstore\n        /* \"#utility.yul\":517:635   */\n      pop\n      pop\n      jump\t// out\n        /* \"#utility.yul\":641:863   */\n    tag_16:\n        /* \"#utility.yul\":734:738   */\n      0x00\n        /* \"#utility.yul\":772:774   */\n      0x20\n        /* \"#utility.yul\":761:770   */\n      dup3\n        /* \"#utility.yul\":757:775   */\n      add\n        /* \"#utility.yul\":749:775   */\n      swap1\n      pop\n        /* \"#utility.yul\":785:856   */\n      tag_89\n        /* \"#utility.yul\":853:854   */\n      0x00\n        /* \"#utility.yul\":842:851   */\n      dup4\n        /* \"#utility.yul\":838:855   */\n      add\n        /* \"#utility.yul\":829:835   */\n      dup5\n        /* \"#utility.yul\":785:856   */\n      tag_65\n      jump\t// in\n    tag_89:\n        /* \"#utility.yul\":641:863   */\n      swap3\n      swap2\n      pop\n      pop\n      jump\t// out\n        /* \"#utility.yul\":950:1067   */\n    tag_67:\n        /* \"#utility.yul\":1059:1060   */\n      0x00\n        /* \"#utility.yul\":1056:1057   */\n      dup1\n        /* \"#utility.yul\":1049:1061   */\n      revert\n        /* \"#utility.yul\":1196:1318   */\n    tag_69:\n        /* \"#utility.yul\":1269:1293   */\n      tag_94\n        /* \"#utility.yul\":1287:1292   */\n      dup2\n        /* \"#utility.yul\":1269:1293   */\n      tag_64\n      jump\t// in\n    tag_94:\n        /* \"#utility.yul\":1262:1267   */\n      dup2\n        /* \"#utility.yul\":1259:1294   */\n      eq\n        /* \"#utility.yul\":1249:1312   */\n      tag_95\n      jumpi\n        /* \"#utility.yul\":1308:1309   */\n      0x00\n        /* \"#utility.yul\":1305:1306   */\n      dup1\n        /* \"#utility.yul\":1298:1310   */\n      revert\n        /* \"#utility.yul\":1249:1312   */\n    tag_95:\n        /* \"#utility.yul\":1196:1318   */\n      pop\n      jump\t// out\n        /* \"#utility.yul\":1324:1463   */\n    tag_70:\n        /* \"#utility.yul\":1370:1375   */\n      0x00\n        /* \"#utility.yul\":1408:1414   */\n      dup2\n        /* \"#utility.yul\":1395:1415   */\n      calldataload\n        /* \"#utility.yul\":1386:1415   */\n      swap1\n      pop\n        /* \"#utility.yul\":1424:1457   */\n      tag_97\n        /* \"#utility.yul\":1451:1456   */\n      dup2\n        /* \"#utility.yul\":1424:1457   */\n      tag_69\n      jump\t// in\n    tag_97:\n        /* \"#utility.yul\":1324:1463   */\n      swap3\n      swap2\n      pop\n      pop\n      jump\t// out\n        /* \"#utility.yul\":1469:1798   */\n    tag_20:\n        /* \"#utility.yul\":1528:1534   */\n      0x00\n        /* \"#utility.yul\":1577:1579   */\n      0x20\n        /* \"#utility.yul\":1565:1574   */\n      dup3\n        /* \"#utility.yul\":1556:1563   */\n      dup5\n        /* \"#utility.yul\":1552:1575   */\n      sub\n        /* \"#utility.yul\":1548:1580   */\n      slt\n        /* \"#utility.yul\":1545:1664   */\n      iszero\n      tag_99\n      jumpi\n        /* \"#utility.yul\":1583:1662   */\n      tag_100\n      tag_67\n      jump\t// in\n    tag_100:\n        /* \"#utility.yul\":1545:1664   */\n    tag_99:\n        /* \"#utility.yul\":1703:1704   */\n      0x00\n        /* \"#utility.yul\":1728:1781   */\n      tag_101\n        /* \"#utility.yul\":1773:1780   */\n      dup5\n        /* \"#utility.yul\":1764:1770   */\n      dup3\n        /* \"#utility.yul\":1753:1762   */\n      dup6\n        /* \"#utility.yul\":1749:1771   */\n      add\n        /* \"#utility.yul\":1728:1781   */\n      tag_70\n      jump\t// in\n    tag_101:\n        /* \"#utility.yul\":1718:1781   */\n      swap2\n      pop\n        /* \"#utility.yul\":1674:1791   */\n      pop\n        /* \"#utility.yul\":1469:1798   */\n      swap3\n      swap2\n      pop\n      pop\n      jump\t// out\n        /* \"#utility.yul\":1804:1930   */\n    tag_71:\n        /* \"#utility.yul\":1841:1848   */\n      0x00\n        /* \"#utility.yul\":1881:1923   */\n      0xffffffffffffffffffffffffffffffffffffffff\n        /* \"#utility.yul\":1874:1879   */\n      dup3\n        /* \"#utility.yul\":1870:1924   */\n      and\n        /* \"#utility.yul\":1859:1924   */\n      swap1\n      pop\n        /* \"#utility.yul\":1804:1930   */\n      swap2\n      swap1\n      pop\n      jump\t// out\n        /* \"#utility.yul\":1936:2032   */\n    tag_72:\n        /* \"#utility.yul\":1973:1980   */\n      0x00\n        /* \"#utility.yul\":2002:2026   */\n      tag_104\n        /* \"#utility.yul\":2020:2025   */\n      dup3\n        /* \"#utility.yul\":2002:2026   */\n      tag_71\n      jump\t// in\n    tag_104:\n        /* \"#utility.yul\":1991:2026   */\n      swap1\n      pop\n        /* \"#utility.yul\":1936:2032   */\n      swap2\n      swap1\n      pop\n      jump\t// out\n        /* \"#utility.yul\":2038:2160   */\n    tag_73:\n        /* \"#utility.yul\":2111:2135   */\n      tag_106\n        /* \"#utility.yul\":2129:2134   */\n      dup2\n        /* \"#utility.yul\":2111:2135   */\n      tag_72\n      jump\t// in\n    tag_106:\n        /* \"#utility.yul\":2104:2109   */\n      dup2\n        /* \"#utility.yul\":2101:2136   */\n      eq\n        /* \"#utility.yul\":2091:2154   */\n      tag_107\n      jumpi\n        /* \"#utility.yul\":2150:2151   */\n      0x00\n        /* \"#utility.yul\":2147:2148   */\n      dup1\n        /* \"#utility.yul\":2140:2152   */\n      revert\n        /* \"#utility.yul\":2091:2154   */\n    tag_107:\n        /* \"#utility.yul\":2038:2160   */\n      pop\n      jump\t// out\n        /* \"#utility.yul\":2166:2305   */\n    tag_74:\n        /* \"#utility.yul\":2212:2217   */\n      0x00\n        /* \"#utility.yul\":2250:2256   */\n      dup2\n        /* \"#utility.yul\":2237:2257   */\n      calldataload\n        /* \"#utility.yul\":2228:2257   */\n      swap1\n      pop\n        /* \"#utility.yul\":2266:2299   */\n      tag_109\n        /* \"#utility.yul\":2293:2298   */\n      dup2\n        /* \"#utility.yul\":2266:2299   */\n      tag_73\n      jump\t// in\n    tag_109:\n        /* \"#utility.yul\":2166:2305   */\n      swap3\n      swap2\n      pop\n      pop\n      jump\t// out\n        /* \"#utility.yul\":2311:2640   */\n    tag_26:\n        /* \"#utility.yul\":2370:2376   */\n      0x00\n        /* \"#utility.yul\":2419:2421   */\n      0x20\n        /* \"#utility.yul\":2407:2416   */\n      dup3\n        /* \"#utility.yul\":2398:2405   */\n      dup5\n        /* \"#utility.yul\":2394:2417   */\n      sub\n        /* \"#utility.yul\":2390:2422   */\n      slt\n        /* \"#utility.yul\":2387:2506   */\n      iszero\n      tag_111\n      jumpi\n        /* \"#utility.yul\":2425:2504   */\n      tag_112\n      tag_67\n      jump\t// in\n    tag_112:\n        /* \"#utility.yul\":2387:2506   */\n    tag_111:\n        /* \"#utility.yul\":2545:2546   */\n      0x00\n        /* \"#utility.yul\":2570:2623   */\n      tag_113\n        /* \"#utility.yul\":2615:2622   */\n      dup5\n        /* \"#utility.yul\":2606:2612   */\n      dup3\n        /* \"#utility.yul\":2595:2604   */\n      dup6\n        /* \"#utility.yul\":2591:2613   */\n      add\n        /* \"#utility.yul\":2570:2623   */\n      tag_74\n      jump\t// in\n    tag_113:\n        /* \"#utility.yul\":2560:2623   */\n      swap2\n      pop\n        /* \"#utility.yul\":2516:2633   */\n      pop\n        /* \"#utility.yul\":2311:2640   */\n      swap3\n      swap2\n      pop\n      pop\n      jump\t// out\n        /* \"#utility.yul\":2646:3120   */\n    tag_32:\n        /* \"#utility.yul\":2714:2720   */\n      0x00\n        /* \"#utility.yul\":2722:2728   */\n      dup1\n        /* \"#utility.yul\":2771:2773   */\n      0x40\n        /* \"#utility.yul\":2759:2768   */\n      dup4\n        /* \"#utility.yul\":2750:2757   */\n      dup6\n        /* \"#utility.yul\":2746:2769   */\n      sub\n        /* \"#utility.yul\":2742:2774   */\n      slt\n        /* \"#utility.yul\":2739:2858   */\n      iszero\n      tag_115\n      jumpi\n        /* \"#utility.yul\":2777:2856   */\n      tag_116\n      tag_67\n      jump\t// in\n    tag_116:\n        /* \"#utility.yul\":2739:2858   */\n    tag_115:\n        /* \"#utility.yul\":2897:2898   */\n      0x00\n        /* \"#utility.yul\":2922:2975   */\n      tag_117\n        /* \"#utility.yul\":2967:2974   */\n      dup6\n        /* \"#utility.yul\":2958:2964   */\n      dup3\n        /* \"#utility.yul\":2947:2956   */\n      dup7\n        /* \"#utility.yul\":2943:2965   */\n      add\n        /* \"#utility.yul\":2922:2975   */\n      tag_74\n      jump\t// in\n    tag_117:\n        /* \"#utility.yul\":2912:2975   */\n      swap3\n      pop\n        /* \"#utility.yul\":2868:2985   */\n      pop\n        /* \"#utility.yul\":3024:3026   */\n      0x20\n        /* \"#utility.yul\":3050:3103   */\n      tag_118\n        /* \"#utility.yul\":3095:3102   */\n      dup6\n        /* \"#utility.yul\":3086:3092   */\n      dup3\n        /* \"#utility.yul\":3075:3084   */\n      dup7\n        /* \"#utility.yul\":3071:3093   */\n      add\n        /* \"#utility.yul\":3050:3103   */\n      tag_70\n      jump\t// in\n    tag_118:\n        /* \"#utility.yul\":3040:3103   */\n      swap2\n      pop\n        /* \"#utility.yul\":2995:3113   */\n      pop\n        /* \"#utility.yul\":2646:3120   */\n      swap3\n      pop\n      swap3\n      swap1\n      pop\n      jump\t// out\n        /* \"#utility.yul\":3126:3306   */\n    tag_75:\n        /* \"#utility.yul\":3174:3251   */\n      0x4e487b7100000000000000000000000000000000000000000000000000000000\n        /* \"#utility.yul\":3171:3172   */\n      0x00\n        /* \"#utility.yul\":3164:3252   */\n      mstore\n        /* \"#utility.yul\":3271:3275   */\n      0x11\n        /* \"#utility.yul\":3268:3269   */\n      0x04\n        /* \"#utility.yul\":3261:3276   */\n      mstore\n        /* \"#utility.yul\":3295:3299   */\n      0x24\n        /* \"#utility.yul\":3292:3293   */\n      0x00\n        /* \"#utility.yul\":3285:3300   */\n      revert\n        /* \"#utility.yul\":3312:3503   */\n    tag_42:\n        /* \"#utility.yul\":3352:3355   */\n      0x00\n        /* \"#utility.yul\":3371:3391   */\n      tag_121\n        /* \"#utility.yul\":3389:3390   */\n      dup3\n        /* \"#utility.yul\":3371:3391   */\n      tag_64\n      jump\t// in\n    tag_121:\n        /* \"#utility.yul\":3366:3391   */\n      swap2\n      pop\n        /* \"#utility.yul\":3405:3425   */\n      tag_122\n        /* \"#utility.yul\":3423:3424   */\n      dup4\n        /* \"#utility.yul\":3405:3425   */\n      tag_64\n      jump\t// in\n    tag_122:\n        /* \"#utility.yul\":3400:3425   */\n      swap3\n      pop\n        /* \"#utility.yul\":3448:3449   */\n      dup3\n        /* \"#utility.yul\":3445:3446   */\n      dup3\n        /* \"#utility.yul\":3441:3450   */\n      add\n        /* \"#utility.yul\":3434:3450   */\n      swap1\n      pop\n        /* \"#utility.yul\":3469:3472   */\n      dup1\n        /* \"#utility.yul\":3466:3467   */\n      dup3\n        /* \"#utility.yul\":3463:3473   */\n      gt\n        /* \"#utility.yul\":3460:3496   */\n      iszero\n      tag_123\n      jumpi\n        /* \"#utility.yul\":3476:3494   */\n      tag_124\n      tag_75\n      jump\t// in\n    tag_124:\n        /* \"#utility.yul\":3460:3496   */\n    tag_123:\n        /* \"#utility.yul\":3312:3503   */\n      swap3\n      swap2\n      pop\n      pop\n      jump\t// out\n        /* \"#utility.yul\":3509:3678   */\n    tag_76:\n        /* \"#utility.yul\":3593:3604   */\n      0x00\n        /* \"#utility.yul\":3627:3633   */\n      dup3\n        /* \"#utility.yul\":3622:3625   */\n      dup3\n        /* \"#utility.yul\":3615:3634   */\n      mstore\n        /* \"#utility.yul\":3667:3671   */\n      0x20\n        /* \"#utility.yul\":3662:3665   */\n      dup3\n        /* \"#utility.yul\":3658:3672   */\n      add\n        /* \"#utility.yul\":3643:3672   */\n      swap1\n      pop\n        /* \"#utility.yul\":3509:3678   */\n      swap3\n      swap2\n      pop\n      pop\n      jump\t// out\n        /* \"#utility.yul\":3684:3854   */\n    tag_77:\n        /* \"#utility.yul\":3824:3846   */\n      0x6e6f7420617661696c61626c6520616d6f756e74000000000000000000000000\n        /* \"#utility.yul\":3820:3821   */\n      0x00\n        /* \"#utility.yul\":3812:3818   */\n      dup3\n        /* \"#utility.yul\":3808:3822   */\n      add\n        /* \"#utility.yul\":3801:3847   */\n      mstore\n        /* \"#utility.yul\":3684:3854   */\n      pop\n      jump\t// out\n        /* \"#utility.yul\":3860:4226   */\n    tag_78:\n        /* \"#utility.yul\":4002:4005   */\n      0x00\n        /* \"#utility.yul\":4023:4090   */\n      tag_128\n        /* \"#utility.yul\":4087:4089   */\n      0x14\n        /* \"#utility.yul\":4082:4085   */\n      dup4\n        /* \"#utility.yul\":4023:4090   */\n      tag_76\n      jump\t// in\n    tag_128:\n        /* \"#utility.yul\":4016:4090   */\n      swap2\n      pop\n        /* \"#utility.yul\":4099:4192   */\n      tag_129\n        /* \"#utility.yul\":4188:4191   */\n      dup3\n        /* \"#utility.yul\":4099:4192   */\n      tag_77\n      jump\t// in\n    tag_129:\n        /* \"#utility.yul\":4217:4219   */\n      0x20\n        /* \"#utility.yul\":4212:4215   */\n      dup3\n        /* \"#utility.yul\":4208:4220   */\n      add\n        /* \"#utility.yul\":4201:4220   */\n      swap1\n      pop\n        /* \"#utility.yul\":3860:4226   */\n      swap2\n      swap1\n      pop\n      jump\t// out\n        /* \"#utility.yul\":4232:4651   */\n    tag_48:\n        /* \"#utility.yul\":4398:4402   */\n      0x00\n        /* \"#utility.yul\":4436:4438   */\n      0x20\n        /* \"#utility.yul\":4425:4434   */\n      dup3\n        /* \"#utility.yul\":4421:4439   */\n      add\n        /* \"#utility.yul\":4413:4439   */\n      swap1\n      pop\n        /* \"#utility.yul\":4485:4494   */\n      dup2\n        /* \"#utility.yul\":4479:4483   */\n      dup2\n        /* \"#utility.yul\":4475:4495   */\n      sub\n        /* \"#utility.yul\":4471:4472   */\n      0x00\n        /* \"#utility.yul\":4460:4469   */\n      dup4\n        /* \"#utility.yul\":4456:4473   */\n      add\n        /* \"#utility.yul\":4449:4496   */\n      mstore\n        /* \"#utility.yul\":4513:4644   */\n      tag_131\n        /* \"#utility.yul\":4639:4643   */\n      dup2\n        /* \"#utility.yul\":4513:4644   */\n      tag_78\n      jump\t// in\n    tag_131:\n        /* \"#utility.yul\":4505:4644   */\n      swap1\n      pop\n        /* \"#utility.yul\":4232:4651   */\n      swap2\n      swap1\n      pop\n      jump\t// out\n        /* \"#utility.yul\":4657:4851   */\n    tag_50:\n        /* \"#utility.yul\":4697:4701   */\n      0x00\n        /* \"#utility.yul\":4717:4737   */\n      tag_133\n        /* \"#utility.yul\":4735:4736   */\n      dup3\n        /* \"#utility.yul\":4717:4737   */\n      tag_64\n      jump\t// in\n    tag_133:\n        /* \"#utility.yul\":4712:4737   */\n      swap2\n      pop\n        /* \"#utility.yul\":4751:4771   */\n      tag_134\n        /* \"#utility.yul\":4769:4770   */\n      dup4\n        /* \"#utility.yul\":4751:4771   */\n      tag_64\n      jump\t// in\n    tag_134:\n        /* \"#utility.yul\":4746:4771   */\n      swap3\n      pop\n        /* \"#utility.yul\":4795:4796   */\n      dup3\n        /* \"#utility.yul\":4792:4793   */\n      dup3\n        /* \"#utility.yul\":4788:4797   */\n      sub\n        /* \"#utility.yul\":4780:4797   */\n      swap1\n      pop\n        /* \"#utility.yul\":4819:4820   */\n      dup2\n        /* \"#utility.yul\":4813:4817   */\n      dup2\n        /* \"#utility.yul\":4810:4821   */\n      gt\n        /* \"#utility.yul\":4807:4844   */\n      iszero\n      tag_135\n      jumpi\n        /* \"#utility.yul\":4824:4842   */\n      tag_136\n      tag_75\n      jump\t// in\n    tag_136:\n        /* \"#utility.yul\":4807:4844   */\n    tag_135:\n        /* \"#utility.yul\":4657:4851   */\n      swap3\n      swap2\n      pop\n      pop\n      jump\t// out\n\n    auxdata: 0xa26469706673582212207d439665a2c714d735840d1c8f2ddb92c37cf2edf127c50f36c7d6cd9caae10d64736f6c63430008110033\n}\n",
				"bytecode": {
					"linkReferences": {},
					"object": "608060405234801561001057600080fd5b50610942806100206000396000f3fe6080604052600436106100555760003560e01c80630ad641f11461005a5780631a39d8ef1461007857806342966c68146100a357806370a08231146100e0578063a9059cbb1461011d578063d81819511461015a575b600080fd5b610062610197565b60405161006f9190610680565b60405180910390f35b34801561008457600080fd5b5061008d610257565b60405161009a91906106b4565b60405180910390f35b3480156100af57600080fd5b506100ca60048036038101906100c59190610700565b610261565b6040516100d79190610680565b60405180910390f35b3480156100ec57600080fd5b506101076004803603810190610102919061078b565b6103b6565b60405161011491906106b4565b60405180910390f35b34801561012957600080fd5b50610144600480360381019061013f91906107b8565b6103fe565b6040516101519190610680565b60405180910390f35b34801561016657600080fd5b50610181600480360381019061017c9190610700565b61058f565b60405161018e9190610680565b60405180910390f35b600080349050806000803373ffffffffffffffffffffffffffffffffffffffff1673ffffffffffffffffffffffffffffffffffffffff16815260200190815260200160002060008282546101eb9190610827565b9250508190555080600160008282546102049190610827565b92505081905550803373ffffffffffffffffffffffffffffffffffffffff167f0f6798a560793a54c3bcfe86a93cde1e73087d944c0ea20544137d412139688560405160405180910390a3600191505090565b6000600154905090565b6000816000803373ffffffffffffffffffffffffffffffffffffffff1673ffffffffffffffffffffffffffffffffffffffff16815260200190815260200160002054116102e3576040517f08c379a00000000000000000000000000000000000000000000000000000000081526004016102da906108b8565b60405180910390fd5b816000803373ffffffffffffffffffffffffffffffffffffffff1673ffffffffffffffffffffffffffffffffffffffff168152602001908152602001600020600082825461033191906108d8565b92505081905550816001600082825461034a91906108d8565b9250508190555081600073ffffffffffffffffffffffffffffffffffffffff163373ffffffffffffffffffffffffffffffffffffffff167fbac40739b0d4ca32fa2d82fc91630465ba3eddd1598da6fca393b26fb63b945360405160405180910390a460019050919050565b60008060008373ffffffffffffffffffffffffffffffffffffffff1673ffffffffffffffffffffffffffffffffffffffff168152602001908152602001600020549050919050565b6000816000803373ffffffffffffffffffffffffffffffffffffffff1673ffffffffffffffffffffffffffffffffffffffff1681526020019081526020016000205411610480576040517f08c379a0000000000000000000000000000000000000000000000000000000008152600401610477906108b8565b60405180910390fd5b816000803373ffffffffffffffffffffffffffffffffffffffff1673ffffffffffffffffffffffffffffffffffffffff16815260200190815260200160002060008282546104ce91906108d8565b92505081905550816000808573ffffffffffffffffffffffffffffffffffffffff1673ffffffffffffffffffffffffffffffffffffffff16815260200190815260200160002060008282546105239190610827565b92505081905550818373ffffffffffffffffffffffffffffffffffffffff163373ffffffffffffffffffffffffffffffffffffffff167fddf252ad1be2c89b69c2b068fc378daa952ba7f163c4a11628f55a4df523b3ef60405160405180910390a46001905092915050565b60006b0100000000000000000000008211156105aa57600080fd5b816000803373ffffffffffffffffffffffffffffffffffffffff1673ffffffffffffffffffffffffffffffffffffffff16815260200190815260200160002060008282546105f89190610827565b9250508190555081600160008282546106119190610827565b92505081905550813373ffffffffffffffffffffffffffffffffffffffff167f0f6798a560793a54c3bcfe86a93cde1e73087d944c0ea20544137d412139688560405160405180910390a360019050919050565b60008115159050919050565b61067a81610665565b82525050565b60006020820190506106956000830184610671565b92915050565b6000819050919050565b6106ae8161069b565b82525050565b60006020820190506106c960008301846106a5565b92915050565b600080fd5b6106dd8161069b565b81146106e857600080fd5b50565b6000813590506106fa816106d4565b92915050565b600060208284031215610716576107156106cf565b5b6000610724848285016106eb565b91505092915050565b600073ffffffffffffffffffffffffffffffffffffffff82169050919050565b60006107588261072d565b9050919050565b6107688161074d565b811461077357600080fd5b50565b6000813590506107858161075f565b92915050565b6000602082840312156107a1576107a06106cf565b5b60006107af84828501610776565b91505092915050565b600080604083850312156107cf576107ce6106cf565b5b60006107dd85828601610776565b92505060206107ee858286016106eb565b9150509250929050565b7f4e487b7100000000000000000000000000000000000000000000000000000000600052601160045260246000fd5b60006108328261069b565b915061083d8361069b565b9250828201905080821115610855576108546107f8565b5b92915050565b600082825260208201905092915050565b7f6e6f7420617661696c61626c6520616d6f756e74000000000000000000000000600082015250565b60006108a260148361085b565b91506108ad8261086c565b602082019050919050565b600060208201905081810360008301526108d181610895565b9050919050565b60006108e38261069b565b91506108ee8361069b565b9250828203905081811115610906576109056107f8565b5b9291505056fea26469706673582212207d439665a2c714d735840d1c8f2ddb92c37cf2edf127c50f36c7d6cd9caae10d64736f6c63430008110033",
					"opcodes": "PUSH1 0x80 PUSH1 0x40 MSTORE CALLVALUE DUP1 ISZERO PUSH2 0x10 JUMPI PUSH1 0x0 DUP1 REVERT JUMPDEST POP PUSH2 0x942 DUP1 PUSH2 0x20 PUSH1 0x0 CODECOPY PUSH1 0x0 RETURN INVALID PUSH1 0x80 PUSH1 0x40 MSTORE PUSH1 0x4 CALLDATASIZE LT PUSH2 0x55 JUMPI PUSH1 0x0 CALLDATALOAD PUSH1 0xE0 SHR DUP1 PUSH4 0xAD641F1 EQ PUSH2 0x5A JUMPI DUP1 PUSH4 0x1A39D8EF EQ PUSH2 0x78 JUMPI DUP1 PUSH4 0x42966C68 EQ PUSH2 0xA3 JUMPI DUP1 PUSH4 0x70A08231 EQ PUSH2 0xE0 JUMPI DUP1 PUSH4 0xA9059CBB EQ PUSH2 0x11D JUMPI DUP1 PUSH4 0xD8181951 EQ PUSH2 0x15A JUMPI JUMPDEST PUSH1 0x0 DUP1 REVERT JUMPDEST PUSH2 0x62 PUSH2 0x197 JUMP JUMPDEST PUSH1 0x40 MLOAD PUSH2 0x6F SWAP2 SWAP1 PUSH2 0x680 JUMP JUMPDEST PUSH1 0x40 MLOAD DUP1 SWAP2 SUB SWAP1 RETURN JUMPDEST CALLVALUE DUP1 ISZERO PUSH2 0x84 JUMPI PUSH1 0x0 DUP1 REVERT JUMPDEST POP PUSH2 0x8D PUSH2 0x257 JUMP JUMPDEST PUSH1 0x40 MLOAD PUSH2 0x9A SWAP2 SWAP1 PUSH2 0x6B4 JUMP JUMPDEST PUSH1 0x40 MLOAD DUP1 SWAP2 SUB SWAP1 RETURN JUMPDEST CALLVALUE DUP1 ISZERO PUSH2 0xAF JUMPI PUSH1 0x0 DUP1 REVERT JUMPDEST POP PUSH2 0xCA PUSH1 0x4 DUP1 CALLDATASIZE SUB DUP2 ADD SWAP1 PUSH2 0xC5 SWAP2 SWAP1 PUSH2 0x700 JUMP JUMPDEST PUSH2 0x261 JUMP JUMPDEST PUSH1 0x40 MLOAD PUSH2 0xD7 SWAP2 SWAP1 PUSH2 0x680 JUMP JUMPDEST PUSH1 0x40 MLOAD DUP1 SWAP2 SUB SWAP1 RETURN JUMPDEST CALLVALUE DUP1 ISZERO PUSH2 0xEC JUMPI PUSH1 0x0 DUP1 REVERT JUMPDEST POP PUSH2 0x107 PUSH1 0x4 DUP1 CALLDATASIZE SUB DUP2 ADD SWAP1 PUSH2 0x102 SWAP2 SWAP1 PUSH2 0x78B JUMP JUMPDEST PUSH2 0x3B6 JUMP JUMPDEST PUSH1 0x40 MLOAD PUSH2 0x114 SWAP2 SWAP1 PUSH2 0x6B4 JUMP JUMPDEST PUSH1 0x40 MLOAD DUP1 SWAP2 SUB SWAP1 RETURN JUMPDEST CALLVALUE DUP1 ISZERO PUSH2 0x129 JUMPI PUSH1 0x0 DUP1 REVERT JUMPDEST POP PUSH2 0x144 PUSH1 0x4 DUP1 CALLDATASIZE SUB DUP2 ADD SWAP1 PUSH2 0x13F SWAP2 SWAP1 PUSH2 0x7B8 JUMP JUMPDEST PUSH2 0x3FE JUMP JUMPDEST PUSH1 0x40 MLOAD PUSH2 0x151 SWAP2 SWAP1 PUSH2 0x680 JUMP JUMPDEST PUSH1 0x40 MLOAD DUP1 SWAP2 SUB SWAP1 RETURN JUMPDEST CALLVALUE DUP1 ISZERO PUSH2 0x166 JUMPI PUSH1 0x0 DUP1 REVERT JUMPDEST POP PUSH2 0x181 PUSH1 0x4 DUP1 CALLDATASIZE SUB DUP2 ADD SWAP1 PUSH2 0x17C SWAP2 SWAP1 PUSH2 0x700 JUMP JUMPDEST PUSH2 0x58F JUMP JUMPDEST PUSH1 0x40 MLOAD PUSH2 0x18E SWAP2 SWAP1 PUSH2 0x680 JUMP JUMPDEST PUSH1 0x40 MLOAD DUP1 SWAP2 SUB SWAP1 RETURN JUMPDEST PUSH1 0x0 DUP1 CALLVALUE SWAP1 POP DUP1 PUSH1 0x0 DUP1 CALLER PUSH20 0xFFFFFFFFFFFFFFFFFFFFFFFFFFFFFFFFFFFFFFFF AND PUSH20 0xFFFFFFFFFFFFFFFFFFFFFFFFFFFFFFFFFFFFFFFF AND DUP2 MSTORE PUSH1 0x20 ADD SWAP1 DUP2 MSTORE PUSH1 0x20 ADD PUSH1 0x0 KECCAK256 PUSH1 0x0 DUP3 DUP3 SLOAD PUSH2 0x1EB SWAP2 SWAP1 PUSH2 0x827 JUMP JUMPDEST SWAP3 POP POP DUP2 SWAP1 SSTORE POP DUP1 PUSH1 0x1 PUSH1 0x0 DUP3 DUP3 SLOAD PUSH2 0x204 SWAP2 SWAP1 PUSH2 0x827 JUMP JUMPDEST SWAP3 POP POP DUP2 SWAP1 SSTORE POP DUP1 CALLER PUSH20 0xFFFFFFFFFFFFFFFFFFFFFFFFFFFFFFFFFFFFFFFF AND PUSH32 0xF6798A560793A54C3BCFE86A93CDE1E73087D944C0EA20544137D4121396885 PUSH1 0x40 MLOAD PUSH1 0x40 MLOAD DUP1 SWAP2 SUB SWAP1 LOG3 PUSH1 0x1 SWAP2 POP POP SWAP1 JUMP JUMPDEST PUSH1 0x0 PUSH1 0x1 SLOAD SWAP1 POP SWAP1 JUMP JUMPDEST PUSH1 0x0 DUP2 PUSH1 0x0 DUP1 CALLER PUSH20 0xFFFFFFFFFFFFFFFFFFFFFFFFFFFFFFFFFFFFFFFF AND PUSH20 0xFFFFFFFFFFFFFFFFFFFFFFFFFFFFFFFFFFFFFFFF AND DUP2 MSTORE PUSH1 0x20 ADD SWAP1 DUP2 MSTORE PUSH1 0x20 ADD PUSH1 0x0 KECCAK256 SLOAD GT PUSH2 0x2E3 JUMPI PUSH1 0x40 MLOAD PUSH32 0x8C379A000000000000000000000000000000000000000000000000000000000 DUP2 MSTORE PUSH1 0x4 ADD PUSH2 0x2DA SWAP1 PUSH2 0x8B8 JUMP JUMPDEST PUSH1 0x40 MLOAD DUP1 SWAP2 SUB SWAP1 REVERT JUMPDEST DUP2 PUSH1 0x0 DUP1 CALLER PUSH20 0xFFFFFFFFFFFFFFFFFFFFFFFFFFFFFFFFFFFFFFFF AND PUSH20 0xFFFFFFFFFFFFFFFFFFFFFFFFFFFFFFFFFFFFFFFF AND DUP2 MSTORE PUSH1 0x20 ADD SWAP1 DUP2 MSTORE PUSH1 0x20 ADD PUSH1 0x0 KECCAK256 PUSH1 0x0 DUP3 DUP3 SLOAD PUSH2 0x331 SWAP2 SWAP1 PUSH2 0x8D8 JUMP JUMPDEST SWAP3 POP POP DUP2 SWAP1 SSTORE POP DUP2 PUSH1 0x1 PUSH1 0x0 DUP3 DUP3 SLOAD PUSH2 0x34A SWAP2 SWAP1 PUSH2 0x8D8 JUMP JUMPDEST SWAP3 POP POP DUP2 SWAP1 SSTORE POP DUP2 PUSH1 0x0 PUSH20 0xFFFFFFFFFFFFFFFFFFFFFFFFFFFFFFFFFFFFFFFF AND CALLER PUSH20 0xFFFFFFFFFFFFFFFFFFFFFFFFFFFFFFFFFFFFFFFF AND PUSH32 0xBAC40739B0D4CA32FA2D82FC91630465BA3EDDD1598DA6FCA393B26FB63B9453 PUSH1 0x40 MLOAD PUSH1 0x40 MLOAD DUP1 SWAP2 SUB SWAP1 LOG4 PUSH1 0x1 SWAP1 POP SWAP2 SWAP1 POP JUMP JUMPDEST PUSH1 0x0 DUP1 PUSH1 0x0 DUP4 PUSH20 0xFFFFFFFFFFFFFFFFFFFFFFFFFFFFFFFFFFFFFFFF AND PUSH20 0xFFFFFFFFFFFFFFFFFFFFFFFFFFFFFFFFFFFFFFFF AND DUP2 MSTORE PUSH1 0x20 ADD SWAP1 DUP2 MSTORE PUSH1 0x20 ADD PUSH1 0x0 KECCAK256 SLOAD SWAP1 POP SWAP2 SWAP1 POP JUMP JUMPDEST PUSH1 0x0 DUP2 PUSH1 0x0 DUP1 CALLER PUSH20 0xFFFFFFFFFFFFFFFFFFFFFFFFFFFFFFFFFFFFFFFF AND PUSH20 0xFFFFFFFFFFFFFFFFFFFFFFFFFFFFFFFFFFFFFFFF AND DUP2 MSTORE PUSH1 0x20 ADD SWAP1 DUP2 MSTORE PUSH1 0x20 ADD PUSH1 0x0 KECCAK256 SLOAD GT PUSH2 0x480 JUMPI PUSH1 0x40 MLOAD PUSH32 0x8C379A000000000000000000000000000000000000000000000000000000000 DUP2 MSTORE PUSH1 0x4 ADD PUSH2 0x477 SWAP1 PUSH2 0x8B8 JUMP JUMPDEST PUSH1 0x40 MLOAD DUP1 SWAP2 SUB SWAP1 REVERT JUMPDEST DUP2 PUSH1 0x0 DUP1 CALLER PUSH20 0xFFFFFFFFFFFFFFFFFFFFFFFFFFFFFFFFFFFFFFFF AND PUSH20 0xFFFFFFFFFFFFFFFFFFFFFFFFFFFFFFFFFFFFFFFF AND DUP2 MSTORE PUSH1 0x20 ADD SWAP1 DUP2 MSTORE PUSH1 0x20 ADD PUSH1 0x0 KECCAK256 PUSH1 0x0 DUP3 DUP3 SLOAD PUSH2 0x4CE SWAP2 SWAP1 PUSH2 0x8D8 JUMP JUMPDEST SWAP3 POP POP DUP2 SWAP1 SSTORE POP DUP2 PUSH1 0x0 DUP1 DUP6 PUSH20 0xFFFFFFFFFFFFFFFFFFFFFFFFFFFFFFFFFFFFFFFF AND PUSH20 0xFFFFFFFFFFFFFFFFFFFFFFFFFFFFFFFFFFFFFFFF AND DUP2 MSTORE PUSH1 0x20 ADD SWAP1 DUP2 MSTORE PUSH1 0x20 ADD PUSH1 0x0 KECCAK256 PUSH1 0x0 DUP3 DUP3 SLOAD PUSH2 0x523 SWAP2 SWAP1 PUSH2 0x827 JUMP JUMPDEST SWAP3 POP POP DUP2 SWAP1 SSTORE POP DUP2 DUP4 PUSH20 0xFFFFFFFFFFFFFFFFFFFFFFFFFFFFFFFFFFFFFFFF AND CALLER PUSH20 0xFFFFFFFFFFFFFFFFFFFFFFFFFFFFFFFFFFFFFFFF AND PUSH32 0xDDF252AD1BE2C89B69C2B068FC378DAA952BA7F163C4A11628F55A4DF523B3EF PUSH1 0x40 MLOAD PUSH1 0x40 MLOAD DUP1 SWAP2 SUB SWAP1 LOG4 PUSH1 0x1 SWAP1 POP SWAP3 SWAP2 POP POP JUMP JUMPDEST PUSH1 0x0 PUSH12 0x10000000000000000000000 DUP3 GT ISZERO PUSH2 0x5AA JUMPI PUSH1 0x0 DUP1 REVERT JUMPDEST DUP2 PUSH1 0x0 DUP1 CALLER PUSH20 0xFFFFFFFFFFFFFFFFFFFFFFFFFFFFFFFFFFFFFFFF AND PUSH20 0xFFFFFFFFFFFFFFFFFFFFFFFFFFFFFFFFFFFFFFFF AND DUP2 MSTORE PUSH1 0x20 ADD SWAP1 DUP2 MSTORE PUSH1 0x20 ADD PUSH1 0x0 KECCAK256 PUSH1 0x0 DUP3 DUP3 SLOAD PUSH2 0x5F8 SWAP2 SWAP1 PUSH2 0x827 JUMP JUMPDEST SWAP3 POP POP DUP2 SWAP1 SSTORE POP DUP2 PUSH1 0x1 PUSH1 0x0 DUP3 DUP3 SLOAD PUSH2 0x611 SWAP2 SWAP1 PUSH2 0x827 JUMP JUMPDEST SWAP3 POP POP DUP2 SWAP1 SSTORE POP DUP2 CALLER PUSH20 0xFFFFFFFFFFFFFFFFFFFFFFFFFFFFFFFFFFFFFFFF AND PUSH32 0xF6798A560793A54C3BCFE86A93CDE1E73087D944C0EA20544137D4121396885 PUSH1 0x40 MLOAD PUSH1 0x40 MLOAD DUP1 SWAP2 SUB SWAP1 LOG3 PUSH1 0x1 SWAP1 POP SWAP2 SWAP1 POP JUMP JUMPDEST PUSH1 0x0 DUP2 ISZERO ISZERO SWAP1 POP SWAP2 SWAP1 POP JUMP JUMPDEST PUSH2 0x67A DUP2 PUSH2 0x665 JUMP JUMPDEST DUP3 MSTORE POP POP JUMP JUMPDEST PUSH1 0x0 PUSH1 0x20 DUP3 ADD SWAP1 POP PUSH2 0x695 PUSH1 0x0 DUP4 ADD DUP5 PUSH2 0x671 JUMP JUMPDEST SWAP3 SWAP2 POP POP JUMP JUMPDEST PUSH1 0x0 DUP2 SWAP1 POP SWAP2 SWAP1 POP JUMP JUMPDEST PUSH2 0x6AE DUP2 PUSH2 0x69B JUMP JUMPDEST DUP3 MSTORE POP POP JUMP JUMPDEST PUSH1 0x0 PUSH1 0x20 DUP3 ADD SWAP1 POP PUSH2 0x6C9 PUSH1 0x0 DUP4 ADD DUP5 PUSH2 0x6A5 JUMP JUMPDEST SWAP3 SWAP2 POP POP JUMP JUMPDEST PUSH1 0x0 DUP1 REVERT JUMPDEST PUSH2 0x6DD DUP2 PUSH2 0x69B JUMP JUMPDEST DUP2 EQ PUSH2 0x6E8 JUMPI PUSH1 0x0 DUP1 REVERT JUMPDEST POP JUMP JUMPDEST PUSH1 0x0 DUP2 CALLDATALOAD SWAP1 POP PUSH2 0x6FA DUP2 PUSH2 0x6D4 JUMP JUMPDEST SWAP3 SWAP2 POP POP JUMP JUMPDEST PUSH1 0x0 PUSH1 0x20 DUP3 DUP5 SUB SLT ISZERO PUSH2 0x716 JUMPI PUSH2 0x715 PUSH2 0x6CF JUMP JUMPDEST JUMPDEST PUSH1 0x0 PUSH2 0x724 DUP5 DUP3 DUP6 ADD PUSH2 0x6EB JUMP JUMPDEST SWAP2 POP POP SWAP3 SWAP2 POP POP JUMP JUMPDEST PUSH1 0x0 PUSH20 0xFFFFFFFFFFFFFFFFFFFFFFFFFFFFFFFFFFFFFFFF DUP3 AND SWAP1 POP SWAP2 SWAP1 POP JUMP JUMPDEST PUSH1 0x0 PUSH2 0x758 DUP3 PUSH2 0x72D JUMP JUMPDEST SWAP1 POP SWAP2 SWAP1 POP JUMP JUMPDEST PUSH2 0x768 DUP2 PUSH2 0x74D JUMP JUMPDEST DUP2 EQ PUSH2 0x773 JUMPI PUSH1 0x0 DUP1 REVERT JUMPDEST POP JUMP JUMPDEST PUSH1 0x0 DUP2 CALLDATALOAD SWAP1 POP PUSH2 0x785 DUP2 PUSH2 0x75F JUMP JUMPDEST SWAP3 SWAP2 POP POP JUMP JUMPDEST PUSH1 0x0 PUSH1 0x20 DUP3 DUP5 SUB SLT ISZERO PUSH2 0x7A1 JUMPI PUSH2 0x7A0 PUSH2 0x6CF JUMP JUMPDEST JUMPDEST PUSH1 0x0 PUSH2 0x7AF DUP5 DUP3 DUP6 ADD PUSH2 0x776 JUMP JUMPDEST SWAP2 POP POP SWAP3 SWAP2 POP POP JUMP JUMPDEST PUSH1 0x0 DUP1 PUSH1 0x40 DUP4 DUP6 SUB SLT ISZERO PUSH2 0x7CF JUMPI PUSH2 0x7CE PUSH2 0x6CF JUMP JUMPDEST JUMPDEST PUSH1 0x0 PUSH2 0x7DD DUP6 DUP3 DUP7 ADD PUSH2 0x776 JUMP JUMPDEST SWAP3 POP POP PUSH1 0x20 PUSH2 0x7EE DUP6 DUP3 DUP7 ADD PUSH2 0x6EB JUMP JUMPDEST SWAP2 POP POP SWAP3 POP SWAP3 SWAP1 POP JUMP JUMPDEST PUSH32 0x4E487B7100000000000000000000000000000000000000000000000000000000 PUSH1 0x0 MSTORE PUSH1 0x11 PUSH1 0x4 MSTORE PUSH1 0x24 PUSH1 0x0 REVERT JUMPDEST PUSH1 0x0 PUSH2 0x832 DUP3 PUSH2 0x69B JUMP JUMPDEST SWAP2 POP PUSH2 0x83D DUP4 PUSH2 0x69B JUMP JUMPDEST SWAP3 POP DUP3 DUP3 ADD SWAP1 POP DUP1 DUP3 GT ISZERO PUSH2 0x855 JUMPI PUSH2 0x854 PUSH2 0x7F8 JUMP JUMPDEST JUMPDEST SWAP3 SWAP2 POP POP JUMP JUMPDEST PUSH1 0x0 DUP3 DUP3 MSTORE PUSH1 0x20 DUP3 ADD SWAP1 POP SWAP3 SWAP2 POP POP JUMP JUMPDEST PUSH32 0x6E6F7420617661696C61626C6520616D6F756E74000000000000000000000000 PUSH1 0x0 DUP3 ADD MSTORE POP JUMP JUMPDEST PUSH1 0x0 PUSH2 0x8A2 PUSH1 0x14 DUP4 PUSH2 0x85B JUMP JUMPDEST SWAP2 POP PUSH2 0x8AD DUP3 PUSH2 0x86C JUMP JUMPDEST PUSH1 0x20 DUP3 ADD SWAP1 POP SWAP2 SWAP1 POP JUMP JUMPDEST PUSH1 0x0 PUSH1 0x20 DUP3 ADD SWAP1 POP DUP2 DUP2 SUB PUSH1 0x0 DUP4 ADD MSTORE PUSH2 0x8D1 DUP2 PUSH2 0x895 JUMP JUMPDEST SWAP1 POP SWAP2 SWAP1 POP JUMP JUMPDEST PUSH1 0x0 PUSH2 0x8E3 DUP3 PUSH2 0x69B JUMP JUMPDEST SWAP2 POP PUSH2 0x8EE DUP4 PUSH2 0x69B JUMP JUMPDEST SWAP3 POP DUP3 DUP3 SUB SWAP1 POP DUP2 DUP2 GT ISZERO PUSH2 0x906 JUMPI PUSH2 0x905 PUSH2 0x7F8 JUMP JUMPDEST JUMPDEST SWAP3 SWAP2 POP POP JUMP INVALID LOG2 PUSH5 0x6970667358 0x22 SLT KECCAK256 PUSH30 0x439665A2C714D735840D1C8F2DDB92C37CF2EDF127C50F36C7D6CD9CAAE1 0xD PUSH5 0x736F6C6343 STOP ADDMOD GT STOP CALLER "
				},
				"gasEstimates": {
					"creation": {
						"codeDepositCost": "474000",
						"executionCost": "511",
						"totalCost": "474511"
					},
					"external": {
						"balanceOf(address)": "2885",
						"burn(uint256)": "infinite",
						"faucetMint(uint256)": "infinite",
						"mintWithEth()": "infinite",
						"totalAmount()": "2437",
						"transfer(address,uint256)": "infinite"
					}
				},
				"methodIdentifiers": {
					"balanceOf(address)": "70a08231",
					"burn(uint256)": "42966c68",
					"faucetMint(uint256)": "d8181951",
					"mintWithEth()": "0ad641f1",
					"totalAmount()": "1a39d8ef",
					"transfer(address,uint256)": "a9059cbb"
				}
			},
			"storageLayout": {
				"storage": [
					{
						"astId": 27,
						"contract": "testTransition.sol:TestTransition",
						"label": "_balances",
						"offset": 0,
						"slot": "0",
						"type": "t_mapping(t_address,t_uint256)"
					},
					{
						"astId": 29,
						"contract": "testTransition.sol:TestTransition",
						"label": "_totalAmount",
						"offset": 0,
						"slot": "1",
						"type": "t_uint256"
					}
				],
				"types": {
					"t_address": {
						"encoding": "inplace",
						"label": "address",
						"numberOfBytes": "20"
					},
					"t_mapping(t_address,t_uint256)": {
						"encoding": "mapping",
						"key": "t_address",
						"label": "mapping(address => uint256)",
						"numberOfBytes": "32",
						"value": "t_uint256"
					},
					"t_uint256": {
						"encoding": "inplace",
						"label": "uint256",
						"numberOfBytes": "32"
					}
				}
			},
			"userdoc": {
				"kind": "user",
				"methods": {},
				"version": 1
			}
		}
	}
}