{
	"nftExchanger.sol": {
		"NftExchanger": {
			"abi": [
				{
					"anonymous": false,
					"inputs": [
						{
							"indexed": false,
							"internalType": "address",
							"name": "CA",
							"type": "address"
						},
						{
							"indexed": false,
							"internalType": "uint256",
							"name": "tokenId",
							"type": "uint256"
						},
						{
							"indexed": false,
							"internalType": "uint256",
							"name": "price",
							"type": "uint256"
						},
						{
							"indexed": true,
							"internalType": "address",
							"name": "applyer",
							"type": "address"
						}
					],
					"name": "ApplySale",
					"type": "event"
				},
				{
					"anonymous": false,
					"inputs": [
						{
							"indexed": true,
							"internalType": "address",
							"name": "CA",
							"type": "address"
						}
					],
					"name": "CheckId",
					"type": "event"
				},
				{
					"anonymous": false,
					"inputs": [
						{
							"indexed": false,
							"internalType": "address",
							"name": "CA",
							"type": "address"
						},
						{
							"indexed": false,
							"internalType": "string",
							"name": "uri",
							"type": "string"
						},
						{
							"indexed": true,
							"internalType": "address",
							"name": "minter",
							"type": "address"
						}
					],
					"name": "Minting",
					"type": "event"
				},
				{
					"anonymous": false,
					"inputs": [
						{
							"indexed": false,
							"internalType": "address",
							"name": "CA",
							"type": "address"
						},
						{
							"indexed": false,
							"internalType": "uint256",
							"name": "tokenId",
							"type": "uint256"
						},
						{
							"indexed": false,
							"internalType": "uint256",
							"name": "price",
							"type": "uint256"
						},
						{
							"indexed": true,
							"internalType": "address",
							"name": "buyer",
							"type": "address"
						},
						{
							"indexed": true,
							"internalType": "address",
							"name": "seller",
							"type": "address"
						}
					],
					"name": "Sale",
					"type": "event"
				},
				{
					"anonymous": false,
					"inputs": [
						{
							"indexed": false,
							"internalType": "address",
							"name": "CA",
							"type": "address"
						},
						{
							"indexed": false,
							"internalType": "uint256",
							"name": "tokenId",
							"type": "uint256"
						},
						{
							"indexed": false,
							"internalType": "uint256",
							"name": "price",
							"type": "uint256"
						},
						{
							"indexed": true,
							"internalType": "address",
							"name": "from",
							"type": "address"
						},
						{
							"indexed": true,
							"internalType": "address",
							"name": "to",
							"type": "address"
						}
					],
					"name": "TransferFrom",
					"type": "event"
				},
				{
					"inputs": [
						{
							"internalType": "string",
							"name": "nftName",
							"type": "string"
						},
						{
							"internalType": "address",
							"name": "CA",
							"type": "address"
						}
					],
					"name": "addNftList",
					"outputs": [],
					"stateMutability": "nonpayable",
					"type": "function"
				},
				{
					"inputs": [
						{
							"internalType": "string",
							"name": "nftName",
							"type": "string"
						},
						{
							"internalType": "uint256",
							"name": "tokenId",
							"type": "uint256"
						},
						{
							"internalType": "uint256",
							"name": "price",
							"type": "uint256"
						}
					],
					"name": "applySale",
					"outputs": [],
					"stateMutability": "nonpayable",
					"type": "function"
				},
				{
					"inputs": [
						{
							"internalType": "string",
							"name": "nftName",
							"type": "string"
						},
						{
							"internalType": "uint256",
							"name": "tokenId",
							"type": "uint256"
						}
					],
					"name": "buySale",
					"outputs": [],
					"stateMutability": "payable",
					"type": "function"
				},
				{
					"inputs": [
						{
							"internalType": "string",
							"name": "nftName",
							"type": "string"
						}
					],
					"name": "getNftList",
					"outputs": [
						{
							"internalType": "address",
							"name": "",
							"type": "address"
						}
					],
					"stateMutability": "view",
					"type": "function"
				},
				{
					"inputs": [
						{
							"internalType": "string",
							"name": "nftName",
							"type": "string"
						},
						{
							"internalType": "uint256",
							"name": "tokenId",
							"type": "uint256"
						}
					],
					"name": "getSales",
					"outputs": [
						{
							"internalType": "address",
							"name": "",
							"type": "address"
						},
						{
							"internalType": "uint256",
							"name": "",
							"type": "uint256"
						},
						{
							"internalType": "uint256",
							"name": "",
							"type": "uint256"
						}
					],
					"stateMutability": "view",
					"type": "function"
				},
				{
					"inputs": [
						{
							"internalType": "string",
							"name": "nftName",
							"type": "string"
						},
						{
							"internalType": "address",
							"name": "from",
							"type": "address"
						},
						{
							"internalType": "address",
							"name": "to",
							"type": "address"
						},
						{
							"internalType": "uint256",
							"name": "tokenId",
							"type": "uint256"
						}
					],
					"name": "makeTransfer",
					"outputs": [],
					"stateMutability": "nonpayable",
					"type": "function"
				},
				{
					"inputs": [
						{
							"internalType": "string",
							"name": "nftKey",
							"type": "string"
						},
						{
							"internalType": "string",
							"name": "uri",
							"type": "string"
						}
					],
					"name": "mint",
					"outputs": [
						{
							"internalType": "bool",
							"name": "",
							"type": "bool"
						}
					],
					"stateMutability": "payable",
					"type": "function"
				},
				{
					"inputs": [
						{
							"internalType": "string",
							"name": "",
							"type": "string"
						}
					],
					"name": "nftList",
					"outputs": [
						{
							"internalType": "address",
							"name": "",
							"type": "address"
						}
					],
					"stateMutability": "view",
					"type": "function"
				}
			],
			"devdoc": {
				"kind": "dev",
				"methods": {},
				"version": 1
			},
			"evm": {
				"assembly": "    /* \"nftExchanger.sol\":121:3290  contract NftExchanger {... */\n  mstore(0x40, 0x80)\n  callvalue\n  dup1\n  iszero\n  tag_1\n  jumpi\n  0x00\n  dup1\n  revert\ntag_1:\n  pop\n  dataSize(sub_0)\n  dup1\n  dataOffset(sub_0)\n  0x00\n  codecopy\n  0x00\n  return\nstop\n\nsub_0: assembly {\n        /* \"nftExchanger.sol\":121:3290  contract NftExchanger {... */\n      mstore(0x40, 0x80)\n      jumpi(tag_1, lt(calldatasize, 0x04))\n      shr(0xe0, calldataload(0x00))\n      dup1\n      0x6f45c033\n      gt\n      tag_10\n      jumpi\n      dup1\n      0x6f45c033\n      eq\n      tag_6\n      jumpi\n      dup1\n      0x7cb95147\n      eq\n      tag_7\n      jumpi\n      dup1\n      0x8aa0fdad\n      eq\n      tag_8\n      jumpi\n      dup1\n      0xd72df326\n      eq\n      tag_9\n      jumpi\n      jump(tag_1)\n    tag_10:\n      dup1\n      0x0f554ee1\n      eq\n      tag_2\n      jumpi\n      dup1\n      0x189ac995\n      eq\n      tag_3\n      jumpi\n      dup1\n      0x3c6a15a7\n      eq\n      tag_4\n      jumpi\n      dup1\n      0x62a638b9\n      eq\n      tag_5\n      jumpi\n    tag_1:\n      0x00\n      dup1\n      revert\n        /* \"nftExchanger.sol\":1848:2292  function applySale(... */\n    tag_2:\n      callvalue\n      dup1\n      iszero\n      tag_11\n      jumpi\n      0x00\n      dup1\n      revert\n    tag_11:\n      pop\n      tag_12\n      0x04\n      dup1\n      calldatasize\n      sub\n      dup2\n      add\n      swap1\n      tag_13\n      swap2\n      swap1\n      tag_14\n      jump\t// in\n    tag_13:\n      tag_15\n      jump\t// in\n    tag_12:\n      stop\n        /* \"nftExchanger.sol\":947:1161  function makeTransfer(... */\n    tag_3:\n      callvalue\n      dup1\n      iszero\n      tag_16\n      jumpi\n      0x00\n      dup1\n      revert\n    tag_16:\n      pop\n      tag_17\n      0x04\n      dup1\n      calldatasize\n      sub\n      dup2\n      add\n      swap1\n      tag_18\n      swap2\n      swap1\n      tag_19\n      jump\t// in\n    tag_18:\n      tag_20\n      jump\t// in\n    tag_17:\n      stop\n        /* \"nftExchanger.sol\":1169:1271  function addNftList(string memory nftName, address CA) public {... */\n    tag_4:\n      callvalue\n      dup1\n      iszero\n      tag_21\n      jumpi\n      0x00\n      dup1\n      revert\n    tag_21:\n      pop\n      tag_22\n      0x04\n      dup1\n      calldatasize\n      sub\n      dup2\n      add\n      swap1\n      tag_23\n      swap2\n      swap1\n      tag_24\n      jump\t// in\n    tag_23:\n      tag_25\n      jump\t// in\n    tag_22:\n      stop\n        /* \"nftExchanger.sol\":2737:3287  function buySale(string memory nftName, uint256 tokenId) public payable {... */\n    tag_5:\n      tag_26\n      0x04\n      dup1\n      calldatasize\n      sub\n      dup2\n      add\n      swap1\n      tag_27\n      swap2\n      swap1\n      tag_28\n      jump\t// in\n    tag_27:\n      tag_29\n      jump\t// in\n    tag_26:\n      stop\n        /* \"nftExchanger.sol\":825:866  mapping(string => address) public nftList */\n    tag_6:\n      callvalue\n      dup1\n      iszero\n      tag_30\n      jumpi\n      0x00\n      dup1\n      revert\n    tag_30:\n      pop\n      tag_31\n      0x04\n      dup1\n      calldatasize\n      sub\n      dup2\n      add\n      swap1\n      tag_32\n      swap2\n      swap1\n      tag_33\n      jump\t// in\n    tag_32:\n      tag_34\n      jump\t// in\n    tag_31:\n      mload(0x40)\n      tag_35\n      swap2\n      swap1\n      tag_36\n      jump\t// in\n    tag_35:\n      mload(0x40)\n      dup1\n      swap2\n      sub\n      swap1\n      return\n        /* \"nftExchanger.sol\":1279:1394  function getNftList(string memory nftName) public view returns (address) {... */\n    tag_7:\n      callvalue\n      dup1\n      iszero\n      tag_37\n      jumpi\n      0x00\n      dup1\n      revert\n    tag_37:\n      pop\n      tag_38\n      0x04\n      dup1\n      calldatasize\n      sub\n      dup2\n      add\n      swap1\n      tag_39\n      swap2\n      swap1\n      tag_33\n      jump\t// in\n    tag_39:\n      tag_40\n      jump\t// in\n    tag_38:\n      mload(0x40)\n      tag_41\n      swap2\n      swap1\n      tag_36\n      jump\t// in\n    tag_41:\n      mload(0x40)\n      dup1\n      swap2\n      sub\n      swap1\n      return\n        /* \"nftExchanger.sol\":1402:1840  function mint(string memory nftKey, string memory uri)... */\n    tag_8:\n      tag_42\n      0x04\n      dup1\n      calldatasize\n      sub\n      dup2\n      add\n      swap1\n      tag_43\n      swap2\n      swap1\n      tag_44\n      jump\t// in\n    tag_43:\n      tag_45\n      jump\t// in\n    tag_42:\n      mload(0x40)\n      tag_46\n      swap2\n      swap1\n      tag_47\n      jump\t// in\n    tag_46:\n      mload(0x40)\n      dup1\n      swap2\n      sub\n      swap1\n      return\n        /* \"nftExchanger.sol\":2300:2729  function getSales(string memory nftName, uint256 tokenId)... */\n    tag_9:\n      callvalue\n      dup1\n      iszero\n      tag_48\n      jumpi\n      0x00\n      dup1\n      revert\n    tag_48:\n      pop\n      tag_49\n      0x04\n      dup1\n      calldatasize\n      sub\n      dup2\n      add\n      swap1\n      tag_50\n      swap2\n      swap1\n      tag_28\n      jump\t// in\n    tag_50:\n      tag_51\n      jump\t// in\n    tag_49:\n      mload(0x40)\n      tag_52\n      swap4\n      swap3\n      swap2\n      swap1\n      tag_53\n      jump\t// in\n    tag_52:\n      mload(0x40)\n      dup1\n      swap2\n      sub\n      swap1\n      return\n        /* \"nftExchanger.sol\":1848:2292  function applySale(... */\n    tag_15:\n        /* \"nftExchanger.sol\":2042:2052  msg.sender */\n      caller\n        /* \"nftExchanger.sol\":1996:2052  IERC721(nftList[nftName]).ownerOf(tokenId) == msg.sender */\n      0xffffffffffffffffffffffffffffffffffffffff\n      and\n        /* \"nftExchanger.sol\":2004:2011  nftList */\n      0x00\n        /* \"nftExchanger.sol\":2012:2019  nftName */\n      dup5\n        /* \"nftExchanger.sol\":2004:2020  nftList[nftName] */\n      mload(0x40)\n      tag_55\n      swap2\n      swap1\n      tag_56\n      jump\t// in\n    tag_55:\n      swap1\n      dup2\n      mstore\n      0x20\n      add\n      mload(0x40)\n      dup1\n      swap2\n      sub\n      swap1\n      keccak256\n      0x00\n      swap1\n      sload\n      swap1\n      0x0100\n      exp\n      swap1\n      div\n      0xffffffffffffffffffffffffffffffffffffffff\n      and\n        /* \"nftExchanger.sol\":1996:2029  IERC721(nftList[nftName]).ownerOf */\n      0xffffffffffffffffffffffffffffffffffffffff\n      and\n      0x6352211e\n        /* \"nftExchanger.sol\":2030:2037  tokenId */\n      dup5\n        /* \"nftExchanger.sol\":1996:2038  IERC721(nftList[nftName]).ownerOf(tokenId) */\n      mload(0x40)\n      dup3\n      0xffffffff\n      and\n      0xe0\n      shl\n      dup2\n      mstore\n      0x04\n      add\n      tag_57\n      swap2\n      swap1\n      tag_58\n      jump\t// in\n    tag_57:\n      0x20\n      mload(0x40)\n      dup1\n      dup4\n      sub\n      dup2\n      dup7\n      gas\n      staticcall\n      iszero\n      dup1\n      iszero\n      tag_60\n      jumpi\n      returndatasize\n      0x00\n      dup1\n      returndatacopy\n      revert(0x00, returndatasize)\n    tag_60:\n      pop\n      pop\n      pop\n      pop\n      mload(0x40)\n      returndatasize\n      not(0x1f)\n      0x1f\n      dup3\n      add\n      and\n      dup3\n      add\n      dup1\n      0x40\n      mstore\n      pop\n      dup2\n      add\n      swap1\n      tag_61\n      swap2\n      swap1\n      tag_62\n      jump\t// in\n    tag_61:\n        /* \"nftExchanger.sol\":1996:2052  IERC721(nftList[nftName]).ownerOf(tokenId) == msg.sender */\n      0xffffffffffffffffffffffffffffffffffffffff\n      and\n      eq\n        /* \"nftExchanger.sol\":1974:2103  require(... */\n      tag_63\n      jumpi\n      mload(0x40)\n      0x08c379a000000000000000000000000000000000000000000000000000000000\n      dup2\n      mstore\n      0x04\n      add\n      tag_64\n      swap1\n      tag_65\n      jump\t// in\n    tag_64:\n      mload(0x40)\n      dup1\n      swap2\n      sub\n      swap1\n      revert\n    tag_63:\n        /* \"nftExchanger.sol\":2114:2127  address owner */\n      0x00\n        /* \"nftExchanger.sol\":2130:2140  msg.sender */\n      caller\n        /* \"nftExchanger.sol\":2114:2140  address owner = msg.sender */\n      swap1\n      pop\n        /* \"nftExchanger.sol\":2187:2218  SaleInfo(owner, tokenId, price) */\n      mload(0x40)\n      dup1\n      0x60\n      add\n      0x40\n      mstore\n      dup1\n        /* \"nftExchanger.sol\":2196:2201  owner */\n      dup3\n        /* \"nftExchanger.sol\":2187:2218  SaleInfo(owner, tokenId, price) */\n      0xffffffffffffffffffffffffffffffffffffffff\n      and\n      dup2\n      mstore\n      0x20\n      add\n        /* \"nftExchanger.sol\":2203:2210  tokenId */\n      dup5\n        /* \"nftExchanger.sol\":2187:2218  SaleInfo(owner, tokenId, price) */\n      dup2\n      mstore\n      0x20\n      add\n        /* \"nftExchanger.sol\":2212:2217  price */\n      dup4\n        /* \"nftExchanger.sol\":2187:2218  SaleInfo(owner, tokenId, price) */\n      dup2\n      mstore\n      pop\n        /* \"nftExchanger.sol\":2151:2157  _sales */\n      0x01\n        /* \"nftExchanger.sol\":2151:2175  _sales[nftList[nftName]] */\n      0x00\n        /* \"nftExchanger.sol\":2158:2165  nftList */\n      dup1\n        /* \"nftExchanger.sol\":2166:2173  nftName */\n      dup8\n        /* \"nftExchanger.sol\":2158:2174  nftList[nftName] */\n      mload(0x40)\n      tag_66\n      swap2\n      swap1\n      tag_56\n      jump\t// in\n    tag_66:\n      swap1\n      dup2\n      mstore\n      0x20\n      add\n      mload(0x40)\n      dup1\n      swap2\n      sub\n      swap1\n      keccak256\n      0x00\n      swap1\n      sload\n      swap1\n      0x0100\n      exp\n      swap1\n      div\n      0xffffffffffffffffffffffffffffffffffffffff\n      and\n        /* \"nftExchanger.sol\":2151:2175  _sales[nftList[nftName]] */\n      0xffffffffffffffffffffffffffffffffffffffff\n      and\n      0xffffffffffffffffffffffffffffffffffffffff\n      and\n      dup2\n      mstore\n      0x20\n      add\n      swap1\n      dup2\n      mstore\n      0x20\n      add\n      0x00\n      keccak256\n        /* \"nftExchanger.sol\":2151:2184  _sales[nftList[nftName]][tokenId] */\n      0x00\n        /* \"nftExchanger.sol\":2176:2183  tokenId */\n      dup6\n        /* \"nftExchanger.sol\":2151:2184  _sales[nftList[nftName]][tokenId] */\n      dup2\n      mstore\n      0x20\n      add\n      swap1\n      dup2\n      mstore\n      0x20\n      add\n      0x00\n      keccak256\n        /* \"nftExchanger.sol\":2151:2218  _sales[nftList[nftName]][tokenId] = SaleInfo(owner, tokenId, price) */\n      0x00\n      dup3\n      add\n      mload\n      dup2\n      0x00\n      add\n      exp(0x0100, 0x00)\n      dup2\n      sload\n      dup2\n      0xffffffffffffffffffffffffffffffffffffffff\n      mul\n      not\n      and\n      swap1\n      dup4\n      0xffffffffffffffffffffffffffffffffffffffff\n      and\n      mul\n      or\n      swap1\n      sstore\n      pop\n      0x20\n      dup3\n      add\n      mload\n      dup2\n      0x01\n      add\n      sstore\n      0x40\n      dup3\n      add\n      mload\n      dup2\n      0x02\n      add\n      sstore\n      swap1\n      pop\n      pop\n        /* \"nftExchanger.sol\":2278:2283  owner */\n      dup1\n        /* \"nftExchanger.sol\":2234:2284  ApplySale(nftList[nftName], tokenId, price, owner) */\n      0xffffffffffffffffffffffffffffffffffffffff\n      and\n      0x76ace3ea45ab2691269253cf4691623b115072483bd49fd7fc1f378f42f5a7a5\n        /* \"nftExchanger.sol\":2244:2251  nftList */\n      0x00\n        /* \"nftExchanger.sol\":2252:2259  nftName */\n      dup7\n        /* \"nftExchanger.sol\":2244:2260  nftList[nftName] */\n      mload(0x40)\n      tag_67\n      swap2\n      swap1\n      tag_56\n      jump\t// in\n    tag_67:\n      swap1\n      dup2\n      mstore\n      0x20\n      add\n      mload(0x40)\n      dup1\n      swap2\n      sub\n      swap1\n      keccak256\n      0x00\n      swap1\n      sload\n      swap1\n      0x0100\n      exp\n      swap1\n      div\n      0xffffffffffffffffffffffffffffffffffffffff\n      and\n        /* \"nftExchanger.sol\":2262:2269  tokenId */\n      dup6\n        /* \"nftExchanger.sol\":2271:2276  price */\n      dup6\n        /* \"nftExchanger.sol\":2234:2284  ApplySale(nftList[nftName], tokenId, price, owner) */\n      mload(0x40)\n      tag_68\n      swap4\n      swap3\n      swap2\n      swap1\n      tag_53\n      jump\t// in\n    tag_68:\n      mload(0x40)\n      dup1\n      swap2\n      sub\n      swap1\n      log2\n        /* \"nftExchanger.sol\":1963:2292  {... */\n      pop\n        /* \"nftExchanger.sol\":1848:2292  function applySale(... */\n      pop\n      pop\n      pop\n      jump\t// out\n        /* \"nftExchanger.sol\":947:1161  function makeTransfer(... */\n    tag_20:\n        /* \"nftExchanger.sol\":1104:1111  nftList */\n      0x00\n        /* \"nftExchanger.sol\":1112:1119  nftName */\n      dup5\n        /* \"nftExchanger.sol\":1104:1120  nftList[nftName] */\n      mload(0x40)\n      tag_70\n      swap2\n      swap1\n      tag_56\n      jump\t// in\n    tag_70:\n      swap1\n      dup2\n      mstore\n      0x20\n      add\n      mload(0x40)\n      dup1\n      swap2\n      sub\n      swap1\n      keccak256\n      0x00\n      swap1\n      sload\n      swap1\n      0x0100\n      exp\n      swap1\n      div\n      0xffffffffffffffffffffffffffffffffffffffff\n      and\n        /* \"nftExchanger.sol\":1096:1134  IERC721(nftList[nftName]).transferFrom */\n      0xffffffffffffffffffffffffffffffffffffffff\n      and\n      0x23b872dd\n        /* \"nftExchanger.sol\":1135:1139  from */\n      dup5\n        /* \"nftExchanger.sol\":1141:1143  to */\n      dup5\n        /* \"nftExchanger.sol\":1145:1152  tokenId */\n      dup5\n        /* \"nftExchanger.sol\":1096:1153  IERC721(nftList[nftName]).transferFrom(from, to, tokenId) */\n      mload(0x40)\n      dup5\n      0xffffffff\n      and\n      0xe0\n      shl\n      dup2\n      mstore\n      0x04\n      add\n      tag_71\n      swap4\n      swap3\n      swap2\n      swap1\n      tag_72\n      jump\t// in\n    tag_71:\n      0x00\n      mload(0x40)\n      dup1\n      dup4\n      sub\n      dup2\n      0x00\n      dup8\n      dup1\n      extcodesize\n      iszero\n      dup1\n      iszero\n      tag_73\n      jumpi\n      0x00\n      dup1\n      revert\n    tag_73:\n      pop\n      gas\n      call\n      iszero\n      dup1\n      iszero\n      tag_75\n      jumpi\n      returndatasize\n      0x00\n      dup1\n      returndatacopy\n      revert(0x00, returndatasize)\n    tag_75:\n      pop\n      pop\n      pop\n      pop\n        /* \"nftExchanger.sol\":947:1161  function makeTransfer(... */\n      pop\n      pop\n      pop\n      pop\n      jump\t// out\n        /* \"nftExchanger.sol\":1169:1271  function addNftList(string memory nftName, address CA) public {... */\n    tag_25:\n        /* \"nftExchanger.sol\":1261:1263  CA */\n      dup1\n        /* \"nftExchanger.sol\":1242:1249  nftList */\n      0x00\n        /* \"nftExchanger.sol\":1250:1257  nftName */\n      dup4\n        /* \"nftExchanger.sol\":1242:1258  nftList[nftName] */\n      mload(0x40)\n      tag_77\n      swap2\n      swap1\n      tag_56\n      jump\t// in\n    tag_77:\n      swap1\n      dup2\n      mstore\n      0x20\n      add\n      mload(0x40)\n      dup1\n      swap2\n      sub\n      swap1\n      keccak256\n      0x00\n        /* \"nftExchanger.sol\":1242:1263  nftList[nftName] = CA */\n      0x0100\n      exp\n      dup2\n      sload\n      dup2\n      0xffffffffffffffffffffffffffffffffffffffff\n      mul\n      not\n      and\n      swap1\n      dup4\n      0xffffffffffffffffffffffffffffffffffffffff\n      and\n      mul\n      or\n      swap1\n      sstore\n      pop\n        /* \"nftExchanger.sol\":1169:1271  function addNftList(string memory nftName, address CA) public {... */\n      pop\n      pop\n      jump\t// out\n        /* \"nftExchanger.sol\":2737:3287  function buySale(string memory nftName, uint256 tokenId) public payable {... */\n    tag_29:\n        /* \"nftExchanger.sol\":2821:2835  address _owner */\n      0x00\n        /* \"nftExchanger.sol\":2837:2853  uint256 _tokenId */\n      dup1\n        /* \"nftExchanger.sol\":2855:2869  uint256 _price */\n      0x00\n        /* \"nftExchanger.sol\":2873:2936  getSales(... */\n      tag_79\n        /* \"nftExchanger.sol\":2896:2903  nftName */\n      dup6\n        /* \"nftExchanger.sol\":2918:2925  tokenId */\n      dup6\n        /* \"nftExchanger.sol\":2873:2881  getSales */\n      tag_51\n        /* \"nftExchanger.sol\":2873:2936  getSales(... */\n      jump\t// in\n    tag_79:\n        /* \"nftExchanger.sol\":2820:2936  (address _owner, uint256 _tokenId, uint256 _price) = getSales(... */\n      swap3\n      pop\n      swap3\n      pop\n      swap3\n      pop\n        /* \"nftExchanger.sol\":2965:2974  msg.value */\n      callvalue\n        /* \"nftExchanger.sol\":2955:2961  _price */\n      dup2\n        /* \"nftExchanger.sol\":2955:2974  _price == msg.value */\n      eq\n        /* \"nftExchanger.sol\":2947:2975  require(_price == msg.value) */\n      tag_80\n      jumpi\n      0x00\n      dup1\n      revert\n    tag_80:\n        /* \"nftExchanger.sol\":2986:3008  address payable seller */\n      0x00\n        /* \"nftExchanger.sol\":3019:3025  _owner */\n      dup4\n        /* \"nftExchanger.sol\":2986:3026  address payable seller = payable(_owner) */\n      swap1\n      pop\n        /* \"nftExchanger.sol\":3037:3050  address buyer */\n      0x00\n        /* \"nftExchanger.sol\":3053:3063  msg.sender */\n      caller\n        /* \"nftExchanger.sol\":3037:3063  address buyer = msg.sender */\n      swap1\n      pop\n        /* \"nftExchanger.sol\":3074:3080  seller */\n      dup2\n        /* \"nftExchanger.sol\":3074:3089  seller.transfer */\n      0xffffffffffffffffffffffffffffffffffffffff\n      and\n        /* \"nftExchanger.sol\":3074:3100  seller.transfer(msg.value) */\n      0x08fc\n        /* \"nftExchanger.sol\":3090:3099  msg.value */\n      callvalue\n        /* \"nftExchanger.sol\":3074:3100  seller.transfer(msg.value) */\n      swap1\n      dup2\n      iszero\n      mul\n      swap1\n      mload(0x40)\n      0x00\n      mload(0x40)\n      dup1\n      dup4\n      sub\n      dup2\n      dup6\n      dup9\n      dup9\n      call\n      swap4\n      pop\n      pop\n      pop\n      pop\n      iszero\n      dup1\n      iszero\n      tag_82\n      jumpi\n      returndatasize\n      0x00\n      dup1\n      returndatacopy\n      revert(0x00, returndatasize)\n    tag_82:\n      pop\n        /* \"nftExchanger.sol\":3111:3156  makeTransfer(nftName, _owner, buyer, tokenId) */\n      tag_83\n        /* \"nftExchanger.sol\":3124:3131  nftName */\n      dup8\n        /* \"nftExchanger.sol\":3133:3139  _owner */\n      dup7\n        /* \"nftExchanger.sol\":3141:3146  buyer */\n      dup4\n        /* \"nftExchanger.sol\":3148:3155  tokenId */\n      dup10\n        /* \"nftExchanger.sol\":3111:3123  makeTransfer */\n      tag_20\n        /* \"nftExchanger.sol\":3111:3156  makeTransfer(nftName, _owner, buyer, tokenId) */\n      jump\t// in\n    tag_83:\n        /* \"nftExchanger.sol\":3174:3180  _sales */\n      0x01\n        /* \"nftExchanger.sol\":3174:3198  _sales[nftList[nftName]] */\n      0x00\n        /* \"nftExchanger.sol\":3181:3188  nftList */\n      dup1\n        /* \"nftExchanger.sol\":3189:3196  nftName */\n      dup10\n        /* \"nftExchanger.sol\":3181:3197  nftList[nftName] */\n      mload(0x40)\n      tag_84\n      swap2\n      swap1\n      tag_56\n      jump\t// in\n    tag_84:\n      swap1\n      dup2\n      mstore\n      0x20\n      add\n      mload(0x40)\n      dup1\n      swap2\n      sub\n      swap1\n      keccak256\n      0x00\n      swap1\n      sload\n      swap1\n      0x0100\n      exp\n      swap1\n      div\n      0xffffffffffffffffffffffffffffffffffffffff\n      and\n        /* \"nftExchanger.sol\":3174:3198  _sales[nftList[nftName]] */\n      0xffffffffffffffffffffffffffffffffffffffff\n      and\n      0xffffffffffffffffffffffffffffffffffffffff\n      and\n      dup2\n      mstore\n      0x20\n      add\n      swap1\n      dup2\n      mstore\n      0x20\n      add\n      0x00\n      keccak256\n        /* \"nftExchanger.sol\":3174:3208  _sales[nftList[nftName]][_tokenId] */\n      0x00\n        /* \"nftExchanger.sol\":3199:3207  _tokenId */\n      dup6\n        /* \"nftExchanger.sol\":3174:3208  _sales[nftList[nftName]][_tokenId] */\n      dup2\n      mstore\n      0x20\n      add\n      swap1\n      dup2\n      mstore\n      0x20\n      add\n      0x00\n      keccak256\n      0x00\n        /* \"nftExchanger.sol\":3167:3208  delete _sales[nftList[nftName]][_tokenId] */\n      dup1\n      dup3\n      add\n      exp(0x0100, 0x00)\n      dup2\n      sload\n      swap1\n      0xffffffffffffffffffffffffffffffffffffffff\n      mul\n      not\n      and\n      swap1\n      sstore\n      0x01\n      dup3\n      add\n      0x00\n      swap1\n      sstore\n      0x02\n      dup3\n      add\n      0x00\n      swap1\n      sstore\n      pop\n      pop\n        /* \"nftExchanger.sol\":3272:3278  seller */\n      dup2\n        /* \"nftExchanger.sol\":3224:3279  Sale(nftList[nftName], _tokenId, _price, buyer, seller) */\n      0xffffffffffffffffffffffffffffffffffffffff\n      and\n        /* \"nftExchanger.sol\":3265:3270  buyer */\n      dup2\n        /* \"nftExchanger.sol\":3224:3279  Sale(nftList[nftName], _tokenId, _price, buyer, seller) */\n      0xffffffffffffffffffffffffffffffffffffffff\n      and\n      0x4bbee585c68c014080a294e95cc21a3bcb641b0ddf539f0cc2306b97b7efb905\n        /* \"nftExchanger.sol\":3229:3236  nftList */\n      0x00\n        /* \"nftExchanger.sol\":3237:3244  nftName */\n      dup11\n        /* \"nftExchanger.sol\":3229:3245  nftList[nftName] */\n      mload(0x40)\n      tag_85\n      swap2\n      swap1\n      tag_56\n      jump\t// in\n    tag_85:\n      swap1\n      dup2\n      mstore\n      0x20\n      add\n      mload(0x40)\n      dup1\n      swap2\n      sub\n      swap1\n      keccak256\n      0x00\n      swap1\n      sload\n      swap1\n      0x0100\n      exp\n      swap1\n      div\n      0xffffffffffffffffffffffffffffffffffffffff\n      and\n        /* \"nftExchanger.sol\":3247:3255  _tokenId */\n      dup8\n        /* \"nftExchanger.sol\":3257:3263  _price */\n      dup8\n        /* \"nftExchanger.sol\":3224:3279  Sale(nftList[nftName], _tokenId, _price, buyer, seller) */\n      mload(0x40)\n      tag_86\n      swap4\n      swap3\n      swap2\n      swap1\n      tag_53\n      jump\t// in\n    tag_86:\n      mload(0x40)\n      dup1\n      swap2\n      sub\n      swap1\n      log3\n        /* \"nftExchanger.sol\":2809:3287  {... */\n      pop\n      pop\n      pop\n      pop\n      pop\n        /* \"nftExchanger.sol\":2737:3287  function buySale(string memory nftName, uint256 tokenId) public payable {... */\n      pop\n      pop\n      jump\t// out\n        /* \"nftExchanger.sol\":825:866  mapping(string => address) public nftList */\n    tag_34:\n      0x00\n      dup2\n      dup1\n      mload\n      0x20\n      dup2\n      add\n      dup3\n      add\n      dup1\n      mload\n      dup5\n      dup3\n      mstore\n      0x20\n      dup4\n      add\n      0x20\n      dup6\n      add\n      keccak256\n      dup2\n      dup4\n      mstore\n      dup1\n      swap6\n      pop\n      pop\n      pop\n      pop\n      pop\n      pop\n      0x00\n      swap2\n      pop\n      sload\n      swap1\n      0x0100\n      exp\n      swap1\n      div\n      0xffffffffffffffffffffffffffffffffffffffff\n      and\n      dup2\n      jump\t// out\n        /* \"nftExchanger.sol\":1279:1394  function getNftList(string memory nftName) public view returns (address) {... */\n    tag_40:\n        /* \"nftExchanger.sol\":1343:1350  address */\n      0x00\n        /* \"nftExchanger.sol\":1370:1377  nftList */\n      dup1\n        /* \"nftExchanger.sol\":1378:1385  nftName */\n      dup3\n        /* \"nftExchanger.sol\":1370:1386  nftList[nftName] */\n      mload(0x40)\n      tag_88\n      swap2\n      swap1\n      tag_56\n      jump\t// in\n    tag_88:\n      swap1\n      dup2\n      mstore\n      0x20\n      add\n      mload(0x40)\n      dup1\n      swap2\n      sub\n      swap1\n      keccak256\n      0x00\n      swap1\n      sload\n      swap1\n      0x0100\n      exp\n      swap1\n      div\n      0xffffffffffffffffffffffffffffffffffffffff\n      and\n        /* \"nftExchanger.sol\":1363:1386  return nftList[nftName] */\n      swap1\n      pop\n        /* \"nftExchanger.sol\":1279:1394  function getNftList(string memory nftName) public view returns (address) {... */\n      swap2\n      swap1\n      pop\n      jump\t// out\n        /* \"nftExchanger.sol\":1402:1840  function mint(string memory nftKey, string memory uri)... */\n    tag_45:\n        /* \"nftExchanger.sol\":1508:1512  bool */\n      0x00\n        /* \"nftExchanger.sol\":1531:1543  bool success */\n      dup1\n        /* \"nftExchanger.sol\":1545:1562  bytes memory data */\n      0x00\n        /* \"nftExchanger.sol\":1566:1573  nftList */\n      dup1\n        /* \"nftExchanger.sol\":1574:1580  nftKey */\n      dup6\n        /* \"nftExchanger.sol\":1566:1581  nftList[nftKey] */\n      mload(0x40)\n      tag_90\n      swap2\n      swap1\n      tag_56\n      jump\t// in\n    tag_90:\n      swap1\n      dup2\n      mstore\n      0x20\n      add\n      mload(0x40)\n      dup1\n      swap2\n      sub\n      swap1\n      keccak256\n      0x00\n      swap1\n      sload\n      swap1\n      0x0100\n      exp\n      swap1\n      div\n      0xffffffffffffffffffffffffffffffffffffffff\n      and\n        /* \"nftExchanger.sol\":1566:1586  nftList[nftKey].call */\n      0xffffffffffffffffffffffffffffffffffffffff\n      and\n        /* \"nftExchanger.sol\":1692:1702  msg.sender */\n      caller\n        /* \"nftExchanger.sol\":1721:1724  uri */\n      dup6\n        /* \"nftExchanger.sol\":1601:1739  abi.encodeWithSignature(... */\n      add(0x24, mload(0x40))\n      tag_91\n      swap3\n      swap2\n      swap1\n      tag_92\n      jump\t// in\n    tag_91:\n      mload(0x40)\n      0x20\n      dup2\n      dup4\n      sub\n      sub\n      dup2\n      mstore\n      swap1\n      0x40\n      mstore\n      and(not(0xffffffffffffffffffffffffffffffffffffffffffffffffffffffff), 0xec272b7f00000000000000000000000000000000000000000000000000000000)\n      0x20\n      dup3\n      add\n      dup1\n      mload\n      0xffffffffffffffffffffffffffffffffffffffffffffffffffffffff\n      dup4\n      dup2\n      dup4\n      and\n      or\n      dup4\n      mstore\n      pop\n      pop\n      pop\n      pop\n        /* \"nftExchanger.sol\":1566:1750  nftList[nftKey].call(... */\n      mload(0x40)\n      tag_93\n      swap2\n      swap1\n      tag_94\n      jump\t// in\n    tag_93:\n      0x00\n      mload(0x40)\n      dup1\n      dup4\n      sub\n      dup2\n      0x00\n      dup7\n      gas\n      call\n      swap2\n      pop\n      pop\n      returndatasize\n      dup1\n      0x00\n      dup2\n      eq\n      tag_97\n      jumpi\n      mload(0x40)\n      swap2\n      pop\n      and(add(returndatasize, 0x3f), not(0x1f))\n      dup3\n      add\n      0x40\n      mstore\n      returndatasize\n      dup3\n      mstore\n      returndatasize\n      0x00\n      0x20\n      dup5\n      add\n      returndatacopy\n      jump(tag_96)\n    tag_97:\n      0x60\n      swap2\n      pop\n    tag_96:\n      pop\n        /* \"nftExchanger.sol\":1530:1750  (bool success, bytes memory data) = nftList[nftKey].call(... */\n      swap2\n      pop\n      swap2\n      pop\n        /* \"nftExchanger.sol\":1796:1806  msg.sender */\n      caller\n        /* \"nftExchanger.sol\":1766:1807  Minting(nftList[nftKey], uri, msg.sender) */\n      0xffffffffffffffffffffffffffffffffffffffff\n      and\n      0x63d0dffd1cbc20d9e88a6e1a0adb1a7a6a44af741a786a5a5b4b57d7021adf66\n        /* \"nftExchanger.sol\":1774:1781  nftList */\n      0x00\n        /* \"nftExchanger.sol\":1782:1788  nftKey */\n      dup8\n        /* \"nftExchanger.sol\":1774:1789  nftList[nftKey] */\n      mload(0x40)\n      tag_98\n      swap2\n      swap1\n      tag_56\n      jump\t// in\n    tag_98:\n      swap1\n      dup2\n      mstore\n      0x20\n      add\n      mload(0x40)\n      dup1\n      swap2\n      sub\n      swap1\n      keccak256\n      0x00\n      swap1\n      sload\n      swap1\n      0x0100\n      exp\n      swap1\n      div\n      0xffffffffffffffffffffffffffffffffffffffff\n      and\n        /* \"nftExchanger.sol\":1791:1794  uri */\n      dup7\n        /* \"nftExchanger.sol\":1766:1807  Minting(nftList[nftKey], uri, msg.sender) */\n      mload(0x40)\n      tag_99\n      swap3\n      swap2\n      swap1\n      tag_92\n      jump\t// in\n    tag_99:\n      mload(0x40)\n      dup1\n      swap2\n      sub\n      swap1\n      log2\n        /* \"nftExchanger.sol\":1825:1832  success */\n      dup2\n        /* \"nftExchanger.sol\":1818:1832  return success */\n      swap3\n      pop\n      pop\n      pop\n        /* \"nftExchanger.sol\":1402:1840  function mint(string memory nftKey, string memory uri)... */\n      swap3\n      swap2\n      pop\n      pop\n      jump\t// out\n        /* \"nftExchanger.sol\":2300:2729  function getSales(string memory nftName, uint256 tokenId)... */\n    tag_51:\n        /* \"nftExchanger.sol\":2420:2427  address */\n      0x00\n        /* \"nftExchanger.sol\":2442:2449  uint256 */\n      dup1\n        /* \"nftExchanger.sol\":2464:2471  uint256 */\n      0x00\n        /* \"nftExchanger.sol\":2499:2520  SaleInfo memory _sale */\n      dup1\n        /* \"nftExchanger.sol\":2523:2529  _sales */\n      0x01\n        /* \"nftExchanger.sol\":2523:2547  _sales[nftList[nftName]] */\n      0x00\n        /* \"nftExchanger.sol\":2530:2537  nftList */\n      dup1\n        /* \"nftExchanger.sol\":2538:2545  nftName */\n      dup9\n        /* \"nftExchanger.sol\":2530:2546  nftList[nftName] */\n      mload(0x40)\n      tag_101\n      swap2\n      swap1\n      tag_56\n      jump\t// in\n    tag_101:\n      swap1\n      dup2\n      mstore\n      0x20\n      add\n      mload(0x40)\n      dup1\n      swap2\n      sub\n      swap1\n      keccak256\n      0x00\n      swap1\n      sload\n      swap1\n      0x0100\n      exp\n      swap1\n      div\n      0xffffffffffffffffffffffffffffffffffffffff\n      and\n        /* \"nftExchanger.sol\":2523:2547  _sales[nftList[nftName]] */\n      0xffffffffffffffffffffffffffffffffffffffff\n      and\n      0xffffffffffffffffffffffffffffffffffffffff\n      and\n      dup2\n      mstore\n      0x20\n      add\n      swap1\n      dup2\n      mstore\n      0x20\n      add\n      0x00\n      keccak256\n        /* \"nftExchanger.sol\":2523:2556  _sales[nftList[nftName]][tokenId] */\n      0x00\n        /* \"nftExchanger.sol\":2548:2555  tokenId */\n      dup7\n        /* \"nftExchanger.sol\":2523:2556  _sales[nftList[nftName]][tokenId] */\n      dup2\n      mstore\n      0x20\n      add\n      swap1\n      dup2\n      mstore\n      0x20\n      add\n      0x00\n      keccak256\n        /* \"nftExchanger.sol\":2499:2556  SaleInfo memory _sale = _sales[nftList[nftName]][tokenId] */\n      mload(0x40)\n      dup1\n      0x60\n      add\n      0x40\n      mstore\n      swap1\n      dup2\n      0x00\n      dup3\n      add\n      0x00\n      swap1\n      sload\n      swap1\n      0x0100\n      exp\n      swap1\n      div\n      0xffffffffffffffffffffffffffffffffffffffff\n      and\n      0xffffffffffffffffffffffffffffffffffffffff\n      and\n      0xffffffffffffffffffffffffffffffffffffffff\n      and\n      dup2\n      mstore\n      0x20\n      add\n      0x01\n      dup3\n      add\n      sload\n      dup2\n      mstore\n      0x20\n      add\n      0x02\n      dup3\n      add\n      sload\n      dup2\n      mstore\n      pop\n      pop\n      swap1\n      pop\n        /* \"nftExchanger.sol\":2567:2581  address _owner */\n      0x00\n        /* \"nftExchanger.sol\":2584:2589  _sale */\n      dup2\n        /* \"nftExchanger.sol\":2584:2595  _sale.onwer */\n      0x00\n      add\n      mload\n        /* \"nftExchanger.sol\":2567:2595  address _owner = _sale.onwer */\n      swap1\n      pop\n        /* \"nftExchanger.sol\":2606:2622  uint256 _tokenId */\n      0x00\n        /* \"nftExchanger.sol\":2625:2630  _sale */\n      dup3\n        /* \"nftExchanger.sol\":2625:2638  _sale.tokenId */\n      0x20\n      add\n      mload\n        /* \"nftExchanger.sol\":2606:2638  uint256 _tokenId = _sale.tokenId */\n      swap1\n      pop\n        /* \"nftExchanger.sol\":2649:2663  uint256 _price */\n      0x00\n        /* \"nftExchanger.sol\":2666:2671  _sale */\n      dup4\n        /* \"nftExchanger.sol\":2666:2677  _sale.price */\n      0x40\n      add\n      mload\n        /* \"nftExchanger.sol\":2649:2677  uint256 _price = _sale.price */\n      swap1\n      pop\n        /* \"nftExchanger.sol\":2696:2702  _owner */\n      dup3\n        /* \"nftExchanger.sol\":2704:2712  _tokenId */\n      dup3\n        /* \"nftExchanger.sol\":2714:2720  _price */\n      dup3\n        /* \"nftExchanger.sol\":2688:2721  return (_owner, _tokenId, _price) */\n      swap7\n      pop\n      swap7\n      pop\n      swap7\n      pop\n      pop\n      pop\n      pop\n      pop\n        /* \"nftExchanger.sol\":2300:2729  function getSales(string memory nftName, uint256 tokenId)... */\n      swap3\n      pop\n      swap3\n      pop\n      swap3\n      jump\t// out\n        /* \"#utility.yul\":7:82   */\n    tag_102:\n        /* \"#utility.yul\":40:46   */\n      0x00\n        /* \"#utility.yul\":73:75   */\n      0x40\n        /* \"#utility.yul\":67:76   */\n      mload\n        /* \"#utility.yul\":57:76   */\n      swap1\n      pop\n        /* \"#utility.yul\":7:82   */\n      swap1\n      jump\t// out\n        /* \"#utility.yul\":88:205   */\n    tag_103:\n        /* \"#utility.yul\":197:198   */\n      0x00\n        /* \"#utility.yul\":194:195   */\n      dup1\n        /* \"#utility.yul\":187:199   */\n      revert\n        /* \"#utility.yul\":211:328   */\n    tag_104:\n        /* \"#utility.yul\":320:321   */\n      0x00\n        /* \"#utility.yul\":317:318   */\n      dup1\n        /* \"#utility.yul\":310:322   */\n      revert\n        /* \"#utility.yul\":334:451   */\n    tag_105:\n        /* \"#utility.yul\":443:444   */\n      0x00\n        /* \"#utility.yul\":440:441   */\n      dup1\n        /* \"#utility.yul\":433:445   */\n      revert\n        /* \"#utility.yul\":457:574   */\n    tag_106:\n        /* \"#utility.yul\":566:567   */\n      0x00\n        /* \"#utility.yul\":563:564   */\n      dup1\n        /* \"#utility.yul\":556:568   */\n      revert\n        /* \"#utility.yul\":580:682   */\n    tag_107:\n        /* \"#utility.yul\":621:627   */\n      0x00\n        /* \"#utility.yul\":672:674   */\n      0x1f\n        /* \"#utility.yul\":668:675   */\n      not\n        /* \"#utility.yul\":663:665   */\n      0x1f\n        /* \"#utility.yul\":656:661   */\n      dup4\n        /* \"#utility.yul\":652:666   */\n      add\n        /* \"#utility.yul\":648:676   */\n      and\n        /* \"#utility.yul\":638:676   */\n      swap1\n      pop\n        /* \"#utility.yul\":580:682   */\n      swap2\n      swap1\n      pop\n      jump\t// out\n        /* \"#utility.yul\":688:868   */\n    tag_108:\n        /* \"#utility.yul\":736:813   */\n      0x4e487b7100000000000000000000000000000000000000000000000000000000\n        /* \"#utility.yul\":733:734   */\n      0x00\n        /* \"#utility.yul\":726:814   */\n      mstore\n        /* \"#utility.yul\":833:837   */\n      0x41\n        /* \"#utility.yul\":830:831   */\n      0x04\n        /* \"#utility.yul\":823:838   */\n      mstore\n        /* \"#utility.yul\":857:861   */\n      0x24\n        /* \"#utility.yul\":854:855   */\n      0x00\n        /* \"#utility.yul\":847:862   */\n      revert\n        /* \"#utility.yul\":874:1155   */\n    tag_109:\n        /* \"#utility.yul\":957:984   */\n      tag_147\n        /* \"#utility.yul\":979:983   */\n      dup3\n        /* \"#utility.yul\":957:984   */\n      tag_107\n      jump\t// in\n    tag_147:\n        /* \"#utility.yul\":949:955   */\n      dup2\n        /* \"#utility.yul\":945:985   */\n      add\n        /* \"#utility.yul\":1087:1093   */\n      dup2\n        /* \"#utility.yul\":1075:1085   */\n      dup2\n        /* \"#utility.yul\":1072:1094   */\n      lt\n        /* \"#utility.yul\":1051:1069   */\n      0xffffffffffffffff\n        /* \"#utility.yul\":1039:1049   */\n      dup3\n        /* \"#utility.yul\":1036:1070   */\n      gt\n        /* \"#utility.yul\":1033:1095   */\n      or\n        /* \"#utility.yul\":1030:1118   */\n      iszero\n      tag_148\n      jumpi\n        /* \"#utility.yul\":1098:1116   */\n      tag_149\n      tag_108\n      jump\t// in\n    tag_149:\n        /* \"#utility.yul\":1030:1118   */\n    tag_148:\n        /* \"#utility.yul\":1138:1148   */\n      dup1\n        /* \"#utility.yul\":1134:1136   */\n      0x40\n        /* \"#utility.yul\":1127:1149   */\n      mstore\n        /* \"#utility.yul\":917:1155   */\n      pop\n        /* \"#utility.yul\":874:1155   */\n      pop\n      pop\n      jump\t// out\n        /* \"#utility.yul\":1161:1290   */\n    tag_110:\n        /* \"#utility.yul\":1195:1201   */\n      0x00\n        /* \"#utility.yul\":1222:1242   */\n      tag_151\n      tag_102\n      jump\t// in\n    tag_151:\n        /* \"#utility.yul\":1212:1242   */\n      swap1\n      pop\n        /* \"#utility.yul\":1251:1284   */\n      tag_152\n        /* \"#utility.yul\":1279:1283   */\n      dup3\n        /* \"#utility.yul\":1271:1277   */\n      dup3\n        /* \"#utility.yul\":1251:1284   */\n      tag_109\n      jump\t// in\n    tag_152:\n        /* \"#utility.yul\":1161:1290   */\n      swap2\n      swap1\n      pop\n      jump\t// out\n        /* \"#utility.yul\":1296:1604   */\n    tag_111:\n        /* \"#utility.yul\":1358:1362   */\n      0x00\n        /* \"#utility.yul\":1448:1466   */\n      0xffffffffffffffff\n        /* \"#utility.yul\":1440:1446   */\n      dup3\n        /* \"#utility.yul\":1437:1467   */\n      gt\n        /* \"#utility.yul\":1434:1490   */\n      iszero\n      tag_154\n      jumpi\n        /* \"#utility.yul\":1470:1488   */\n      tag_155\n      tag_108\n      jump\t// in\n    tag_155:\n        /* \"#utility.yul\":1434:1490   */\n    tag_154:\n        /* \"#utility.yul\":1508:1537   */\n      tag_156\n        /* \"#utility.yul\":1530:1536   */\n      dup3\n        /* \"#utility.yul\":1508:1537   */\n      tag_107\n      jump\t// in\n    tag_156:\n        /* \"#utility.yul\":1500:1537   */\n      swap1\n      pop\n        /* \"#utility.yul\":1592:1596   */\n      0x20\n        /* \"#utility.yul\":1586:1590   */\n      dup2\n        /* \"#utility.yul\":1582:1597   */\n      add\n        /* \"#utility.yul\":1574:1597   */\n      swap1\n      pop\n        /* \"#utility.yul\":1296:1604   */\n      swap2\n      swap1\n      pop\n      jump\t// out\n        /* \"#utility.yul\":1610:1756   */\n    tag_112:\n        /* \"#utility.yul\":1707:1713   */\n      dup3\n        /* \"#utility.yul\":1702:1705   */\n      dup2\n        /* \"#utility.yul\":1697:1700   */\n      dup4\n        /* \"#utility.yul\":1684:1714   */\n      calldatacopy\n        /* \"#utility.yul\":1748:1749   */\n      0x00\n        /* \"#utility.yul\":1739:1745   */\n      dup4\n        /* \"#utility.yul\":1734:1737   */\n      dup4\n        /* \"#utility.yul\":1730:1746   */\n      add\n        /* \"#utility.yul\":1723:1750   */\n      mstore\n        /* \"#utility.yul\":1610:1756   */\n      pop\n      pop\n      pop\n      jump\t// out\n        /* \"#utility.yul\":1762:2187   */\n    tag_113:\n        /* \"#utility.yul\":1840:1845   */\n      0x00\n        /* \"#utility.yul\":1865:1931   */\n      tag_159\n        /* \"#utility.yul\":1881:1930   */\n      tag_160\n        /* \"#utility.yul\":1923:1929   */\n      dup5\n        /* \"#utility.yul\":1881:1930   */\n      tag_111\n      jump\t// in\n    tag_160:\n        /* \"#utility.yul\":1865:1931   */\n      tag_110\n      jump\t// in\n    tag_159:\n        /* \"#utility.yul\":1856:1931   */\n      swap1\n      pop\n        /* \"#utility.yul\":1954:1960   */\n      dup3\n        /* \"#utility.yul\":1947:1952   */\n      dup2\n        /* \"#utility.yul\":1940:1961   */\n      mstore\n        /* \"#utility.yul\":1992:1996   */\n      0x20\n        /* \"#utility.yul\":1985:1990   */\n      dup2\n        /* \"#utility.yul\":1981:1997   */\n      add\n        /* \"#utility.yul\":2030:2033   */\n      dup5\n        /* \"#utility.yul\":2021:2027   */\n      dup5\n        /* \"#utility.yul\":2016:2019   */\n      dup5\n        /* \"#utility.yul\":2012:2028   */\n      add\n        /* \"#utility.yul\":2009:2034   */\n      gt\n        /* \"#utility.yul\":2006:2118   */\n      iszero\n      tag_161\n      jumpi\n        /* \"#utility.yul\":2037:2116   */\n      tag_162\n      tag_106\n      jump\t// in\n    tag_162:\n        /* \"#utility.yul\":2006:2118   */\n    tag_161:\n        /* \"#utility.yul\":2127:2181   */\n      tag_163\n        /* \"#utility.yul\":2174:2180   */\n      dup5\n        /* \"#utility.yul\":2169:2172   */\n      dup3\n        /* \"#utility.yul\":2164:2167   */\n      dup6\n        /* \"#utility.yul\":2127:2181   */\n      tag_112\n      jump\t// in\n    tag_163:\n        /* \"#utility.yul\":1846:2187   */\n      pop\n        /* \"#utility.yul\":1762:2187   */\n      swap4\n      swap3\n      pop\n      pop\n      pop\n      jump\t// out\n        /* \"#utility.yul\":2207:2547   */\n    tag_114:\n        /* \"#utility.yul\":2263:2268   */\n      0x00\n        /* \"#utility.yul\":2312:2315   */\n      dup3\n        /* \"#utility.yul\":2305:2309   */\n      0x1f\n        /* \"#utility.yul\":2297:2303   */\n      dup4\n        /* \"#utility.yul\":2293:2310   */\n      add\n        /* \"#utility.yul\":2289:2316   */\n      slt\n        /* \"#utility.yul\":2279:2401   */\n      tag_165\n      jumpi\n        /* \"#utility.yul\":2320:2399   */\n      tag_166\n      tag_105\n      jump\t// in\n    tag_166:\n        /* \"#utility.yul\":2279:2401   */\n    tag_165:\n        /* \"#utility.yul\":2437:2443   */\n      dup2\n        /* \"#utility.yul\":2424:2444   */\n      calldataload\n        /* \"#utility.yul\":2462:2541   */\n      tag_167\n        /* \"#utility.yul\":2537:2540   */\n      dup5\n        /* \"#utility.yul\":2529:2535   */\n      dup3\n        /* \"#utility.yul\":2522:2526   */\n      0x20\n        /* \"#utility.yul\":2514:2520   */\n      dup7\n        /* \"#utility.yul\":2510:2527   */\n      add\n        /* \"#utility.yul\":2462:2541   */\n      tag_113\n      jump\t// in\n    tag_167:\n        /* \"#utility.yul\":2453:2541   */\n      swap2\n      pop\n        /* \"#utility.yul\":2269:2547   */\n      pop\n        /* \"#utility.yul\":2207:2547   */\n      swap3\n      swap2\n      pop\n      pop\n      jump\t// out\n        /* \"#utility.yul\":2553:2630   */\n    tag_115:\n        /* \"#utility.yul\":2590:2597   */\n      0x00\n        /* \"#utility.yul\":2619:2624   */\n      dup2\n        /* \"#utility.yul\":2608:2624   */\n      swap1\n      pop\n        /* \"#utility.yul\":2553:2630   */\n      swap2\n      swap1\n      pop\n      jump\t// out\n        /* \"#utility.yul\":2636:2758   */\n    tag_116:\n        /* \"#utility.yul\":2709:2733   */\n      tag_170\n        /* \"#utility.yul\":2727:2732   */\n      dup2\n        /* \"#utility.yul\":2709:2733   */\n      tag_115\n      jump\t// in\n    tag_170:\n        /* \"#utility.yul\":2702:2707   */\n      dup2\n        /* \"#utility.yul\":2699:2734   */\n      eq\n        /* \"#utility.yul\":2689:2752   */\n      tag_171\n      jumpi\n        /* \"#utility.yul\":2748:2749   */\n      0x00\n        /* \"#utility.yul\":2745:2746   */\n      dup1\n        /* \"#utility.yul\":2738:2750   */\n      revert\n        /* \"#utility.yul\":2689:2752   */\n    tag_171:\n        /* \"#utility.yul\":2636:2758   */\n      pop\n      jump\t// out\n        /* \"#utility.yul\":2764:2903   */\n    tag_117:\n        /* \"#utility.yul\":2810:2815   */\n      0x00\n        /* \"#utility.yul\":2848:2854   */\n      dup2\n        /* \"#utility.yul\":2835:2855   */\n      calldataload\n        /* \"#utility.yul\":2826:2855   */\n      swap1\n      pop\n        /* \"#utility.yul\":2864:2897   */\n      tag_173\n        /* \"#utility.yul\":2891:2896   */\n      dup2\n        /* \"#utility.yul\":2864:2897   */\n      tag_116\n      jump\t// in\n    tag_173:\n        /* \"#utility.yul\":2764:2903   */\n      swap3\n      swap2\n      pop\n      pop\n      jump\t// out\n        /* \"#utility.yul\":2909:3708   */\n    tag_14:\n        /* \"#utility.yul\":2996:3002   */\n      0x00\n        /* \"#utility.yul\":3004:3010   */\n      dup1\n        /* \"#utility.yul\":3012:3018   */\n      0x00\n        /* \"#utility.yul\":3061:3063   */\n      0x60\n        /* \"#utility.yul\":3049:3058   */\n      dup5\n        /* \"#utility.yul\":3040:3047   */\n      dup7\n        /* \"#utility.yul\":3036:3059   */\n      sub\n        /* \"#utility.yul\":3032:3064   */\n      slt\n        /* \"#utility.yul\":3029:3148   */\n      iszero\n      tag_175\n      jumpi\n        /* \"#utility.yul\":3067:3146   */\n      tag_176\n      tag_103\n      jump\t// in\n    tag_176:\n        /* \"#utility.yul\":3029:3148   */\n    tag_175:\n        /* \"#utility.yul\":3215:3216   */\n      0x00\n        /* \"#utility.yul\":3204:3213   */\n      dup5\n        /* \"#utility.yul\":3200:3217   */\n      add\n        /* \"#utility.yul\":3187:3218   */\n      calldataload\n        /* \"#utility.yul\":3245:3263   */\n      0xffffffffffffffff\n        /* \"#utility.yul\":3237:3243   */\n      dup2\n        /* \"#utility.yul\":3234:3264   */\n      gt\n        /* \"#utility.yul\":3231:3348   */\n      iszero\n      tag_177\n      jumpi\n        /* \"#utility.yul\":3267:3346   */\n      tag_178\n      tag_104\n      jump\t// in\n    tag_178:\n        /* \"#utility.yul\":3231:3348   */\n    tag_177:\n        /* \"#utility.yul\":3372:3435   */\n      tag_179\n        /* \"#utility.yul\":3427:3434   */\n      dup7\n        /* \"#utility.yul\":3418:3424   */\n      dup3\n        /* \"#utility.yul\":3407:3416   */\n      dup8\n        /* \"#utility.yul\":3403:3425   */\n      add\n        /* \"#utility.yul\":3372:3435   */\n      tag_114\n      jump\t// in\n    tag_179:\n        /* \"#utility.yul\":3362:3435   */\n      swap4\n      pop\n        /* \"#utility.yul\":3158:3445   */\n      pop\n        /* \"#utility.yul\":3484:3486   */\n      0x20\n        /* \"#utility.yul\":3510:3563   */\n      tag_180\n        /* \"#utility.yul\":3555:3562   */\n      dup7\n        /* \"#utility.yul\":3546:3552   */\n      dup3\n        /* \"#utility.yul\":3535:3544   */\n      dup8\n        /* \"#utility.yul\":3531:3553   */\n      add\n        /* \"#utility.yul\":3510:3563   */\n      tag_117\n      jump\t// in\n    tag_180:\n        /* \"#utility.yul\":3500:3563   */\n      swap3\n      pop\n        /* \"#utility.yul\":3455:3573   */\n      pop\n        /* \"#utility.yul\":3612:3614   */\n      0x40\n        /* \"#utility.yul\":3638:3691   */\n      tag_181\n        /* \"#utility.yul\":3683:3690   */\n      dup7\n        /* \"#utility.yul\":3674:3680   */\n      dup3\n        /* \"#utility.yul\":3663:3672   */\n      dup8\n        /* \"#utility.yul\":3659:3681   */\n      add\n        /* \"#utility.yul\":3638:3691   */\n      tag_117\n      jump\t// in\n    tag_181:\n        /* \"#utility.yul\":3628:3691   */\n      swap2\n      pop\n        /* \"#utility.yul\":3583:3701   */\n      pop\n        /* \"#utility.yul\":2909:3708   */\n      swap3\n      pop\n      swap3\n      pop\n      swap3\n      jump\t// out\n        /* \"#utility.yul\":3714:3840   */\n    tag_118:\n        /* \"#utility.yul\":3751:3758   */\n      0x00\n        /* \"#utility.yul\":3791:3833   */\n      0xffffffffffffffffffffffffffffffffffffffff\n        /* \"#utility.yul\":3784:3789   */\n      dup3\n        /* \"#utility.yul\":3780:3834   */\n      and\n        /* \"#utility.yul\":3769:3834   */\n      swap1\n      pop\n        /* \"#utility.yul\":3714:3840   */\n      swap2\n      swap1\n      pop\n      jump\t// out\n        /* \"#utility.yul\":3846:3942   */\n    tag_119:\n        /* \"#utility.yul\":3883:3890   */\n      0x00\n        /* \"#utility.yul\":3912:3936   */\n      tag_184\n        /* \"#utility.yul\":3930:3935   */\n      dup3\n        /* \"#utility.yul\":3912:3936   */\n      tag_118\n      jump\t// in\n    tag_184:\n        /* \"#utility.yul\":3901:3936   */\n      swap1\n      pop\n        /* \"#utility.yul\":3846:3942   */\n      swap2\n      swap1\n      pop\n      jump\t// out\n        /* \"#utility.yul\":3948:4070   */\n    tag_120:\n        /* \"#utility.yul\":4021:4045   */\n      tag_186\n        /* \"#utility.yul\":4039:4044   */\n      dup2\n        /* \"#utility.yul\":4021:4045   */\n      tag_119\n      jump\t// in\n    tag_186:\n        /* \"#utility.yul\":4014:4019   */\n      dup2\n        /* \"#utility.yul\":4011:4046   */\n      eq\n        /* \"#utility.yul\":4001:4064   */\n      tag_187\n      jumpi\n        /* \"#utility.yul\":4060:4061   */\n      0x00\n        /* \"#utility.yul\":4057:4058   */\n      dup1\n        /* \"#utility.yul\":4050:4062   */\n      revert\n        /* \"#utility.yul\":4001:4064   */\n    tag_187:\n        /* \"#utility.yul\":3948:4070   */\n      pop\n      jump\t// out\n        /* \"#utility.yul\":4076:4215   */\n    tag_121:\n        /* \"#utility.yul\":4122:4127   */\n      0x00\n        /* \"#utility.yul\":4160:4166   */\n      dup2\n        /* \"#utility.yul\":4147:4167   */\n      calldataload\n        /* \"#utility.yul\":4138:4167   */\n      swap1\n      pop\n        /* \"#utility.yul\":4176:4209   */\n      tag_189\n        /* \"#utility.yul\":4203:4208   */\n      dup2\n        /* \"#utility.yul\":4176:4209   */\n      tag_120\n      jump\t// in\n    tag_189:\n        /* \"#utility.yul\":4076:4215   */\n      swap3\n      swap2\n      pop\n      pop\n      jump\t// out\n        /* \"#utility.yul\":4221:5166   */\n    tag_19:\n        /* \"#utility.yul\":4317:4323   */\n      0x00\n        /* \"#utility.yul\":4325:4331   */\n      dup1\n        /* \"#utility.yul\":4333:4339   */\n      0x00\n        /* \"#utility.yul\":4341:4347   */\n      dup1\n        /* \"#utility.yul\":4390:4393   */\n      0x80\n        /* \"#utility.yul\":4378:4387   */\n      dup6\n        /* \"#utility.yul\":4369:4376   */\n      dup8\n        /* \"#utility.yul\":4365:4388   */\n      sub\n        /* \"#utility.yul\":4361:4394   */\n      slt\n        /* \"#utility.yul\":4358:4478   */\n      iszero\n      tag_191\n      jumpi\n        /* \"#utility.yul\":4397:4476   */\n      tag_192\n      tag_103\n      jump\t// in\n    tag_192:\n        /* \"#utility.yul\":4358:4478   */\n    tag_191:\n        /* \"#utility.yul\":4545:4546   */\n      0x00\n        /* \"#utility.yul\":4534:4543   */\n      dup6\n        /* \"#utility.yul\":4530:4547   */\n      add\n        /* \"#utility.yul\":4517:4548   */\n      calldataload\n        /* \"#utility.yul\":4575:4593   */\n      0xffffffffffffffff\n        /* \"#utility.yul\":4567:4573   */\n      dup2\n        /* \"#utility.yul\":4564:4594   */\n      gt\n        /* \"#utility.yul\":4561:4678   */\n      iszero\n      tag_193\n      jumpi\n        /* \"#utility.yul\":4597:4676   */\n      tag_194\n      tag_104\n      jump\t// in\n    tag_194:\n        /* \"#utility.yul\":4561:4678   */\n    tag_193:\n        /* \"#utility.yul\":4702:4765   */\n      tag_195\n        /* \"#utility.yul\":4757:4764   */\n      dup8\n        /* \"#utility.yul\":4748:4754   */\n      dup3\n        /* \"#utility.yul\":4737:4746   */\n      dup9\n        /* \"#utility.yul\":4733:4755   */\n      add\n        /* \"#utility.yul\":4702:4765   */\n      tag_114\n      jump\t// in\n    tag_195:\n        /* \"#utility.yul\":4692:4765   */\n      swap5\n      pop\n        /* \"#utility.yul\":4488:4775   */\n      pop\n        /* \"#utility.yul\":4814:4816   */\n      0x20\n        /* \"#utility.yul\":4840:4893   */\n      tag_196\n        /* \"#utility.yul\":4885:4892   */\n      dup8\n        /* \"#utility.yul\":4876:4882   */\n      dup3\n        /* \"#utility.yul\":4865:4874   */\n      dup9\n        /* \"#utility.yul\":4861:4883   */\n      add\n        /* \"#utility.yul\":4840:4893   */\n      tag_121\n      jump\t// in\n    tag_196:\n        /* \"#utility.yul\":4830:4893   */\n      swap4\n      pop\n        /* \"#utility.yul\":4785:4903   */\n      pop\n        /* \"#utility.yul\":4942:4944   */\n      0x40\n        /* \"#utility.yul\":4968:5021   */\n      tag_197\n        /* \"#utility.yul\":5013:5020   */\n      dup8\n        /* \"#utility.yul\":5004:5010   */\n      dup3\n        /* \"#utility.yul\":4993:5002   */\n      dup9\n        /* \"#utility.yul\":4989:5011   */\n      add\n        /* \"#utility.yul\":4968:5021   */\n      tag_121\n      jump\t// in\n    tag_197:\n        /* \"#utility.yul\":4958:5021   */\n      swap3\n      pop\n        /* \"#utility.yul\":4913:5031   */\n      pop\n        /* \"#utility.yul\":5070:5072   */\n      0x60\n        /* \"#utility.yul\":5096:5149   */\n      tag_198\n        /* \"#utility.yul\":5141:5148   */\n      dup8\n        /* \"#utility.yul\":5132:5138   */\n      dup3\n        /* \"#utility.yul\":5121:5130   */\n      dup9\n        /* \"#utility.yul\":5117:5139   */\n      add\n        /* \"#utility.yul\":5096:5149   */\n      tag_117\n      jump\t// in\n    tag_198:\n        /* \"#utility.yul\":5086:5149   */\n      swap2\n      pop\n        /* \"#utility.yul\":5041:5159   */\n      pop\n        /* \"#utility.yul\":4221:5166   */\n      swap3\n      swap6\n      swap2\n      swap5\n      pop\n      swap3\n      pop\n      jump\t// out\n        /* \"#utility.yul\":5172:5826   */\n    tag_24:\n        /* \"#utility.yul\":5250:5256   */\n      0x00\n        /* \"#utility.yul\":5258:5264   */\n      dup1\n        /* \"#utility.yul\":5307:5309   */\n      0x40\n        /* \"#utility.yul\":5295:5304   */\n      dup4\n        /* \"#utility.yul\":5286:5293   */\n      dup6\n        /* \"#utility.yul\":5282:5305   */\n      sub\n        /* \"#utility.yul\":5278:5310   */\n      slt\n        /* \"#utility.yul\":5275:5394   */\n      iszero\n      tag_200\n      jumpi\n        /* \"#utility.yul\":5313:5392   */\n      tag_201\n      tag_103\n      jump\t// in\n    tag_201:\n        /* \"#utility.yul\":5275:5394   */\n    tag_200:\n        /* \"#utility.yul\":5461:5462   */\n      0x00\n        /* \"#utility.yul\":5450:5459   */\n      dup4\n        /* \"#utility.yul\":5446:5463   */\n      add\n        /* \"#utility.yul\":5433:5464   */\n      calldataload\n        /* \"#utility.yul\":5491:5509   */\n      0xffffffffffffffff\n        /* \"#utility.yul\":5483:5489   */\n      dup2\n        /* \"#utility.yul\":5480:5510   */\n      gt\n        /* \"#utility.yul\":5477:5594   */\n      iszero\n      tag_202\n      jumpi\n        /* \"#utility.yul\":5513:5592   */\n      tag_203\n      tag_104\n      jump\t// in\n    tag_203:\n        /* \"#utility.yul\":5477:5594   */\n    tag_202:\n        /* \"#utility.yul\":5618:5681   */\n      tag_204\n        /* \"#utility.yul\":5673:5680   */\n      dup6\n        /* \"#utility.yul\":5664:5670   */\n      dup3\n        /* \"#utility.yul\":5653:5662   */\n      dup7\n        /* \"#utility.yul\":5649:5671   */\n      add\n        /* \"#utility.yul\":5618:5681   */\n      tag_114\n      jump\t// in\n    tag_204:\n        /* \"#utility.yul\":5608:5681   */\n      swap3\n      pop\n        /* \"#utility.yul\":5404:5691   */\n      pop\n        /* \"#utility.yul\":5730:5732   */\n      0x20\n        /* \"#utility.yul\":5756:5809   */\n      tag_205\n        /* \"#utility.yul\":5801:5808   */\n      dup6\n        /* \"#utility.yul\":5792:5798   */\n      dup3\n        /* \"#utility.yul\":5781:5790   */\n      dup7\n        /* \"#utility.yul\":5777:5799   */\n      add\n        /* \"#utility.yul\":5756:5809   */\n      tag_121\n      jump\t// in\n    tag_205:\n        /* \"#utility.yul\":5746:5809   */\n      swap2\n      pop\n        /* \"#utility.yul\":5701:5819   */\n      pop\n        /* \"#utility.yul\":5172:5826   */\n      swap3\n      pop\n      swap3\n      swap1\n      pop\n      jump\t// out\n        /* \"#utility.yul\":5832:6486   */\n    tag_28:\n        /* \"#utility.yul\":5910:5916   */\n      0x00\n        /* \"#utility.yul\":5918:5924   */\n      dup1\n        /* \"#utility.yul\":5967:5969   */\n      0x40\n        /* \"#utility.yul\":5955:5964   */\n      dup4\n        /* \"#utility.yul\":5946:5953   */\n      dup6\n        /* \"#utility.yul\":5942:5965   */\n      sub\n        /* \"#utility.yul\":5938:5970   */\n      slt\n        /* \"#utility.yul\":5935:6054   */\n      iszero\n      tag_207\n      jumpi\n        /* \"#utility.yul\":5973:6052   */\n      tag_208\n      tag_103\n      jump\t// in\n    tag_208:\n        /* \"#utility.yul\":5935:6054   */\n    tag_207:\n        /* \"#utility.yul\":6121:6122   */\n      0x00\n        /* \"#utility.yul\":6110:6119   */\n      dup4\n        /* \"#utility.yul\":6106:6123   */\n      add\n        /* \"#utility.yul\":6093:6124   */\n      calldataload\n        /* \"#utility.yul\":6151:6169   */\n      0xffffffffffffffff\n        /* \"#utility.yul\":6143:6149   */\n      dup2\n        /* \"#utility.yul\":6140:6170   */\n      gt\n        /* \"#utility.yul\":6137:6254   */\n      iszero\n      tag_209\n      jumpi\n        /* \"#utility.yul\":6173:6252   */\n      tag_210\n      tag_104\n      jump\t// in\n    tag_210:\n        /* \"#utility.yul\":6137:6254   */\n    tag_209:\n        /* \"#utility.yul\":6278:6341   */\n      tag_211\n        /* \"#utility.yul\":6333:6340   */\n      dup6\n        /* \"#utility.yul\":6324:6330   */\n      dup3\n        /* \"#utility.yul\":6313:6322   */\n      dup7\n        /* \"#utility.yul\":6309:6331   */\n      add\n        /* \"#utility.yul\":6278:6341   */\n      tag_114\n      jump\t// in\n    tag_211:\n        /* \"#utility.yul\":6268:6341   */\n      swap3\n      pop\n        /* \"#utility.yul\":6064:6351   */\n      pop\n        /* \"#utility.yul\":6390:6392   */\n      0x20\n        /* \"#utility.yul\":6416:6469   */\n      tag_212\n        /* \"#utility.yul\":6461:6468   */\n      dup6\n        /* \"#utility.yul\":6452:6458   */\n      dup3\n        /* \"#utility.yul\":6441:6450   */\n      dup7\n        /* \"#utility.yul\":6437:6459   */\n      add\n        /* \"#utility.yul\":6416:6469   */\n      tag_117\n      jump\t// in\n    tag_212:\n        /* \"#utility.yul\":6406:6469   */\n      swap2\n      pop\n        /* \"#utility.yul\":6361:6479   */\n      pop\n        /* \"#utility.yul\":5832:6486   */\n      swap3\n      pop\n      swap3\n      swap1\n      pop\n      jump\t// out\n        /* \"#utility.yul\":6492:7001   */\n    tag_33:\n        /* \"#utility.yul\":6561:6567   */\n      0x00\n        /* \"#utility.yul\":6610:6612   */\n      0x20\n        /* \"#utility.yul\":6598:6607   */\n      dup3\n        /* \"#utility.yul\":6589:6596   */\n      dup5\n        /* \"#utility.yul\":6585:6608   */\n      sub\n        /* \"#utility.yul\":6581:6613   */\n      slt\n        /* \"#utility.yul\":6578:6697   */\n      iszero\n      tag_214\n      jumpi\n        /* \"#utility.yul\":6616:6695   */\n      tag_215\n      tag_103\n      jump\t// in\n    tag_215:\n        /* \"#utility.yul\":6578:6697   */\n    tag_214:\n        /* \"#utility.yul\":6764:6765   */\n      0x00\n        /* \"#utility.yul\":6753:6762   */\n      dup3\n        /* \"#utility.yul\":6749:6766   */\n      add\n        /* \"#utility.yul\":6736:6767   */\n      calldataload\n        /* \"#utility.yul\":6794:6812   */\n      0xffffffffffffffff\n        /* \"#utility.yul\":6786:6792   */\n      dup2\n        /* \"#utility.yul\":6783:6813   */\n      gt\n        /* \"#utility.yul\":6780:6897   */\n      iszero\n      tag_216\n      jumpi\n        /* \"#utility.yul\":6816:6895   */\n      tag_217\n      tag_104\n      jump\t// in\n    tag_217:\n        /* \"#utility.yul\":6780:6897   */\n    tag_216:\n        /* \"#utility.yul\":6921:6984   */\n      tag_218\n        /* \"#utility.yul\":6976:6983   */\n      dup5\n        /* \"#utility.yul\":6967:6973   */\n      dup3\n        /* \"#utility.yul\":6956:6965   */\n      dup6\n        /* \"#utility.yul\":6952:6974   */\n      add\n        /* \"#utility.yul\":6921:6984   */\n      tag_114\n      jump\t// in\n    tag_218:\n        /* \"#utility.yul\":6911:6984   */\n      swap2\n      pop\n        /* \"#utility.yul\":6707:6994   */\n      pop\n        /* \"#utility.yul\":6492:7001   */\n      swap3\n      swap2\n      pop\n      pop\n      jump\t// out\n        /* \"#utility.yul\":7007:7125   */\n    tag_122:\n        /* \"#utility.yul\":7094:7118   */\n      tag_220\n        /* \"#utility.yul\":7112:7117   */\n      dup2\n        /* \"#utility.yul\":7094:7118   */\n      tag_119\n      jump\t// in\n    tag_220:\n        /* \"#utility.yul\":7089:7092   */\n      dup3\n        /* \"#utility.yul\":7082:7119   */\n      mstore\n        /* \"#utility.yul\":7007:7125   */\n      pop\n      pop\n      jump\t// out\n        /* \"#utility.yul\":7131:7353   */\n    tag_36:\n        /* \"#utility.yul\":7224:7228   */\n      0x00\n        /* \"#utility.yul\":7262:7264   */\n      0x20\n        /* \"#utility.yul\":7251:7260   */\n      dup3\n        /* \"#utility.yul\":7247:7265   */\n      add\n        /* \"#utility.yul\":7239:7265   */\n      swap1\n      pop\n        /* \"#utility.yul\":7275:7346   */\n      tag_222\n        /* \"#utility.yul\":7343:7344   */\n      0x00\n        /* \"#utility.yul\":7332:7341   */\n      dup4\n        /* \"#utility.yul\":7328:7345   */\n      add\n        /* \"#utility.yul\":7319:7325   */\n      dup5\n        /* \"#utility.yul\":7275:7346   */\n      tag_122\n      jump\t// in\n    tag_222:\n        /* \"#utility.yul\":7131:7353   */\n      swap3\n      swap2\n      pop\n      pop\n      jump\t// out\n        /* \"#utility.yul\":7359:8193   */\n    tag_44:\n        /* \"#utility.yul\":7447:7453   */\n      0x00\n        /* \"#utility.yul\":7455:7461   */\n      dup1\n        /* \"#utility.yul\":7504:7506   */\n      0x40\n        /* \"#utility.yul\":7492:7501   */\n      dup4\n        /* \"#utility.yul\":7483:7490   */\n      dup6\n        /* \"#utility.yul\":7479:7502   */\n      sub\n        /* \"#utility.yul\":7475:7507   */\n      slt\n        /* \"#utility.yul\":7472:7591   */\n      iszero\n      tag_224\n      jumpi\n        /* \"#utility.yul\":7510:7589   */\n      tag_225\n      tag_103\n      jump\t// in\n    tag_225:\n        /* \"#utility.yul\":7472:7591   */\n    tag_224:\n        /* \"#utility.yul\":7658:7659   */\n      0x00\n        /* \"#utility.yul\":7647:7656   */\n      dup4\n        /* \"#utility.yul\":7643:7660   */\n      add\n        /* \"#utility.yul\":7630:7661   */\n      calldataload\n        /* \"#utility.yul\":7688:7706   */\n      0xffffffffffffffff\n        /* \"#utility.yul\":7680:7686   */\n      dup2\n        /* \"#utility.yul\":7677:7707   */\n      gt\n        /* \"#utility.yul\":7674:7791   */\n      iszero\n      tag_226\n      jumpi\n        /* \"#utility.yul\":7710:7789   */\n      tag_227\n      tag_104\n      jump\t// in\n    tag_227:\n        /* \"#utility.yul\":7674:7791   */\n    tag_226:\n        /* \"#utility.yul\":7815:7878   */\n      tag_228\n        /* \"#utility.yul\":7870:7877   */\n      dup6\n        /* \"#utility.yul\":7861:7867   */\n      dup3\n        /* \"#utility.yul\":7850:7859   */\n      dup7\n        /* \"#utility.yul\":7846:7868   */\n      add\n        /* \"#utility.yul\":7815:7878   */\n      tag_114\n      jump\t// in\n    tag_228:\n        /* \"#utility.yul\":7805:7878   */\n      swap3\n      pop\n        /* \"#utility.yul\":7601:7888   */\n      pop\n        /* \"#utility.yul\":7955:7957   */\n      0x20\n        /* \"#utility.yul\":7944:7953   */\n      dup4\n        /* \"#utility.yul\":7940:7958   */\n      add\n        /* \"#utility.yul\":7927:7959   */\n      calldataload\n        /* \"#utility.yul\":7986:8004   */\n      0xffffffffffffffff\n        /* \"#utility.yul\":7978:7984   */\n      dup2\n        /* \"#utility.yul\":7975:8005   */\n      gt\n        /* \"#utility.yul\":7972:8089   */\n      iszero\n      tag_229\n      jumpi\n        /* \"#utility.yul\":8008:8087   */\n      tag_230\n      tag_104\n      jump\t// in\n    tag_230:\n        /* \"#utility.yul\":7972:8089   */\n    tag_229:\n        /* \"#utility.yul\":8113:8176   */\n      tag_231\n        /* \"#utility.yul\":8168:8175   */\n      dup6\n        /* \"#utility.yul\":8159:8165   */\n      dup3\n        /* \"#utility.yul\":8148:8157   */\n      dup7\n        /* \"#utility.yul\":8144:8166   */\n      add\n        /* \"#utility.yul\":8113:8176   */\n      tag_114\n      jump\t// in\n    tag_231:\n        /* \"#utility.yul\":8103:8176   */\n      swap2\n      pop\n        /* \"#utility.yul\":7898:8186   */\n      pop\n        /* \"#utility.yul\":7359:8193   */\n      swap3\n      pop\n      swap3\n      swap1\n      pop\n      jump\t// out\n        /* \"#utility.yul\":8199:8289   */\n    tag_123:\n        /* \"#utility.yul\":8233:8240   */\n      0x00\n        /* \"#utility.yul\":8276:8281   */\n      dup2\n        /* \"#utility.yul\":8269:8282   */\n      iszero\n        /* \"#utility.yul\":8262:8283   */\n      iszero\n        /* \"#utility.yul\":8251:8283   */\n      swap1\n      pop\n        /* \"#utility.yul\":8199:8289   */\n      swap2\n      swap1\n      pop\n      jump\t// out\n        /* \"#utility.yul\":8295:8404   */\n    tag_124:\n        /* \"#utility.yul\":8376:8397   */\n      tag_234\n        /* \"#utility.yul\":8391:8396   */\n      dup2\n        /* \"#utility.yul\":8376:8397   */\n      tag_123\n      jump\t// in\n    tag_234:\n        /* \"#utility.yul\":8371:8374   */\n      dup3\n        /* \"#utility.yul\":8364:8398   */\n      mstore\n        /* \"#utility.yul\":8295:8404   */\n      pop\n      pop\n      jump\t// out\n        /* \"#utility.yul\":8410:8620   */\n    tag_47:\n        /* \"#utility.yul\":8497:8501   */\n      0x00\n        /* \"#utility.yul\":8535:8537   */\n      0x20\n        /* \"#utility.yul\":8524:8533   */\n      dup3\n        /* \"#utility.yul\":8520:8538   */\n      add\n        /* \"#utility.yul\":8512:8538   */\n      swap1\n      pop\n        /* \"#utility.yul\":8548:8613   */\n      tag_236\n        /* \"#utility.yul\":8610:8611   */\n      0x00\n        /* \"#utility.yul\":8599:8608   */\n      dup4\n        /* \"#utility.yul\":8595:8612   */\n      add\n        /* \"#utility.yul\":8586:8592   */\n      dup5\n        /* \"#utility.yul\":8548:8613   */\n      tag_124\n      jump\t// in\n    tag_236:\n        /* \"#utility.yul\":8410:8620   */\n      swap3\n      swap2\n      pop\n      pop\n      jump\t// out\n        /* \"#utility.yul\":8626:8744   */\n    tag_125:\n        /* \"#utility.yul\":8713:8737   */\n      tag_238\n        /* \"#utility.yul\":8731:8736   */\n      dup2\n        /* \"#utility.yul\":8713:8737   */\n      tag_115\n      jump\t// in\n    tag_238:\n        /* \"#utility.yul\":8708:8711   */\n      dup3\n        /* \"#utility.yul\":8701:8738   */\n      mstore\n        /* \"#utility.yul\":8626:8744   */\n      pop\n      pop\n      jump\t// out\n        /* \"#utility.yul\":8750:9192   */\n    tag_53:\n        /* \"#utility.yul\":8899:8903   */\n      0x00\n        /* \"#utility.yul\":8937:8939   */\n      0x60\n        /* \"#utility.yul\":8926:8935   */\n      dup3\n        /* \"#utility.yul\":8922:8940   */\n      add\n        /* \"#utility.yul\":8914:8940   */\n      swap1\n      pop\n        /* \"#utility.yul\":8950:9021   */\n      tag_240\n        /* \"#utility.yul\":9018:9019   */\n      0x00\n        /* \"#utility.yul\":9007:9016   */\n      dup4\n        /* \"#utility.yul\":9003:9020   */\n      add\n        /* \"#utility.yul\":8994:9000   */\n      dup7\n        /* \"#utility.yul\":8950:9021   */\n      tag_122\n      jump\t// in\n    tag_240:\n        /* \"#utility.yul\":9031:9103   */\n      tag_241\n        /* \"#utility.yul\":9099:9101   */\n      0x20\n        /* \"#utility.yul\":9088:9097   */\n      dup4\n        /* \"#utility.yul\":9084:9102   */\n      add\n        /* \"#utility.yul\":9075:9081   */\n      dup6\n        /* \"#utility.yul\":9031:9103   */\n      tag_125\n      jump\t// in\n    tag_241:\n        /* \"#utility.yul\":9113:9185   */\n      tag_242\n        /* \"#utility.yul\":9181:9183   */\n      0x40\n        /* \"#utility.yul\":9170:9179   */\n      dup4\n        /* \"#utility.yul\":9166:9184   */\n      add\n        /* \"#utility.yul\":9157:9163   */\n      dup5\n        /* \"#utility.yul\":9113:9185   */\n      tag_125\n      jump\t// in\n    tag_242:\n        /* \"#utility.yul\":8750:9192   */\n      swap5\n      swap4\n      pop\n      pop\n      pop\n      pop\n      jump\t// out\n        /* \"#utility.yul\":9198:9297   */\n    tag_126:\n        /* \"#utility.yul\":9250:9256   */\n      0x00\n        /* \"#utility.yul\":9284:9289   */\n      dup2\n        /* \"#utility.yul\":9278:9290   */\n      mload\n        /* \"#utility.yul\":9268:9290   */\n      swap1\n      pop\n        /* \"#utility.yul\":9198:9297   */\n      swap2\n      swap1\n      pop\n      jump\t// out\n        /* \"#utility.yul\":9303:9451   */\n    tag_127:\n        /* \"#utility.yul\":9405:9416   */\n      0x00\n        /* \"#utility.yul\":9442:9445   */\n      dup2\n        /* \"#utility.yul\":9427:9445   */\n      swap1\n      pop\n        /* \"#utility.yul\":9303:9451   */\n      swap3\n      swap2\n      pop\n      pop\n      jump\t// out\n        /* \"#utility.yul\":9457:9703   */\n    tag_128:\n        /* \"#utility.yul\":9538:9539   */\n      0x00\n        /* \"#utility.yul\":9548:9661   */\n    tag_246:\n        /* \"#utility.yul\":9562:9568   */\n      dup4\n        /* \"#utility.yul\":9559:9560   */\n      dup2\n        /* \"#utility.yul\":9556:9569   */\n      lt\n        /* \"#utility.yul\":9548:9661   */\n      iszero\n      tag_248\n      jumpi\n        /* \"#utility.yul\":9647:9648   */\n      dup1\n        /* \"#utility.yul\":9642:9645   */\n      dup3\n        /* \"#utility.yul\":9638:9649   */\n      add\n        /* \"#utility.yul\":9632:9650   */\n      mload\n        /* \"#utility.yul\":9628:9629   */\n      dup2\n        /* \"#utility.yul\":9623:9626   */\n      dup5\n        /* \"#utility.yul\":9619:9630   */\n      add\n        /* \"#utility.yul\":9612:9651   */\n      mstore\n        /* \"#utility.yul\":9584:9586   */\n      0x20\n        /* \"#utility.yul\":9581:9582   */\n      dup2\n        /* \"#utility.yul\":9577:9587   */\n      add\n        /* \"#utility.yul\":9572:9587   */\n      swap1\n      pop\n        /* \"#utility.yul\":9548:9661   */\n      jump(tag_246)\n    tag_248:\n        /* \"#utility.yul\":9695:9696   */\n      0x00\n        /* \"#utility.yul\":9686:9692   */\n      dup5\n        /* \"#utility.yul\":9681:9684   */\n      dup5\n        /* \"#utility.yul\":9677:9693   */\n      add\n        /* \"#utility.yul\":9670:9697   */\n      mstore\n        /* \"#utility.yul\":9519:9703   */\n      pop\n        /* \"#utility.yul\":9457:9703   */\n      pop\n      pop\n      pop\n      jump\t// out\n        /* \"#utility.yul\":9709:10099   */\n    tag_129:\n        /* \"#utility.yul\":9815:9818   */\n      0x00\n        /* \"#utility.yul\":9843:9882   */\n      tag_250\n        /* \"#utility.yul\":9876:9881   */\n      dup3\n        /* \"#utility.yul\":9843:9882   */\n      tag_126\n      jump\t// in\n    tag_250:\n        /* \"#utility.yul\":9898:9987   */\n      tag_251\n        /* \"#utility.yul\":9980:9986   */\n      dup2\n        /* \"#utility.yul\":9975:9978   */\n      dup6\n        /* \"#utility.yul\":9898:9987   */\n      tag_127\n      jump\t// in\n    tag_251:\n        /* \"#utility.yul\":9891:9987   */\n      swap4\n      pop\n        /* \"#utility.yul\":9996:10061   */\n      tag_252\n        /* \"#utility.yul\":10054:10060   */\n      dup2\n        /* \"#utility.yul\":10049:10052   */\n      dup6\n        /* \"#utility.yul\":10042:10046   */\n      0x20\n        /* \"#utility.yul\":10035:10040   */\n      dup7\n        /* \"#utility.yul\":10031:10047   */\n      add\n        /* \"#utility.yul\":9996:10061   */\n      tag_128\n      jump\t// in\n    tag_252:\n        /* \"#utility.yul\":10086:10092   */\n      dup1\n        /* \"#utility.yul\":10081:10084   */\n      dup5\n        /* \"#utility.yul\":10077:10093   */\n      add\n        /* \"#utility.yul\":10070:10093   */\n      swap2\n      pop\n        /* \"#utility.yul\":9819:10099   */\n      pop\n        /* \"#utility.yul\":9709:10099   */\n      swap3\n      swap2\n      pop\n      pop\n      jump\t// out\n        /* \"#utility.yul\":10105:10380   */\n    tag_56:\n        /* \"#utility.yul\":10237:10240   */\n      0x00\n        /* \"#utility.yul\":10259:10354   */\n      tag_254\n        /* \"#utility.yul\":10350:10353   */\n      dup3\n        /* \"#utility.yul\":10341:10347   */\n      dup5\n        /* \"#utility.yul\":10259:10354   */\n      tag_129\n      jump\t// in\n    tag_254:\n        /* \"#utility.yul\":10252:10354   */\n      swap2\n      pop\n        /* \"#utility.yul\":10371:10374   */\n      dup2\n        /* \"#utility.yul\":10364:10374   */\n      swap1\n      pop\n        /* \"#utility.yul\":10105:10380   */\n      swap3\n      swap2\n      pop\n      pop\n      jump\t// out\n        /* \"#utility.yul\":10386:10608   */\n    tag_58:\n        /* \"#utility.yul\":10479:10483   */\n      0x00\n        /* \"#utility.yul\":10517:10519   */\n      0x20\n        /* \"#utility.yul\":10506:10515   */\n      dup3\n        /* \"#utility.yul\":10502:10520   */\n      add\n        /* \"#utility.yul\":10494:10520   */\n      swap1\n      pop\n        /* \"#utility.yul\":10530:10601   */\n      tag_256\n        /* \"#utility.yul\":10598:10599   */\n      0x00\n        /* \"#utility.yul\":10587:10596   */\n      dup4\n        /* \"#utility.yul\":10583:10600   */\n      add\n        /* \"#utility.yul\":10574:10580   */\n      dup5\n        /* \"#utility.yul\":10530:10601   */\n      tag_125\n      jump\t// in\n    tag_256:\n        /* \"#utility.yul\":10386:10608   */\n      swap3\n      swap2\n      pop\n      pop\n      jump\t// out\n        /* \"#utility.yul\":10614:10757   */\n    tag_130:\n        /* \"#utility.yul\":10671:10676   */\n      0x00\n        /* \"#utility.yul\":10702:10708   */\n      dup2\n        /* \"#utility.yul\":10696:10709   */\n      mload\n        /* \"#utility.yul\":10687:10709   */\n      swap1\n      pop\n        /* \"#utility.yul\":10718:10751   */\n      tag_258\n        /* \"#utility.yul\":10745:10750   */\n      dup2\n        /* \"#utility.yul\":10718:10751   */\n      tag_120\n      jump\t// in\n    tag_258:\n        /* \"#utility.yul\":10614:10757   */\n      swap3\n      swap2\n      pop\n      pop\n      jump\t// out\n        /* \"#utility.yul\":10763:11114   */\n    tag_62:\n        /* \"#utility.yul\":10833:10839   */\n      0x00\n        /* \"#utility.yul\":10882:10884   */\n      0x20\n        /* \"#utility.yul\":10870:10879   */\n      dup3\n        /* \"#utility.yul\":10861:10868   */\n      dup5\n        /* \"#utility.yul\":10857:10880   */\n      sub\n        /* \"#utility.yul\":10853:10885   */\n      slt\n        /* \"#utility.yul\":10850:10969   */\n      iszero\n      tag_260\n      jumpi\n        /* \"#utility.yul\":10888:10967   */\n      tag_261\n      tag_103\n      jump\t// in\n    tag_261:\n        /* \"#utility.yul\":10850:10969   */\n    tag_260:\n        /* \"#utility.yul\":11008:11009   */\n      0x00\n        /* \"#utility.yul\":11033:11097   */\n      tag_262\n        /* \"#utility.yul\":11089:11096   */\n      dup5\n        /* \"#utility.yul\":11080:11086   */\n      dup3\n        /* \"#utility.yul\":11069:11078   */\n      dup6\n        /* \"#utility.yul\":11065:11087   */\n      add\n        /* \"#utility.yul\":11033:11097   */\n      tag_130\n      jump\t// in\n    tag_262:\n        /* \"#utility.yul\":11023:11097   */\n      swap2\n      pop\n        /* \"#utility.yul\":10979:11107   */\n      pop\n        /* \"#utility.yul\":10763:11114   */\n      swap3\n      swap2\n      pop\n      pop\n      jump\t// out\n        /* \"#utility.yul\":11120:11289   */\n    tag_131:\n        /* \"#utility.yul\":11204:11215   */\n      0x00\n        /* \"#utility.yul\":11238:11244   */\n      dup3\n        /* \"#utility.yul\":11233:11236   */\n      dup3\n        /* \"#utility.yul\":11226:11245   */\n      mstore\n        /* \"#utility.yul\":11278:11282   */\n      0x20\n        /* \"#utility.yul\":11273:11276   */\n      dup3\n        /* \"#utility.yul\":11269:11283   */\n      add\n        /* \"#utility.yul\":11254:11283   */\n      swap1\n      pop\n        /* \"#utility.yul\":11120:11289   */\n      swap3\n      swap2\n      pop\n      pop\n      jump\t// out\n        /* \"#utility.yul\":11295:11468   */\n    tag_132:\n        /* \"#utility.yul\":11435:11460   */\n      0x6e6674206f776e657220213d206d73672e73656e646572000000000000000000\n        /* \"#utility.yul\":11431:11432   */\n      0x00\n        /* \"#utility.yul\":11423:11429   */\n      dup3\n        /* \"#utility.yul\":11419:11433   */\n      add\n        /* \"#utility.yul\":11412:11461   */\n      mstore\n        /* \"#utility.yul\":11295:11468   */\n      pop\n      jump\t// out\n        /* \"#utility.yul\":11474:11840   */\n    tag_133:\n        /* \"#utility.yul\":11616:11619   */\n      0x00\n        /* \"#utility.yul\":11637:11704   */\n      tag_266\n        /* \"#utility.yul\":11701:11703   */\n      0x17\n        /* \"#utility.yul\":11696:11699   */\n      dup4\n        /* \"#utility.yul\":11637:11704   */\n      tag_131\n      jump\t// in\n    tag_266:\n        /* \"#utility.yul\":11630:11704   */\n      swap2\n      pop\n        /* \"#utility.yul\":11713:11806   */\n      tag_267\n        /* \"#utility.yul\":11802:11805   */\n      dup3\n        /* \"#utility.yul\":11713:11806   */\n      tag_132\n      jump\t// in\n    tag_267:\n        /* \"#utility.yul\":11831:11833   */\n      0x20\n        /* \"#utility.yul\":11826:11829   */\n      dup3\n        /* \"#utility.yul\":11822:11834   */\n      add\n        /* \"#utility.yul\":11815:11834   */\n      swap1\n      pop\n        /* \"#utility.yul\":11474:11840   */\n      swap2\n      swap1\n      pop\n      jump\t// out\n        /* \"#utility.yul\":11846:12265   */\n    tag_65:\n        /* \"#utility.yul\":12012:12016   */\n      0x00\n        /* \"#utility.yul\":12050:12052   */\n      0x20\n        /* \"#utility.yul\":12039:12048   */\n      dup3\n        /* \"#utility.yul\":12035:12053   */\n      add\n        /* \"#utility.yul\":12027:12053   */\n      swap1\n      pop\n        /* \"#utility.yul\":12099:12108   */\n      dup2\n        /* \"#utility.yul\":12093:12097   */\n      dup2\n        /* \"#utility.yul\":12089:12109   */\n      sub\n        /* \"#utility.yul\":12085:12086   */\n      0x00\n        /* \"#utility.yul\":12074:12083   */\n      dup4\n        /* \"#utility.yul\":12070:12087   */\n      add\n        /* \"#utility.yul\":12063:12110   */\n      mstore\n        /* \"#utility.yul\":12127:12258   */\n      tag_269\n        /* \"#utility.yul\":12253:12257   */\n      dup2\n        /* \"#utility.yul\":12127:12258   */\n      tag_133\n      jump\t// in\n    tag_269:\n        /* \"#utility.yul\":12119:12258   */\n      swap1\n      pop\n        /* \"#utility.yul\":11846:12265   */\n      swap2\n      swap1\n      pop\n      jump\t// out\n        /* \"#utility.yul\":12271:12713   */\n    tag_72:\n        /* \"#utility.yul\":12420:12424   */\n      0x00\n        /* \"#utility.yul\":12458:12460   */\n      0x60\n        /* \"#utility.yul\":12447:12456   */\n      dup3\n        /* \"#utility.yul\":12443:12461   */\n      add\n        /* \"#utility.yul\":12435:12461   */\n      swap1\n      pop\n        /* \"#utility.yul\":12471:12542   */\n      tag_271\n        /* \"#utility.yul\":12539:12540   */\n      0x00\n        /* \"#utility.yul\":12528:12537   */\n      dup4\n        /* \"#utility.yul\":12524:12541   */\n      add\n        /* \"#utility.yul\":12515:12521   */\n      dup7\n        /* \"#utility.yul\":12471:12542   */\n      tag_122\n      jump\t// in\n    tag_271:\n        /* \"#utility.yul\":12552:12624   */\n      tag_272\n        /* \"#utility.yul\":12620:12622   */\n      0x20\n        /* \"#utility.yul\":12609:12618   */\n      dup4\n        /* \"#utility.yul\":12605:12623   */\n      add\n        /* \"#utility.yul\":12596:12602   */\n      dup6\n        /* \"#utility.yul\":12552:12624   */\n      tag_122\n      jump\t// in\n    tag_272:\n        /* \"#utility.yul\":12634:12706   */\n      tag_273\n        /* \"#utility.yul\":12702:12704   */\n      0x40\n        /* \"#utility.yul\":12691:12700   */\n      dup4\n        /* \"#utility.yul\":12687:12705   */\n      add\n        /* \"#utility.yul\":12678:12684   */\n      dup5\n        /* \"#utility.yul\":12634:12706   */\n      tag_125\n      jump\t// in\n    tag_273:\n        /* \"#utility.yul\":12271:12713   */\n      swap5\n      swap4\n      pop\n      pop\n      pop\n      pop\n      jump\t// out\n        /* \"#utility.yul\":12719:13096   */\n    tag_134:\n        /* \"#utility.yul\":12807:12810   */\n      0x00\n        /* \"#utility.yul\":12835:12874   */\n      tag_275\n        /* \"#utility.yul\":12868:12873   */\n      dup3\n        /* \"#utility.yul\":12835:12874   */\n      tag_126\n      jump\t// in\n    tag_275:\n        /* \"#utility.yul\":12890:12961   */\n      tag_276\n        /* \"#utility.yul\":12954:12960   */\n      dup2\n        /* \"#utility.yul\":12949:12952   */\n      dup6\n        /* \"#utility.yul\":12890:12961   */\n      tag_131\n      jump\t// in\n    tag_276:\n        /* \"#utility.yul\":12883:12961   */\n      swap4\n      pop\n        /* \"#utility.yul\":12970:13035   */\n      tag_277\n        /* \"#utility.yul\":13028:13034   */\n      dup2\n        /* \"#utility.yul\":13023:13026   */\n      dup6\n        /* \"#utility.yul\":13016:13020   */\n      0x20\n        /* \"#utility.yul\":13009:13014   */\n      dup7\n        /* \"#utility.yul\":13005:13021   */\n      add\n        /* \"#utility.yul\":12970:13035   */\n      tag_128\n      jump\t// in\n    tag_277:\n        /* \"#utility.yul\":13060:13089   */\n      tag_278\n        /* \"#utility.yul\":13082:13088   */\n      dup2\n        /* \"#utility.yul\":13060:13089   */\n      tag_107\n      jump\t// in\n    tag_278:\n        /* \"#utility.yul\":13055:13058   */\n      dup5\n        /* \"#utility.yul\":13051:13090   */\n      add\n        /* \"#utility.yul\":13044:13090   */\n      swap2\n      pop\n        /* \"#utility.yul\":12811:13096   */\n      pop\n        /* \"#utility.yul\":12719:13096   */\n      swap3\n      swap2\n      pop\n      pop\n      jump\t// out\n        /* \"#utility.yul\":13102:13525   */\n    tag_92:\n        /* \"#utility.yul\":13243:13247   */\n      0x00\n        /* \"#utility.yul\":13281:13283   */\n      0x40\n        /* \"#utility.yul\":13270:13279   */\n      dup3\n        /* \"#utility.yul\":13266:13284   */\n      add\n        /* \"#utility.yul\":13258:13284   */\n      swap1\n      pop\n        /* \"#utility.yul\":13294:13365   */\n      tag_280\n        /* \"#utility.yul\":13362:13363   */\n      0x00\n        /* \"#utility.yul\":13351:13360   */\n      dup4\n        /* \"#utility.yul\":13347:13364   */\n      add\n        /* \"#utility.yul\":13338:13344   */\n      dup6\n        /* \"#utility.yul\":13294:13365   */\n      tag_122\n      jump\t// in\n    tag_280:\n        /* \"#utility.yul\":13412:13421   */\n      dup2\n        /* \"#utility.yul\":13406:13410   */\n      dup2\n        /* \"#utility.yul\":13402:13422   */\n      sub\n        /* \"#utility.yul\":13397:13399   */\n      0x20\n        /* \"#utility.yul\":13386:13395   */\n      dup4\n        /* \"#utility.yul\":13382:13400   */\n      add\n        /* \"#utility.yul\":13375:13423   */\n      mstore\n        /* \"#utility.yul\":13440:13518   */\n      tag_281\n        /* \"#utility.yul\":13513:13517   */\n      dup2\n        /* \"#utility.yul\":13504:13510   */\n      dup5\n        /* \"#utility.yul\":13440:13518   */\n      tag_134\n      jump\t// in\n    tag_281:\n        /* \"#utility.yul\":13432:13518   */\n      swap1\n      pop\n        /* \"#utility.yul\":13102:13525   */\n      swap4\n      swap3\n      pop\n      pop\n      pop\n      jump\t// out\n        /* \"#utility.yul\":13531:13629   */\n    tag_135:\n        /* \"#utility.yul\":13582:13588   */\n      0x00\n        /* \"#utility.yul\":13616:13621   */\n      dup2\n        /* \"#utility.yul\":13610:13622   */\n      mload\n        /* \"#utility.yul\":13600:13622   */\n      swap1\n      pop\n        /* \"#utility.yul\":13531:13629   */\n      swap2\n      swap1\n      pop\n      jump\t// out\n        /* \"#utility.yul\":13635:13782   */\n    tag_136:\n        /* \"#utility.yul\":13736:13747   */\n      0x00\n        /* \"#utility.yul\":13773:13776   */\n      dup2\n        /* \"#utility.yul\":13758:13776   */\n      swap1\n      pop\n        /* \"#utility.yul\":13635:13782   */\n      swap3\n      swap2\n      pop\n      pop\n      jump\t// out\n        /* \"#utility.yul\":13788:14174   */\n    tag_137:\n        /* \"#utility.yul\":13892:13895   */\n      0x00\n        /* \"#utility.yul\":13920:13958   */\n      tag_285\n        /* \"#utility.yul\":13952:13957   */\n      dup3\n        /* \"#utility.yul\":13920:13958   */\n      tag_135\n      jump\t// in\n    tag_285:\n        /* \"#utility.yul\":13974:14062   */\n      tag_286\n        /* \"#utility.yul\":14055:14061   */\n      dup2\n        /* \"#utility.yul\":14050:14053   */\n      dup6\n        /* \"#utility.yul\":13974:14062   */\n      tag_136\n      jump\t// in\n    tag_286:\n        /* \"#utility.yul\":13967:14062   */\n      swap4\n      pop\n        /* \"#utility.yul\":14071:14136   */\n      tag_287\n        /* \"#utility.yul\":14129:14135   */\n      dup2\n        /* \"#utility.yul\":14124:14127   */\n      dup6\n        /* \"#utility.yul\":14117:14121   */\n      0x20\n        /* \"#utility.yul\":14110:14115   */\n      dup7\n        /* \"#utility.yul\":14106:14122   */\n      add\n        /* \"#utility.yul\":14071:14136   */\n      tag_128\n      jump\t// in\n    tag_287:\n        /* \"#utility.yul\":14161:14167   */\n      dup1\n        /* \"#utility.yul\":14156:14159   */\n      dup5\n        /* \"#utility.yul\":14152:14168   */\n      add\n        /* \"#utility.yul\":14145:14168   */\n      swap2\n      pop\n        /* \"#utility.yul\":13896:14174   */\n      pop\n        /* \"#utility.yul\":13788:14174   */\n      swap3\n      swap2\n      pop\n      pop\n      jump\t// out\n        /* \"#utility.yul\":14180:14451   */\n    tag_94:\n        /* \"#utility.yul\":14310:14313   */\n      0x00\n        /* \"#utility.yul\":14332:14425   */\n      tag_289\n        /* \"#utility.yul\":14421:14424   */\n      dup3\n        /* \"#utility.yul\":14412:14418   */\n      dup5\n        /* \"#utility.yul\":14332:14425   */\n      tag_137\n      jump\t// in\n    tag_289:\n        /* \"#utility.yul\":14325:14425   */\n      swap2\n      pop\n        /* \"#utility.yul\":14442:14445   */\n      dup2\n        /* \"#utility.yul\":14435:14445   */\n      swap1\n      pop\n        /* \"#utility.yul\":14180:14451   */\n      swap3\n      swap2\n      pop\n      pop\n      jump\t// out\n\n    auxdata: 0xa2646970667358221220fca78173cffa87892100195c816a049dad4140641ab3500ef3f640ad8e63ff8a64736f6c63430008110033\n}\n",
				"bytecode": {
					"linkReferences": {},
					"object": "608060405234801561001057600080fd5b50611319806100206000396000f3fe60806040526004361061007b5760003560e01c80636f45c0331161004e5780636f45c033146101175780637cb95147146101545780638aa0fdad14610191578063d72df326146101c15761007b565b80630f554ee114610080578063189ac995146100a95780633c6a15a7146100d257806362a638b9146100fb575b600080fd5b34801561008c57600080fd5b506100a760048036038101906100a29190610d14565b610200565b005b3480156100b557600080fd5b506100d060048036038101906100cb9190610de1565b6104dc565b005b3480156100de57600080fd5b506100f960048036038101906100f49190610e64565b61058f565b005b61011560048036038101906101109190610ec0565b6105f0565b005b34801561012357600080fd5b5061013e60048036038101906101399190610f1c565b6107e5565b60405161014b9190610f74565b60405180910390f35b34801561016057600080fd5b5061017b60048036038101906101769190610f1c565b61082e565b6040516101889190610f74565b60405180910390f35b6101ab60048036038101906101a69190610f8f565b610875565b6040516101b89190611022565b60405180910390f35b3480156101cd57600080fd5b506101e860048036038101906101e39190610ec0565b610a4b565b6040516101f79392919061104c565b60405180910390f35b3373ffffffffffffffffffffffffffffffffffffffff1660008460405161022791906110f4565b908152602001604051809103902060009054906101000a900473ffffffffffffffffffffffffffffffffffffffff1673ffffffffffffffffffffffffffffffffffffffff16636352211e846040518263ffffffff1660e01b815260040161028e919061110b565b602060405180830381865afa1580156102ab573d6000803e3d6000fd5b505050506040513d601f19601f820116820180604052508101906102cf919061113b565b73ffffffffffffffffffffffffffffffffffffffff1614610325576040517f08c379a000000000000000000000000000000000000000000000000000000000815260040161031c906111c5565b60405180910390fd5b600033905060405180606001604052808273ffffffffffffffffffffffffffffffffffffffff1681526020018481526020018381525060016000808760405161036e91906110f4565b908152602001604051809103902060009054906101000a900473ffffffffffffffffffffffffffffffffffffffff1673ffffffffffffffffffffffffffffffffffffffff1673ffffffffffffffffffffffffffffffffffffffff168152602001908152602001600020600085815260200190815260200160002060008201518160000160006101000a81548173ffffffffffffffffffffffffffffffffffffffff021916908373ffffffffffffffffffffffffffffffffffffffff16021790555060208201518160010155604082015181600201559050508073ffffffffffffffffffffffffffffffffffffffff167f76ace3ea45ab2691269253cf4691623b115072483bd49fd7fc1f378f42f5a7a560008660405161048e91906110f4565b908152602001604051809103902060009054906101000a900473ffffffffffffffffffffffffffffffffffffffff1685856040516104ce9392919061104c565b60405180910390a250505050565b6000846040516104ec91906110f4565b908152602001604051809103902060009054906101000a900473ffffffffffffffffffffffffffffffffffffffff1673ffffffffffffffffffffffffffffffffffffffff166323b872dd8484846040518463ffffffff1660e01b8152600401610557939291906111e5565b600060405180830381600087803b15801561057157600080fd5b505af1158015610585573d6000803e3d6000fd5b5050505050505050565b806000836040516105a091906110f4565b908152602001604051809103902060006101000a81548173ffffffffffffffffffffffffffffffffffffffff021916908373ffffffffffffffffffffffffffffffffffffffff1602179055505050565b60008060006105ff8585610a4b565b92509250925034811461061157600080fd5b600083905060003390508173ffffffffffffffffffffffffffffffffffffffff166108fc349081150290604051600060405180830381858888f19350505050158015610661573d6000803e3d6000fd5b5061066e878683896104dc565b60016000808960405161068191906110f4565b908152602001604051809103902060009054906101000a900473ffffffffffffffffffffffffffffffffffffffff1673ffffffffffffffffffffffffffffffffffffffff1673ffffffffffffffffffffffffffffffffffffffff1681526020019081526020016000206000858152602001908152602001600020600080820160006101000a81549073ffffffffffffffffffffffffffffffffffffffff02191690556001820160009055600282016000905550508173ffffffffffffffffffffffffffffffffffffffff168173ffffffffffffffffffffffffffffffffffffffff167f4bbee585c68c014080a294e95cc21a3bcb641b0ddf539f0cc2306b97b7efb90560008a60405161079491906110f4565b908152602001604051809103902060009054906101000a900473ffffffffffffffffffffffffffffffffffffffff1687876040516107d49392919061104c565b60405180910390a350505050505050565b6000818051602081018201805184825260208301602085012081835280955050505050506000915054906101000a900473ffffffffffffffffffffffffffffffffffffffff1681565b6000808260405161083f91906110f4565b908152602001604051809103902060009054906101000a900473ffffffffffffffffffffffffffffffffffffffff169050919050565b6000806000808560405161088991906110f4565b908152602001604051809103902060009054906101000a900473ffffffffffffffffffffffffffffffffffffffff1673ffffffffffffffffffffffffffffffffffffffff1633856040516024016108e1929190611255565b6040516020818303038152906040527fec272b7f000000000000000000000000000000000000000000000000000000007bffffffffffffffffffffffffffffffffffffffffffffffffffffffff19166020820180517bffffffffffffffffffffffffffffffffffffffffffffffffffffffff838183161783525050505060405161096b91906112cc565b6000604051808303816000865af19150503d80600081146109a8576040519150601f19603f3d011682016040523d82523d6000602084013e6109ad565b606091505b50915091503373ffffffffffffffffffffffffffffffffffffffff167f63d0dffd1cbc20d9e88a6e1a0adb1a7a6a44af741a786a5a5b4b57d7021adf666000876040516109fa91906110f4565b908152602001604051809103902060009054906101000a900473ffffffffffffffffffffffffffffffffffffffff1686604051610a38929190611255565b60405180910390a2819250505092915050565b600080600080600160008088604051610a6491906110f4565b908152602001604051809103902060009054906101000a900473ffffffffffffffffffffffffffffffffffffffff1673ffffffffffffffffffffffffffffffffffffffff1673ffffffffffffffffffffffffffffffffffffffff16815260200190815260200160002060008681526020019081526020016000206040518060600160405290816000820160009054906101000a900473ffffffffffffffffffffffffffffffffffffffff1673ffffffffffffffffffffffffffffffffffffffff1673ffffffffffffffffffffffffffffffffffffffff168152602001600182015481526020016002820154815250509050600081600001519050600082602001519050600083604001519050828282965096509650505050509250925092565b6000604051905090565b600080fd5b600080fd5b600080fd5b600080fd5b6000601f19601f8301169050919050565b7f4e487b7100000000000000000000000000000000000000000000000000000000600052604160045260246000fd5b610beb82610ba2565b810181811067ffffffffffffffff82111715610c0a57610c09610bb3565b5b80604052505050565b6000610c1d610b84565b9050610c298282610be2565b919050565b600067ffffffffffffffff821115610c4957610c48610bb3565b5b610c5282610ba2565b9050602081019050919050565b82818337600083830152505050565b6000610c81610c7c84610c2e565b610c13565b905082815260208101848484011115610c9d57610c9c610b9d565b5b610ca8848285610c5f565b509392505050565b600082601f830112610cc557610cc4610b98565b5b8135610cd5848260208601610c6e565b91505092915050565b6000819050919050565b610cf181610cde565b8114610cfc57600080fd5b50565b600081359050610d0e81610ce8565b92915050565b600080600060608486031215610d2d57610d2c610b8e565b5b600084013567ffffffffffffffff811115610d4b57610d4a610b93565b5b610d5786828701610cb0565b9350506020610d6886828701610cff565b9250506040610d7986828701610cff565b9150509250925092565b600073ffffffffffffffffffffffffffffffffffffffff82169050919050565b6000610dae82610d83565b9050919050565b610dbe81610da3565b8114610dc957600080fd5b50565b600081359050610ddb81610db5565b92915050565b60008060008060808587031215610dfb57610dfa610b8e565b5b600085013567ffffffffffffffff811115610e1957610e18610b93565b5b610e2587828801610cb0565b9450506020610e3687828801610dcc565b9350506040610e4787828801610dcc565b9250506060610e5887828801610cff565b91505092959194509250565b60008060408385031215610e7b57610e7a610b8e565b5b600083013567ffffffffffffffff811115610e9957610e98610b93565b5b610ea585828601610cb0565b9250506020610eb685828601610dcc565b9150509250929050565b60008060408385031215610ed757610ed6610b8e565b5b600083013567ffffffffffffffff811115610ef557610ef4610b93565b5b610f0185828601610cb0565b9250506020610f1285828601610cff565b9150509250929050565b600060208284031215610f3257610f31610b8e565b5b600082013567ffffffffffffffff811115610f5057610f4f610b93565b5b610f5c84828501610cb0565b91505092915050565b610f6e81610da3565b82525050565b6000602082019050610f896000830184610f65565b92915050565b60008060408385031215610fa657610fa5610b8e565b5b600083013567ffffffffffffffff811115610fc457610fc3610b93565b5b610fd085828601610cb0565b925050602083013567ffffffffffffffff811115610ff157610ff0610b93565b5b610ffd85828601610cb0565b9150509250929050565b60008115159050919050565b61101c81611007565b82525050565b60006020820190506110376000830184611013565b92915050565b61104681610cde565b82525050565b60006060820190506110616000830186610f65565b61106e602083018561103d565b61107b604083018461103d565b949350505050565b600081519050919050565b600081905092915050565b60005b838110156110b757808201518184015260208101905061109c565b60008484015250505050565b60006110ce82611083565b6110d8818561108e565b93506110e8818560208601611099565b80840191505092915050565b600061110082846110c3565b915081905092915050565b6000602082019050611120600083018461103d565b92915050565b60008151905061113581610db5565b92915050565b60006020828403121561115157611150610b8e565b5b600061115f84828501611126565b91505092915050565b600082825260208201905092915050565b7f6e6674206f776e657220213d206d73672e73656e646572000000000000000000600082015250565b60006111af601783611168565b91506111ba82611179565b602082019050919050565b600060208201905081810360008301526111de816111a2565b9050919050565b60006060820190506111fa6000830186610f65565b6112076020830185610f65565b611214604083018461103d565b949350505050565b600061122782611083565b6112318185611168565b9350611241818560208601611099565b61124a81610ba2565b840191505092915050565b600060408201905061126a6000830185610f65565b818103602083015261127c818461121c565b90509392505050565b600081519050919050565b600081905092915050565b60006112a682611285565b6112b08185611290565b93506112c0818560208601611099565b80840191505092915050565b60006112d8828461129b565b91508190509291505056fea2646970667358221220fca78173cffa87892100195c816a049dad4140641ab3500ef3f640ad8e63ff8a64736f6c63430008110033",
					"opcodes": "PUSH1 0x80 PUSH1 0x40 MSTORE CALLVALUE DUP1 ISZERO PUSH2 0x10 JUMPI PUSH1 0x0 DUP1 REVERT JUMPDEST POP PUSH2 0x1319 DUP1 PUSH2 0x20 PUSH1 0x0 CODECOPY PUSH1 0x0 RETURN INVALID PUSH1 0x80 PUSH1 0x40 MSTORE PUSH1 0x4 CALLDATASIZE LT PUSH2 0x7B JUMPI PUSH1 0x0 CALLDATALOAD PUSH1 0xE0 SHR DUP1 PUSH4 0x6F45C033 GT PUSH2 0x4E JUMPI DUP1 PUSH4 0x6F45C033 EQ PUSH2 0x117 JUMPI DUP1 PUSH4 0x7CB95147 EQ PUSH2 0x154 JUMPI DUP1 PUSH4 0x8AA0FDAD EQ PUSH2 0x191 JUMPI DUP1 PUSH4 0xD72DF326 EQ PUSH2 0x1C1 JUMPI PUSH2 0x7B JUMP JUMPDEST DUP1 PUSH4 0xF554EE1 EQ PUSH2 0x80 JUMPI DUP1 PUSH4 0x189AC995 EQ PUSH2 0xA9 JUMPI DUP1 PUSH4 0x3C6A15A7 EQ PUSH2 0xD2 JUMPI DUP1 PUSH4 0x62A638B9 EQ PUSH2 0xFB JUMPI JUMPDEST PUSH1 0x0 DUP1 REVERT JUMPDEST CALLVALUE DUP1 ISZERO PUSH2 0x8C JUMPI PUSH1 0x0 DUP1 REVERT JUMPDEST POP PUSH2 0xA7 PUSH1 0x4 DUP1 CALLDATASIZE SUB DUP2 ADD SWAP1 PUSH2 0xA2 SWAP2 SWAP1 PUSH2 0xD14 JUMP JUMPDEST PUSH2 0x200 JUMP JUMPDEST STOP JUMPDEST CALLVALUE DUP1 ISZERO PUSH2 0xB5 JUMPI PUSH1 0x0 DUP1 REVERT JUMPDEST POP PUSH2 0xD0 PUSH1 0x4 DUP1 CALLDATASIZE SUB DUP2 ADD SWAP1 PUSH2 0xCB SWAP2 SWAP1 PUSH2 0xDE1 JUMP JUMPDEST PUSH2 0x4DC JUMP JUMPDEST STOP JUMPDEST CALLVALUE DUP1 ISZERO PUSH2 0xDE JUMPI PUSH1 0x0 DUP1 REVERT JUMPDEST POP PUSH2 0xF9 PUSH1 0x4 DUP1 CALLDATASIZE SUB DUP2 ADD SWAP1 PUSH2 0xF4 SWAP2 SWAP1 PUSH2 0xE64 JUMP JUMPDEST PUSH2 0x58F JUMP JUMPDEST STOP JUMPDEST PUSH2 0x115 PUSH1 0x4 DUP1 CALLDATASIZE SUB DUP2 ADD SWAP1 PUSH2 0x110 SWAP2 SWAP1 PUSH2 0xEC0 JUMP JUMPDEST PUSH2 0x5F0 JUMP JUMPDEST STOP JUMPDEST CALLVALUE DUP1 ISZERO PUSH2 0x123 JUMPI PUSH1 0x0 DUP1 REVERT JUMPDEST POP PUSH2 0x13E PUSH1 0x4 DUP1 CALLDATASIZE SUB DUP2 ADD SWAP1 PUSH2 0x139 SWAP2 SWAP1 PUSH2 0xF1C JUMP JUMPDEST PUSH2 0x7E5 JUMP JUMPDEST PUSH1 0x40 MLOAD PUSH2 0x14B SWAP2 SWAP1 PUSH2 0xF74 JUMP JUMPDEST PUSH1 0x40 MLOAD DUP1 SWAP2 SUB SWAP1 RETURN JUMPDEST CALLVALUE DUP1 ISZERO PUSH2 0x160 JUMPI PUSH1 0x0 DUP1 REVERT JUMPDEST POP PUSH2 0x17B PUSH1 0x4 DUP1 CALLDATASIZE SUB DUP2 ADD SWAP1 PUSH2 0x176 SWAP2 SWAP1 PUSH2 0xF1C JUMP JUMPDEST PUSH2 0x82E JUMP JUMPDEST PUSH1 0x40 MLOAD PUSH2 0x188 SWAP2 SWAP1 PUSH2 0xF74 JUMP JUMPDEST PUSH1 0x40 MLOAD DUP1 SWAP2 SUB SWAP1 RETURN JUMPDEST PUSH2 0x1AB PUSH1 0x4 DUP1 CALLDATASIZE SUB DUP2 ADD SWAP1 PUSH2 0x1A6 SWAP2 SWAP1 PUSH2 0xF8F JUMP JUMPDEST PUSH2 0x875 JUMP JUMPDEST PUSH1 0x40 MLOAD PUSH2 0x1B8 SWAP2 SWAP1 PUSH2 0x1022 JUMP JUMPDEST PUSH1 0x40 MLOAD DUP1 SWAP2 SUB SWAP1 RETURN JUMPDEST CALLVALUE DUP1 ISZERO PUSH2 0x1CD JUMPI PUSH1 0x0 DUP1 REVERT JUMPDEST POP PUSH2 0x1E8 PUSH1 0x4 DUP1 CALLDATASIZE SUB DUP2 ADD SWAP1 PUSH2 0x1E3 SWAP2 SWAP1 PUSH2 0xEC0 JUMP JUMPDEST PUSH2 0xA4B JUMP JUMPDEST PUSH1 0x40 MLOAD PUSH2 0x1F7 SWAP4 SWAP3 SWAP2 SWAP1 PUSH2 0x104C JUMP JUMPDEST PUSH1 0x40 MLOAD DUP1 SWAP2 SUB SWAP1 RETURN JUMPDEST CALLER PUSH20 0xFFFFFFFFFFFFFFFFFFFFFFFFFFFFFFFFFFFFFFFF AND PUSH1 0x0 DUP5 PUSH1 0x40 MLOAD PUSH2 0x227 SWAP2 SWAP1 PUSH2 0x10F4 JUMP JUMPDEST SWAP1 DUP2 MSTORE PUSH1 0x20 ADD PUSH1 0x40 MLOAD DUP1 SWAP2 SUB SWAP1 KECCAK256 PUSH1 0x0 SWAP1 SLOAD SWAP1 PUSH2 0x100 EXP SWAP1 DIV PUSH20 0xFFFFFFFFFFFFFFFFFFFFFFFFFFFFFFFFFFFFFFFF AND PUSH20 0xFFFFFFFFFFFFFFFFFFFFFFFFFFFFFFFFFFFFFFFF AND PUSH4 0x6352211E DUP5 PUSH1 0x40 MLOAD DUP3 PUSH4 0xFFFFFFFF AND PUSH1 0xE0 SHL DUP2 MSTORE PUSH1 0x4 ADD PUSH2 0x28E SWAP2 SWAP1 PUSH2 0x110B JUMP JUMPDEST PUSH1 0x20 PUSH1 0x40 MLOAD DUP1 DUP4 SUB DUP2 DUP7 GAS STATICCALL ISZERO DUP1 ISZERO PUSH2 0x2AB JUMPI RETURNDATASIZE PUSH1 0x0 DUP1 RETURNDATACOPY RETURNDATASIZE PUSH1 0x0 REVERT JUMPDEST POP POP POP POP PUSH1 0x40 MLOAD RETURNDATASIZE PUSH1 0x1F NOT PUSH1 0x1F DUP3 ADD AND DUP3 ADD DUP1 PUSH1 0x40 MSTORE POP DUP2 ADD SWAP1 PUSH2 0x2CF SWAP2 SWAP1 PUSH2 0x113B JUMP JUMPDEST PUSH20 0xFFFFFFFFFFFFFFFFFFFFFFFFFFFFFFFFFFFFFFFF AND EQ PUSH2 0x325 JUMPI PUSH1 0x40 MLOAD PUSH32 0x8C379A000000000000000000000000000000000000000000000000000000000 DUP2 MSTORE PUSH1 0x4 ADD PUSH2 0x31C SWAP1 PUSH2 0x11C5 JUMP JUMPDEST PUSH1 0x40 MLOAD DUP1 SWAP2 SUB SWAP1 REVERT JUMPDEST PUSH1 0x0 CALLER SWAP1 POP PUSH1 0x40 MLOAD DUP1 PUSH1 0x60 ADD PUSH1 0x40 MSTORE DUP1 DUP3 PUSH20 0xFFFFFFFFFFFFFFFFFFFFFFFFFFFFFFFFFFFFFFFF AND DUP2 MSTORE PUSH1 0x20 ADD DUP5 DUP2 MSTORE PUSH1 0x20 ADD DUP4 DUP2 MSTORE POP PUSH1 0x1 PUSH1 0x0 DUP1 DUP8 PUSH1 0x40 MLOAD PUSH2 0x36E SWAP2 SWAP1 PUSH2 0x10F4 JUMP JUMPDEST SWAP1 DUP2 MSTORE PUSH1 0x20 ADD PUSH1 0x40 MLOAD DUP1 SWAP2 SUB SWAP1 KECCAK256 PUSH1 0x0 SWAP1 SLOAD SWAP1 PUSH2 0x100 EXP SWAP1 DIV PUSH20 0xFFFFFFFFFFFFFFFFFFFFFFFFFFFFFFFFFFFFFFFF AND PUSH20 0xFFFFFFFFFFFFFFFFFFFFFFFFFFFFFFFFFFFFFFFF AND PUSH20 0xFFFFFFFFFFFFFFFFFFFFFFFFFFFFFFFFFFFFFFFF AND DUP2 MSTORE PUSH1 0x20 ADD SWAP1 DUP2 MSTORE PUSH1 0x20 ADD PUSH1 0x0 KECCAK256 PUSH1 0x0 DUP6 DUP2 MSTORE PUSH1 0x20 ADD SWAP1 DUP2 MSTORE PUSH1 0x20 ADD PUSH1 0x0 KECCAK256 PUSH1 0x0 DUP3 ADD MLOAD DUP2 PUSH1 0x0 ADD PUSH1 0x0 PUSH2 0x100 EXP DUP2 SLOAD DUP2 PUSH20 0xFFFFFFFFFFFFFFFFFFFFFFFFFFFFFFFFFFFFFFFF MUL NOT AND SWAP1 DUP4 PUSH20 0xFFFFFFFFFFFFFFFFFFFFFFFFFFFFFFFFFFFFFFFF AND MUL OR SWAP1 SSTORE POP PUSH1 0x20 DUP3 ADD MLOAD DUP2 PUSH1 0x1 ADD SSTORE PUSH1 0x40 DUP3 ADD MLOAD DUP2 PUSH1 0x2 ADD SSTORE SWAP1 POP POP DUP1 PUSH20 0xFFFFFFFFFFFFFFFFFFFFFFFFFFFFFFFFFFFFFFFF AND PUSH32 0x76ACE3EA45AB2691269253CF4691623B115072483BD49FD7FC1F378F42F5A7A5 PUSH1 0x0 DUP7 PUSH1 0x40 MLOAD PUSH2 0x48E SWAP2 SWAP1 PUSH2 0x10F4 JUMP JUMPDEST SWAP1 DUP2 MSTORE PUSH1 0x20 ADD PUSH1 0x40 MLOAD DUP1 SWAP2 SUB SWAP1 KECCAK256 PUSH1 0x0 SWAP1 SLOAD SWAP1 PUSH2 0x100 EXP SWAP1 DIV PUSH20 0xFFFFFFFFFFFFFFFFFFFFFFFFFFFFFFFFFFFFFFFF AND DUP6 DUP6 PUSH1 0x40 MLOAD PUSH2 0x4CE SWAP4 SWAP3 SWAP2 SWAP1 PUSH2 0x104C JUMP JUMPDEST PUSH1 0x40 MLOAD DUP1 SWAP2 SUB SWAP1 LOG2 POP POP POP POP JUMP JUMPDEST PUSH1 0x0 DUP5 PUSH1 0x40 MLOAD PUSH2 0x4EC SWAP2 SWAP1 PUSH2 0x10F4 JUMP JUMPDEST SWAP1 DUP2 MSTORE PUSH1 0x20 ADD PUSH1 0x40 MLOAD DUP1 SWAP2 SUB SWAP1 KECCAK256 PUSH1 0x0 SWAP1 SLOAD SWAP1 PUSH2 0x100 EXP SWAP1 DIV PUSH20 0xFFFFFFFFFFFFFFFFFFFFFFFFFFFFFFFFFFFFFFFF AND PUSH20 0xFFFFFFFFFFFFFFFFFFFFFFFFFFFFFFFFFFFFFFFF AND PUSH4 0x23B872DD DUP5 DUP5 DUP5 PUSH1 0x40 MLOAD DUP5 PUSH4 0xFFFFFFFF AND PUSH1 0xE0 SHL DUP2 MSTORE PUSH1 0x4 ADD PUSH2 0x557 SWAP4 SWAP3 SWAP2 SWAP1 PUSH2 0x11E5 JUMP JUMPDEST PUSH1 0x0 PUSH1 0x40 MLOAD DUP1 DUP4 SUB DUP2 PUSH1 0x0 DUP8 DUP1 EXTCODESIZE ISZERO DUP1 ISZERO PUSH2 0x571 JUMPI PUSH1 0x0 DUP1 REVERT JUMPDEST POP GAS CALL ISZERO DUP1 ISZERO PUSH2 0x585 JUMPI RETURNDATASIZE PUSH1 0x0 DUP1 RETURNDATACOPY RETURNDATASIZE PUSH1 0x0 REVERT JUMPDEST POP POP POP POP POP POP POP POP JUMP JUMPDEST DUP1 PUSH1 0x0 DUP4 PUSH1 0x40 MLOAD PUSH2 0x5A0 SWAP2 SWAP1 PUSH2 0x10F4 JUMP JUMPDEST SWAP1 DUP2 MSTORE PUSH1 0x20 ADD PUSH1 0x40 MLOAD DUP1 SWAP2 SUB SWAP1 KECCAK256 PUSH1 0x0 PUSH2 0x100 EXP DUP2 SLOAD DUP2 PUSH20 0xFFFFFFFFFFFFFFFFFFFFFFFFFFFFFFFFFFFFFFFF MUL NOT AND SWAP1 DUP4 PUSH20 0xFFFFFFFFFFFFFFFFFFFFFFFFFFFFFFFFFFFFFFFF AND MUL OR SWAP1 SSTORE POP POP POP JUMP JUMPDEST PUSH1 0x0 DUP1 PUSH1 0x0 PUSH2 0x5FF DUP6 DUP6 PUSH2 0xA4B JUMP JUMPDEST SWAP3 POP SWAP3 POP SWAP3 POP CALLVALUE DUP2 EQ PUSH2 0x611 JUMPI PUSH1 0x0 DUP1 REVERT JUMPDEST PUSH1 0x0 DUP4 SWAP1 POP PUSH1 0x0 CALLER SWAP1 POP DUP2 PUSH20 0xFFFFFFFFFFFFFFFFFFFFFFFFFFFFFFFFFFFFFFFF AND PUSH2 0x8FC CALLVALUE SWAP1 DUP2 ISZERO MUL SWAP1 PUSH1 0x40 MLOAD PUSH1 0x0 PUSH1 0x40 MLOAD DUP1 DUP4 SUB DUP2 DUP6 DUP9 DUP9 CALL SWAP4 POP POP POP POP ISZERO DUP1 ISZERO PUSH2 0x661 JUMPI RETURNDATASIZE PUSH1 0x0 DUP1 RETURNDATACOPY RETURNDATASIZE PUSH1 0x0 REVERT JUMPDEST POP PUSH2 0x66E DUP8 DUP7 DUP4 DUP10 PUSH2 0x4DC JUMP JUMPDEST PUSH1 0x1 PUSH1 0x0 DUP1 DUP10 PUSH1 0x40 MLOAD PUSH2 0x681 SWAP2 SWAP1 PUSH2 0x10F4 JUMP JUMPDEST SWAP1 DUP2 MSTORE PUSH1 0x20 ADD PUSH1 0x40 MLOAD DUP1 SWAP2 SUB SWAP1 KECCAK256 PUSH1 0x0 SWAP1 SLOAD SWAP1 PUSH2 0x100 EXP SWAP1 DIV PUSH20 0xFFFFFFFFFFFFFFFFFFFFFFFFFFFFFFFFFFFFFFFF AND PUSH20 0xFFFFFFFFFFFFFFFFFFFFFFFFFFFFFFFFFFFFFFFF AND PUSH20 0xFFFFFFFFFFFFFFFFFFFFFFFFFFFFFFFFFFFFFFFF AND DUP2 MSTORE PUSH1 0x20 ADD SWAP1 DUP2 MSTORE PUSH1 0x20 ADD PUSH1 0x0 KECCAK256 PUSH1 0x0 DUP6 DUP2 MSTORE PUSH1 0x20 ADD SWAP1 DUP2 MSTORE PUSH1 0x20 ADD PUSH1 0x0 KECCAK256 PUSH1 0x0 DUP1 DUP3 ADD PUSH1 0x0 PUSH2 0x100 EXP DUP2 SLOAD SWAP1 PUSH20 0xFFFFFFFFFFFFFFFFFFFFFFFFFFFFFFFFFFFFFFFF MUL NOT AND SWAP1 SSTORE PUSH1 0x1 DUP3 ADD PUSH1 0x0 SWAP1 SSTORE PUSH1 0x2 DUP3 ADD PUSH1 0x0 SWAP1 SSTORE POP POP DUP2 PUSH20 0xFFFFFFFFFFFFFFFFFFFFFFFFFFFFFFFFFFFFFFFF AND DUP2 PUSH20 0xFFFFFFFFFFFFFFFFFFFFFFFFFFFFFFFFFFFFFFFF AND PUSH32 0x4BBEE585C68C014080A294E95CC21A3BCB641B0DDF539F0CC2306B97B7EFB905 PUSH1 0x0 DUP11 PUSH1 0x40 MLOAD PUSH2 0x794 SWAP2 SWAP1 PUSH2 0x10F4 JUMP JUMPDEST SWAP1 DUP2 MSTORE PUSH1 0x20 ADD PUSH1 0x40 MLOAD DUP1 SWAP2 SUB SWAP1 KECCAK256 PUSH1 0x0 SWAP1 SLOAD SWAP1 PUSH2 0x100 EXP SWAP1 DIV PUSH20 0xFFFFFFFFFFFFFFFFFFFFFFFFFFFFFFFFFFFFFFFF AND DUP8 DUP8 PUSH1 0x40 MLOAD PUSH2 0x7D4 SWAP4 SWAP3 SWAP2 SWAP1 PUSH2 0x104C JUMP JUMPDEST PUSH1 0x40 MLOAD DUP1 SWAP2 SUB SWAP1 LOG3 POP POP POP POP POP POP POP JUMP JUMPDEST PUSH1 0x0 DUP2 DUP1 MLOAD PUSH1 0x20 DUP2 ADD DUP3 ADD DUP1 MLOAD DUP5 DUP3 MSTORE PUSH1 0x20 DUP4 ADD PUSH1 0x20 DUP6 ADD KECCAK256 DUP2 DUP4 MSTORE DUP1 SWAP6 POP POP POP POP POP POP PUSH1 0x0 SWAP2 POP SLOAD SWAP1 PUSH2 0x100 EXP SWAP1 DIV PUSH20 0xFFFFFFFFFFFFFFFFFFFFFFFFFFFFFFFFFFFFFFFF AND DUP2 JUMP JUMPDEST PUSH1 0x0 DUP1 DUP3 PUSH1 0x40 MLOAD PUSH2 0x83F SWAP2 SWAP1 PUSH2 0x10F4 JUMP JUMPDEST SWAP1 DUP2 MSTORE PUSH1 0x20 ADD PUSH1 0x40 MLOAD DUP1 SWAP2 SUB SWAP1 KECCAK256 PUSH1 0x0 SWAP1 SLOAD SWAP1 PUSH2 0x100 EXP SWAP1 DIV PUSH20 0xFFFFFFFFFFFFFFFFFFFFFFFFFFFFFFFFFFFFFFFF AND SWAP1 POP SWAP2 SWAP1 POP JUMP JUMPDEST PUSH1 0x0 DUP1 PUSH1 0x0 DUP1 DUP6 PUSH1 0x40 MLOAD PUSH2 0x889 SWAP2 SWAP1 PUSH2 0x10F4 JUMP JUMPDEST SWAP1 DUP2 MSTORE PUSH1 0x20 ADD PUSH1 0x40 MLOAD DUP1 SWAP2 SUB SWAP1 KECCAK256 PUSH1 0x0 SWAP1 SLOAD SWAP1 PUSH2 0x100 EXP SWAP1 DIV PUSH20 0xFFFFFFFFFFFFFFFFFFFFFFFFFFFFFFFFFFFFFFFF AND PUSH20 0xFFFFFFFFFFFFFFFFFFFFFFFFFFFFFFFFFFFFFFFF AND CALLER DUP6 PUSH1 0x40 MLOAD PUSH1 0x24 ADD PUSH2 0x8E1 SWAP3 SWAP2 SWAP1 PUSH2 0x1255 JUMP JUMPDEST PUSH1 0x40 MLOAD PUSH1 0x20 DUP2 DUP4 SUB SUB DUP2 MSTORE SWAP1 PUSH1 0x40 MSTORE PUSH32 0xEC272B7F00000000000000000000000000000000000000000000000000000000 PUSH28 0xFFFFFFFFFFFFFFFFFFFFFFFFFFFFFFFFFFFFFFFFFFFFFFFFFFFFFFFF NOT AND PUSH1 0x20 DUP3 ADD DUP1 MLOAD PUSH28 0xFFFFFFFFFFFFFFFFFFFFFFFFFFFFFFFFFFFFFFFFFFFFFFFFFFFFFFFF DUP4 DUP2 DUP4 AND OR DUP4 MSTORE POP POP POP POP PUSH1 0x40 MLOAD PUSH2 0x96B SWAP2 SWAP1 PUSH2 0x12CC JUMP JUMPDEST PUSH1 0x0 PUSH1 0x40 MLOAD DUP1 DUP4 SUB DUP2 PUSH1 0x0 DUP7 GAS CALL SWAP2 POP POP RETURNDATASIZE DUP1 PUSH1 0x0 DUP2 EQ PUSH2 0x9A8 JUMPI PUSH1 0x40 MLOAD SWAP2 POP PUSH1 0x1F NOT PUSH1 0x3F RETURNDATASIZE ADD AND DUP3 ADD PUSH1 0x40 MSTORE RETURNDATASIZE DUP3 MSTORE RETURNDATASIZE PUSH1 0x0 PUSH1 0x20 DUP5 ADD RETURNDATACOPY PUSH2 0x9AD JUMP JUMPDEST PUSH1 0x60 SWAP2 POP JUMPDEST POP SWAP2 POP SWAP2 POP CALLER PUSH20 0xFFFFFFFFFFFFFFFFFFFFFFFFFFFFFFFFFFFFFFFF AND PUSH32 0x63D0DFFD1CBC20D9E88A6E1A0ADB1A7A6A44AF741A786A5A5B4B57D7021ADF66 PUSH1 0x0 DUP8 PUSH1 0x40 MLOAD PUSH2 0x9FA SWAP2 SWAP1 PUSH2 0x10F4 JUMP JUMPDEST SWAP1 DUP2 MSTORE PUSH1 0x20 ADD PUSH1 0x40 MLOAD DUP1 SWAP2 SUB SWAP1 KECCAK256 PUSH1 0x0 SWAP1 SLOAD SWAP1 PUSH2 0x100 EXP SWAP1 DIV PUSH20 0xFFFFFFFFFFFFFFFFFFFFFFFFFFFFFFFFFFFFFFFF AND DUP7 PUSH1 0x40 MLOAD PUSH2 0xA38 SWAP3 SWAP2 SWAP1 PUSH2 0x1255 JUMP JUMPDEST PUSH1 0x40 MLOAD DUP1 SWAP2 SUB SWAP1 LOG2 DUP2 SWAP3 POP POP POP SWAP3 SWAP2 POP POP JUMP JUMPDEST PUSH1 0x0 DUP1 PUSH1 0x0 DUP1 PUSH1 0x1 PUSH1 0x0 DUP1 DUP9 PUSH1 0x40 MLOAD PUSH2 0xA64 SWAP2 SWAP1 PUSH2 0x10F4 JUMP JUMPDEST SWAP1 DUP2 MSTORE PUSH1 0x20 ADD PUSH1 0x40 MLOAD DUP1 SWAP2 SUB SWAP1 KECCAK256 PUSH1 0x0 SWAP1 SLOAD SWAP1 PUSH2 0x100 EXP SWAP1 DIV PUSH20 0xFFFFFFFFFFFFFFFFFFFFFFFFFFFFFFFFFFFFFFFF AND PUSH20 0xFFFFFFFFFFFFFFFFFFFFFFFFFFFFFFFFFFFFFFFF AND PUSH20 0xFFFFFFFFFFFFFFFFFFFFFFFFFFFFFFFFFFFFFFFF AND DUP2 MSTORE PUSH1 0x20 ADD SWAP1 DUP2 MSTORE PUSH1 0x20 ADD PUSH1 0x0 KECCAK256 PUSH1 0x0 DUP7 DUP2 MSTORE PUSH1 0x20 ADD SWAP1 DUP2 MSTORE PUSH1 0x20 ADD PUSH1 0x0 KECCAK256 PUSH1 0x40 MLOAD DUP1 PUSH1 0x60 ADD PUSH1 0x40 MSTORE SWAP1 DUP2 PUSH1 0x0 DUP3 ADD PUSH1 0x0 SWAP1 SLOAD SWAP1 PUSH2 0x100 EXP SWAP1 DIV PUSH20 0xFFFFFFFFFFFFFFFFFFFFFFFFFFFFFFFFFFFFFFFF AND PUSH20 0xFFFFFFFFFFFFFFFFFFFFFFFFFFFFFFFFFFFFFFFF AND PUSH20 0xFFFFFFFFFFFFFFFFFFFFFFFFFFFFFFFFFFFFFFFF AND DUP2 MSTORE PUSH1 0x20 ADD PUSH1 0x1 DUP3 ADD SLOAD DUP2 MSTORE PUSH1 0x20 ADD PUSH1 0x2 DUP3 ADD SLOAD DUP2 MSTORE POP POP SWAP1 POP PUSH1 0x0 DUP2 PUSH1 0x0 ADD MLOAD SWAP1 POP PUSH1 0x0 DUP3 PUSH1 0x20 ADD MLOAD SWAP1 POP PUSH1 0x0 DUP4 PUSH1 0x40 ADD MLOAD SWAP1 POP DUP3 DUP3 DUP3 SWAP7 POP SWAP7 POP SWAP7 POP POP POP POP POP SWAP3 POP SWAP3 POP SWAP3 JUMP JUMPDEST PUSH1 0x0 PUSH1 0x40 MLOAD SWAP1 POP SWAP1 JUMP JUMPDEST PUSH1 0x0 DUP1 REVERT JUMPDEST PUSH1 0x0 DUP1 REVERT JUMPDEST PUSH1 0x0 DUP1 REVERT JUMPDEST PUSH1 0x0 DUP1 REVERT JUMPDEST PUSH1 0x0 PUSH1 0x1F NOT PUSH1 0x1F DUP4 ADD AND SWAP1 POP SWAP2 SWAP1 POP JUMP JUMPDEST PUSH32 0x4E487B7100000000000000000000000000000000000000000000000000000000 PUSH1 0x0 MSTORE PUSH1 0x41 PUSH1 0x4 MSTORE PUSH1 0x24 PUSH1 0x0 REVERT JUMPDEST PUSH2 0xBEB DUP3 PUSH2 0xBA2 JUMP JUMPDEST DUP2 ADD DUP2 DUP2 LT PUSH8 0xFFFFFFFFFFFFFFFF DUP3 GT OR ISZERO PUSH2 0xC0A JUMPI PUSH2 0xC09 PUSH2 0xBB3 JUMP JUMPDEST JUMPDEST DUP1 PUSH1 0x40 MSTORE POP POP POP JUMP JUMPDEST PUSH1 0x0 PUSH2 0xC1D PUSH2 0xB84 JUMP JUMPDEST SWAP1 POP PUSH2 0xC29 DUP3 DUP3 PUSH2 0xBE2 JUMP JUMPDEST SWAP2 SWAP1 POP JUMP JUMPDEST PUSH1 0x0 PUSH8 0xFFFFFFFFFFFFFFFF DUP3 GT ISZERO PUSH2 0xC49 JUMPI PUSH2 0xC48 PUSH2 0xBB3 JUMP JUMPDEST JUMPDEST PUSH2 0xC52 DUP3 PUSH2 0xBA2 JUMP JUMPDEST SWAP1 POP PUSH1 0x20 DUP2 ADD SWAP1 POP SWAP2 SWAP1 POP JUMP JUMPDEST DUP3 DUP2 DUP4 CALLDATACOPY PUSH1 0x0 DUP4 DUP4 ADD MSTORE POP POP POP JUMP JUMPDEST PUSH1 0x0 PUSH2 0xC81 PUSH2 0xC7C DUP5 PUSH2 0xC2E JUMP JUMPDEST PUSH2 0xC13 JUMP JUMPDEST SWAP1 POP DUP3 DUP2 MSTORE PUSH1 0x20 DUP2 ADD DUP5 DUP5 DUP5 ADD GT ISZERO PUSH2 0xC9D JUMPI PUSH2 0xC9C PUSH2 0xB9D JUMP JUMPDEST JUMPDEST PUSH2 0xCA8 DUP5 DUP3 DUP6 PUSH2 0xC5F JUMP JUMPDEST POP SWAP4 SWAP3 POP POP POP JUMP JUMPDEST PUSH1 0x0 DUP3 PUSH1 0x1F DUP4 ADD SLT PUSH2 0xCC5 JUMPI PUSH2 0xCC4 PUSH2 0xB98 JUMP JUMPDEST JUMPDEST DUP2 CALLDATALOAD PUSH2 0xCD5 DUP5 DUP3 PUSH1 0x20 DUP7 ADD PUSH2 0xC6E JUMP JUMPDEST SWAP2 POP POP SWAP3 SWAP2 POP POP JUMP JUMPDEST PUSH1 0x0 DUP2 SWAP1 POP SWAP2 SWAP1 POP JUMP JUMPDEST PUSH2 0xCF1 DUP2 PUSH2 0xCDE JUMP JUMPDEST DUP2 EQ PUSH2 0xCFC JUMPI PUSH1 0x0 DUP1 REVERT JUMPDEST POP JUMP JUMPDEST PUSH1 0x0 DUP2 CALLDATALOAD SWAP1 POP PUSH2 0xD0E DUP2 PUSH2 0xCE8 JUMP JUMPDEST SWAP3 SWAP2 POP POP JUMP JUMPDEST PUSH1 0x0 DUP1 PUSH1 0x0 PUSH1 0x60 DUP5 DUP7 SUB SLT ISZERO PUSH2 0xD2D JUMPI PUSH2 0xD2C PUSH2 0xB8E JUMP JUMPDEST JUMPDEST PUSH1 0x0 DUP5 ADD CALLDATALOAD PUSH8 0xFFFFFFFFFFFFFFFF DUP2 GT ISZERO PUSH2 0xD4B JUMPI PUSH2 0xD4A PUSH2 0xB93 JUMP JUMPDEST JUMPDEST PUSH2 0xD57 DUP7 DUP3 DUP8 ADD PUSH2 0xCB0 JUMP JUMPDEST SWAP4 POP POP PUSH1 0x20 PUSH2 0xD68 DUP7 DUP3 DUP8 ADD PUSH2 0xCFF JUMP JUMPDEST SWAP3 POP POP PUSH1 0x40 PUSH2 0xD79 DUP7 DUP3 DUP8 ADD PUSH2 0xCFF JUMP JUMPDEST SWAP2 POP POP SWAP3 POP SWAP3 POP SWAP3 JUMP JUMPDEST PUSH1 0x0 PUSH20 0xFFFFFFFFFFFFFFFFFFFFFFFFFFFFFFFFFFFFFFFF DUP3 AND SWAP1 POP SWAP2 SWAP1 POP JUMP JUMPDEST PUSH1 0x0 PUSH2 0xDAE DUP3 PUSH2 0xD83 JUMP JUMPDEST SWAP1 POP SWAP2 SWAP1 POP JUMP JUMPDEST PUSH2 0xDBE DUP2 PUSH2 0xDA3 JUMP JUMPDEST DUP2 EQ PUSH2 0xDC9 JUMPI PUSH1 0x0 DUP1 REVERT JUMPDEST POP JUMP JUMPDEST PUSH1 0x0 DUP2 CALLDATALOAD SWAP1 POP PUSH2 0xDDB DUP2 PUSH2 0xDB5 JUMP JUMPDEST SWAP3 SWAP2 POP POP JUMP JUMPDEST PUSH1 0x0 DUP1 PUSH1 0x0 DUP1 PUSH1 0x80 DUP6 DUP8 SUB SLT ISZERO PUSH2 0xDFB JUMPI PUSH2 0xDFA PUSH2 0xB8E JUMP JUMPDEST JUMPDEST PUSH1 0x0 DUP6 ADD CALLDATALOAD PUSH8 0xFFFFFFFFFFFFFFFF DUP2 GT ISZERO PUSH2 0xE19 JUMPI PUSH2 0xE18 PUSH2 0xB93 JUMP JUMPDEST JUMPDEST PUSH2 0xE25 DUP8 DUP3 DUP9 ADD PUSH2 0xCB0 JUMP JUMPDEST SWAP5 POP POP PUSH1 0x20 PUSH2 0xE36 DUP8 DUP3 DUP9 ADD PUSH2 0xDCC JUMP JUMPDEST SWAP4 POP POP PUSH1 0x40 PUSH2 0xE47 DUP8 DUP3 DUP9 ADD PUSH2 0xDCC JUMP JUMPDEST SWAP3 POP POP PUSH1 0x60 PUSH2 0xE58 DUP8 DUP3 DUP9 ADD PUSH2 0xCFF JUMP JUMPDEST SWAP2 POP POP SWAP3 SWAP6 SWAP2 SWAP5 POP SWAP3 POP JUMP JUMPDEST PUSH1 0x0 DUP1 PUSH1 0x40 DUP4 DUP6 SUB SLT ISZERO PUSH2 0xE7B JUMPI PUSH2 0xE7A PUSH2 0xB8E JUMP JUMPDEST JUMPDEST PUSH1 0x0 DUP4 ADD CALLDATALOAD PUSH8 0xFFFFFFFFFFFFFFFF DUP2 GT ISZERO PUSH2 0xE99 JUMPI PUSH2 0xE98 PUSH2 0xB93 JUMP JUMPDEST JUMPDEST PUSH2 0xEA5 DUP6 DUP3 DUP7 ADD PUSH2 0xCB0 JUMP JUMPDEST SWAP3 POP POP PUSH1 0x20 PUSH2 0xEB6 DUP6 DUP3 DUP7 ADD PUSH2 0xDCC JUMP JUMPDEST SWAP2 POP POP SWAP3 POP SWAP3 SWAP1 POP JUMP JUMPDEST PUSH1 0x0 DUP1 PUSH1 0x40 DUP4 DUP6 SUB SLT ISZERO PUSH2 0xED7 JUMPI PUSH2 0xED6 PUSH2 0xB8E JUMP JUMPDEST JUMPDEST PUSH1 0x0 DUP4 ADD CALLDATALOAD PUSH8 0xFFFFFFFFFFFFFFFF DUP2 GT ISZERO PUSH2 0xEF5 JUMPI PUSH2 0xEF4 PUSH2 0xB93 JUMP JUMPDEST JUMPDEST PUSH2 0xF01 DUP6 DUP3 DUP7 ADD PUSH2 0xCB0 JUMP JUMPDEST SWAP3 POP POP PUSH1 0x20 PUSH2 0xF12 DUP6 DUP3 DUP7 ADD PUSH2 0xCFF JUMP JUMPDEST SWAP2 POP POP SWAP3 POP SWAP3 SWAP1 POP JUMP JUMPDEST PUSH1 0x0 PUSH1 0x20 DUP3 DUP5 SUB SLT ISZERO PUSH2 0xF32 JUMPI PUSH2 0xF31 PUSH2 0xB8E JUMP JUMPDEST JUMPDEST PUSH1 0x0 DUP3 ADD CALLDATALOAD PUSH8 0xFFFFFFFFFFFFFFFF DUP2 GT ISZERO PUSH2 0xF50 JUMPI PUSH2 0xF4F PUSH2 0xB93 JUMP JUMPDEST JUMPDEST PUSH2 0xF5C DUP5 DUP3 DUP6 ADD PUSH2 0xCB0 JUMP JUMPDEST SWAP2 POP POP SWAP3 SWAP2 POP POP JUMP JUMPDEST PUSH2 0xF6E DUP2 PUSH2 0xDA3 JUMP JUMPDEST DUP3 MSTORE POP POP JUMP JUMPDEST PUSH1 0x0 PUSH1 0x20 DUP3 ADD SWAP1 POP PUSH2 0xF89 PUSH1 0x0 DUP4 ADD DUP5 PUSH2 0xF65 JUMP JUMPDEST SWAP3 SWAP2 POP POP JUMP JUMPDEST PUSH1 0x0 DUP1 PUSH1 0x40 DUP4 DUP6 SUB SLT ISZERO PUSH2 0xFA6 JUMPI PUSH2 0xFA5 PUSH2 0xB8E JUMP JUMPDEST JUMPDEST PUSH1 0x0 DUP4 ADD CALLDATALOAD PUSH8 0xFFFFFFFFFFFFFFFF DUP2 GT ISZERO PUSH2 0xFC4 JUMPI PUSH2 0xFC3 PUSH2 0xB93 JUMP JUMPDEST JUMPDEST PUSH2 0xFD0 DUP6 DUP3 DUP7 ADD PUSH2 0xCB0 JUMP JUMPDEST SWAP3 POP POP PUSH1 0x20 DUP4 ADD CALLDATALOAD PUSH8 0xFFFFFFFFFFFFFFFF DUP2 GT ISZERO PUSH2 0xFF1 JUMPI PUSH2 0xFF0 PUSH2 0xB93 JUMP JUMPDEST JUMPDEST PUSH2 0xFFD DUP6 DUP3 DUP7 ADD PUSH2 0xCB0 JUMP JUMPDEST SWAP2 POP POP SWAP3 POP SWAP3 SWAP1 POP JUMP JUMPDEST PUSH1 0x0 DUP2 ISZERO ISZERO SWAP1 POP SWAP2 SWAP1 POP JUMP JUMPDEST PUSH2 0x101C DUP2 PUSH2 0x1007 JUMP JUMPDEST DUP3 MSTORE POP POP JUMP JUMPDEST PUSH1 0x0 PUSH1 0x20 DUP3 ADD SWAP1 POP PUSH2 0x1037 PUSH1 0x0 DUP4 ADD DUP5 PUSH2 0x1013 JUMP JUMPDEST SWAP3 SWAP2 POP POP JUMP JUMPDEST PUSH2 0x1046 DUP2 PUSH2 0xCDE JUMP JUMPDEST DUP3 MSTORE POP POP JUMP JUMPDEST PUSH1 0x0 PUSH1 0x60 DUP3 ADD SWAP1 POP PUSH2 0x1061 PUSH1 0x0 DUP4 ADD DUP7 PUSH2 0xF65 JUMP JUMPDEST PUSH2 0x106E PUSH1 0x20 DUP4 ADD DUP6 PUSH2 0x103D JUMP JUMPDEST PUSH2 0x107B PUSH1 0x40 DUP4 ADD DUP5 PUSH2 0x103D JUMP JUMPDEST SWAP5 SWAP4 POP POP POP POP JUMP JUMPDEST PUSH1 0x0 DUP2 MLOAD SWAP1 POP SWAP2 SWAP1 POP JUMP JUMPDEST PUSH1 0x0 DUP2 SWAP1 POP SWAP3 SWAP2 POP POP JUMP JUMPDEST PUSH1 0x0 JUMPDEST DUP4 DUP2 LT ISZERO PUSH2 0x10B7 JUMPI DUP1 DUP3 ADD MLOAD DUP2 DUP5 ADD MSTORE PUSH1 0x20 DUP2 ADD SWAP1 POP PUSH2 0x109C JUMP JUMPDEST PUSH1 0x0 DUP5 DUP5 ADD MSTORE POP POP POP POP JUMP JUMPDEST PUSH1 0x0 PUSH2 0x10CE DUP3 PUSH2 0x1083 JUMP JUMPDEST PUSH2 0x10D8 DUP2 DUP6 PUSH2 0x108E JUMP JUMPDEST SWAP4 POP PUSH2 0x10E8 DUP2 DUP6 PUSH1 0x20 DUP7 ADD PUSH2 0x1099 JUMP JUMPDEST DUP1 DUP5 ADD SWAP2 POP POP SWAP3 SWAP2 POP POP JUMP JUMPDEST PUSH1 0x0 PUSH2 0x1100 DUP3 DUP5 PUSH2 0x10C3 JUMP JUMPDEST SWAP2 POP DUP2 SWAP1 POP SWAP3 SWAP2 POP POP JUMP JUMPDEST PUSH1 0x0 PUSH1 0x20 DUP3 ADD SWAP1 POP PUSH2 0x1120 PUSH1 0x0 DUP4 ADD DUP5 PUSH2 0x103D JUMP JUMPDEST SWAP3 SWAP2 POP POP JUMP JUMPDEST PUSH1 0x0 DUP2 MLOAD SWAP1 POP PUSH2 0x1135 DUP2 PUSH2 0xDB5 JUMP JUMPDEST SWAP3 SWAP2 POP POP JUMP JUMPDEST PUSH1 0x0 PUSH1 0x20 DUP3 DUP5 SUB SLT ISZERO PUSH2 0x1151 JUMPI PUSH2 0x1150 PUSH2 0xB8E JUMP JUMPDEST JUMPDEST PUSH1 0x0 PUSH2 0x115F DUP5 DUP3 DUP6 ADD PUSH2 0x1126 JUMP JUMPDEST SWAP2 POP POP SWAP3 SWAP2 POP POP JUMP JUMPDEST PUSH1 0x0 DUP3 DUP3 MSTORE PUSH1 0x20 DUP3 ADD SWAP1 POP SWAP3 SWAP2 POP POP JUMP JUMPDEST PUSH32 0x6E6674206F776E657220213D206D73672E73656E646572000000000000000000 PUSH1 0x0 DUP3 ADD MSTORE POP JUMP JUMPDEST PUSH1 0x0 PUSH2 0x11AF PUSH1 0x17 DUP4 PUSH2 0x1168 JUMP JUMPDEST SWAP2 POP PUSH2 0x11BA DUP3 PUSH2 0x1179 JUMP JUMPDEST PUSH1 0x20 DUP3 ADD SWAP1 POP SWAP2 SWAP1 POP JUMP JUMPDEST PUSH1 0x0 PUSH1 0x20 DUP3 ADD SWAP1 POP DUP2 DUP2 SUB PUSH1 0x0 DUP4 ADD MSTORE PUSH2 0x11DE DUP2 PUSH2 0x11A2 JUMP JUMPDEST SWAP1 POP SWAP2 SWAP1 POP JUMP JUMPDEST PUSH1 0x0 PUSH1 0x60 DUP3 ADD SWAP1 POP PUSH2 0x11FA PUSH1 0x0 DUP4 ADD DUP7 PUSH2 0xF65 JUMP JUMPDEST PUSH2 0x1207 PUSH1 0x20 DUP4 ADD DUP6 PUSH2 0xF65 JUMP JUMPDEST PUSH2 0x1214 PUSH1 0x40 DUP4 ADD DUP5 PUSH2 0x103D JUMP JUMPDEST SWAP5 SWAP4 POP POP POP POP JUMP JUMPDEST PUSH1 0x0 PUSH2 0x1227 DUP3 PUSH2 0x1083 JUMP JUMPDEST PUSH2 0x1231 DUP2 DUP6 PUSH2 0x1168 JUMP JUMPDEST SWAP4 POP PUSH2 0x1241 DUP2 DUP6 PUSH1 0x20 DUP7 ADD PUSH2 0x1099 JUMP JUMPDEST PUSH2 0x124A DUP2 PUSH2 0xBA2 JUMP JUMPDEST DUP5 ADD SWAP2 POP POP SWAP3 SWAP2 POP POP JUMP JUMPDEST PUSH1 0x0 PUSH1 0x40 DUP3 ADD SWAP1 POP PUSH2 0x126A PUSH1 0x0 DUP4 ADD DUP6 PUSH2 0xF65 JUMP JUMPDEST DUP2 DUP2 SUB PUSH1 0x20 DUP4 ADD MSTORE PUSH2 0x127C DUP2 DUP5 PUSH2 0x121C JUMP JUMPDEST SWAP1 POP SWAP4 SWAP3 POP POP POP JUMP JUMPDEST PUSH1 0x0 DUP2 MLOAD SWAP1 POP SWAP2 SWAP1 POP JUMP JUMPDEST PUSH1 0x0 DUP2 SWAP1 POP SWAP3 SWAP2 POP POP JUMP JUMPDEST PUSH1 0x0 PUSH2 0x12A6 DUP3 PUSH2 0x1285 JUMP JUMPDEST PUSH2 0x12B0 DUP2 DUP6 PUSH2 0x1290 JUMP JUMPDEST SWAP4 POP PUSH2 0x12C0 DUP2 DUP6 PUSH1 0x20 DUP7 ADD PUSH2 0x1099 JUMP JUMPDEST DUP1 DUP5 ADD SWAP2 POP POP SWAP3 SWAP2 POP POP JUMP JUMPDEST PUSH1 0x0 PUSH2 0x12D8 DUP3 DUP5 PUSH2 0x129B JUMP JUMPDEST SWAP2 POP DUP2 SWAP1 POP SWAP3 SWAP2 POP POP JUMP INVALID LOG2 PUSH5 0x6970667358 0x22 SLT KECCAK256 0xFC 0xA7 DUP2 PUSH20 0xCFFA87892100195C816A049DAD4140641AB3500E RETURN 0xF6 BLOCKHASH 0xAD DUP15 PUSH4 0xFF8A6473 PUSH16 0x6C634300081100330000000000000000 "
				},
				"gasEstimates": {
					"creation": {
						"codeDepositCost": "977800",
						"executionCost": "1014",
						"totalCost": "978814"
					},
					"external": {
						"addNftList(string,address)": "infinite",
						"applySale(string,uint256,uint256)": "infinite",
						"buySale(string,uint256)": "infinite",
						"getNftList(string)": "infinite",
						"getSales(string,uint256)": "infinite",
						"makeTransfer(string,address,address,uint256)": "infinite",
						"mint(string,string)": "infinite",
						"nftList(string)": "infinite"
					}
				},
				"methodIdentifiers": {
					"addNftList(string,address)": "3c6a15a7",
					"applySale(string,uint256,uint256)": "0f554ee1",
					"buySale(string,uint256)": "62a638b9",
					"getNftList(string)": "7cb95147",
					"getSales(string,uint256)": "d72df326",
					"makeTransfer(string,address,address,uint256)": "189ac995",
					"mint(string,string)": "8aa0fdad",
					"nftList(string)": "6f45c033"
				}
			},
			"storageLayout": {
				"storage": [
					{
						"astId": 187,
						"contract": "nftExchanger.sol:NftExchanger",
						"label": "nftList",
						"offset": 0,
						"slot": "0",
						"type": "t_mapping(t_string_memory_ptr,t_address)"
					},
					{
						"astId": 194,
						"contract": "nftExchanger.sol:NftExchanger",
						"label": "_sales",
						"offset": 0,
						"slot": "1",
						"type": "t_mapping(t_address,t_mapping(t_uint256,t_struct(SaleInfo)183_storage))"
					}
				],
				"types": {
					"t_address": {
						"encoding": "inplace",
						"label": "address",
						"numberOfBytes": "20"
					},
					"t_mapping(t_address,t_mapping(t_uint256,t_struct(SaleInfo)183_storage))": {
						"encoding": "mapping",
						"key": "t_address",
						"label": "mapping(address => mapping(uint256 => struct NftExchanger.SaleInfo))",
						"numberOfBytes": "32",
						"value": "t_mapping(t_uint256,t_struct(SaleInfo)183_storage)"
					},
					"t_mapping(t_string_memory_ptr,t_address)": {
						"encoding": "mapping",
						"key": "t_string_memory_ptr",
						"label": "mapping(string => address)",
						"numberOfBytes": "32",
						"value": "t_address"
					},
					"t_mapping(t_uint256,t_struct(SaleInfo)183_storage)": {
						"encoding": "mapping",
						"key": "t_uint256",
						"label": "mapping(uint256 => struct NftExchanger.SaleInfo)",
						"numberOfBytes": "32",
						"value": "t_struct(SaleInfo)183_storage"
					},
					"t_string_memory_ptr": {
						"encoding": "bytes",
						"label": "string",
						"numberOfBytes": "32"
					},
					"t_struct(SaleInfo)183_storage": {
						"encoding": "inplace",
						"label": "struct NftExchanger.SaleInfo",
						"members": [
							{
								"astId": 178,
								"contract": "nftExchanger.sol:NftExchanger",
								"label": "onwer",
								"offset": 0,
								"slot": "0",
								"type": "t_address"
							},
							{
								"astId": 180,
								"contract": "nftExchanger.sol:NftExchanger",
								"label": "tokenId",
								"offset": 0,
								"slot": "1",
								"type": "t_uint256"
							},
							{
								"astId": 182,
								"contract": "nftExchanger.sol:NftExchanger",
								"label": "price",
								"offset": 0,
								"slot": "2",
								"type": "t_uint256"
							}
						],
						"numberOfBytes": "96"
					},
					"t_uint256": {
						"encoding": "inplace",
						"label": "uint256",
						"numberOfBytes": "32"
					}
				}
			},
			"userdoc": {
				"kind": "user",
				"methods": {},
				"version": 1
			}
		}
	}
}